{
  "_format": "hh-sol-artifact-1",
  "contractName": "Power",
  "sourceName": "contracts/ContinuousToken/math/Power.sol",
  "abi": [
    {
      "inputs": [],
      "stateMutability": "nonpayable",
      "type": "constructor"
    },
    {
      "inputs": [],
      "name": "version",
      "outputs": [
        {
          "internalType": "string",
          "name": "",
          "type": "string"
        }
      ],
      "stateMutability": "view",
      "type": "function"
    }
  ],
  "bytecode": "0x60806040526040518060400160405280600381526020017f302e3300000000000000000000000000000000000000000000000000000000008152506000908051906020019061004f929190610e32565b5034801561005c57600080fd5b50701c35fedd14ffffffffffffffffffffffff600160206080811061007d57fe5b0181905550701b0ce43b323fffffffffffffffffffffff60016021608081106100a257fe5b01819055507019f0028ec1ffffffffffffffffffffffff60016022608081106100c757fe5b01819055507018ded91f0e7fffffffffffffffffffffff60016023608081106100ec57fe5b01819055507017d8ec7f0417ffffffffffffffffffffff600160246080811061011157fe5b01819055507016ddc6556cdbffffffffffffffffffffff600160256080811061013657fe5b01819055507015ecf52776a1ffffffffffffffffffffff600160266080811061015b57fe5b01819055507015060c256cb2ffffffffffffffffffffff600160276080811061018057fe5b0181905550701428a2f98d72ffffffffffffffffffffff60016028608081106101a557fe5b01819055507013545598e5c23fffffffffffffffffffff60016029608081106101ca57fe5b0181905550701288c4161ce1dfffffffffffffffffffff6001602a608081106101ef57fe5b01819055507011c592761c666fffffffffffffffffffff6001602b6080811061021457fe5b018190555070110a688680a757ffffffffffffffffffff6001602c6080811061023957fe5b0181905550701056f1b5bedf77ffffffffffffffffffff6001602d6080811061025e57fe5b0181905550700faadceceeff8bffffffffffffffffffff6001602e6080811061028357fe5b0181905550700f05dc6b27edadffffffffffffffffffff6001602f608081106102a857fe5b0181905550700e67a5a25da4107fffffffffffffffffff60016030608081106102cd57fe5b0181905550700dcff115b14eedffffffffffffffffffff60016031608081106102f257fe5b0181905550700d3e7a392431239fffffffffffffffffff600160326080811061031757fe5b0181905550700cb2ff529eb71e4fffffffffffffffffff600160336080811061033c57fe5b0181905550700c2d415c3db974afffffffffffffffffff600160346080811061036157fe5b0181905550700bad03e7d883f69bffffffffffffffffff600160356080811061038657fe5b0181905550700b320d03b2c343d5ffffffffffffffffff60016036608081106103ab57fe5b0181905550700abc25204e02828dffffffffffffffffff60016037608081106103d057fe5b0181905550700a4b16f74ee4bb207fffffffffffffffff60016038608081106103f557fe5b01819055507009deaf736ac1f569ffffffffffffffffff600160396080811061041a57fe5b0181905550700976bd9952c7aa957fffffffffffffffff6001603a6080811061043f57fe5b01819055507009131271922eaa606fffffffffffffffff6001603b6080811061046457fe5b01819055507008b380f3558668c46fffffffffffffffff6001603c6080811061048957fe5b0181905550700857ddf0117efa215bffffffffffffffff6001603d608081106104ae57fe5b01819055507007ffffffffffffffffffffffffffffffff6001603e608081106104d357fe5b01819055507007abbf6f6abb9d087fffffffffffffffff6001603f608081106104f857fe5b018190555070075af62cbac95f7dfa7fffffffffffffff600160406080811061051d57fe5b018190555070070d7fb7452e187ac13fffffffffffffff600160416080811061054257fe5b01819055507006c3390ecc8af379295fffffffffffffff600160426080811061056757fe5b018190555070067c00a3b07ffc01fd6fffffffffffffff600160436080811061058c57fe5b0181905550700637b647c39cbb9d3d27ffffffffffffff60016044608081106105b157fe5b01819055507005f63b1fc104dbd39587ffffffffffffff60016045608081106105d657fe5b01819055507005b771955b36e12f7235ffffffffffffff60016046608081106105fb57fe5b018190555070057b3d49dda84556d6f6ffffffffffffff600160476080811061062057fe5b018190555070054183095b2c8ececf30ffffffffffffff600160486080811061064557fe5b018190555070050a28be635ca2b888f77fffffffffffff600160496080811061066a57fe5b01819055507004d5156639708c9db33c3fffffffffffff6001604a6080811061068f57fe5b01819055507004a23105873875bd52dfdfffffffffffff6001604b608081106106b457fe5b0181905550700471649d87199aa990756fffffffffffff6001604c608081106106d957fe5b01819055507004429a21a029d4c1457cfbffffffffffff6001604d608081106106fe57fe5b0181905550700415bc6d6fb7dd71af2cb3ffffffffffff6001604e6080811061072357fe5b01819055507003eab73b3bbfe282243ce1ffffffffffff6001604f6080811061074857fe5b01819055507003c1771ac9fb6b4c18e229ffffffffffff600160506080811061076d57fe5b0181905550700399e96897690418f785257fffffffffff600160516080811061079257fe5b0181905550700373fc456c53bb779bf0ea9fffffffffff60016052608081106107b757fe5b018190555070034f9e8e490c48e67e6ab8bfffffffffff60016053608081106107dc57fe5b018190555070032cbfd4a7adc790560b3337ffffffffff600160546080811061080157fe5b018190555070030b50570f6e5d2acca94613ffffffffff600160556080811061082657fe5b01819055507002eb40f9f620fda6b56c2861ffffffffff600160566080811061084b57fe5b01819055507002cc8340ecb0d0f520a6af58ffffffffff600160576080811061087057fe5b01819055507002af09481380a0a35cf1ba02ffffffffff600160586080811061089557fe5b0181905550700292c5bdd3b92ec810287b1b3fffffffff60016059608081106108ba57fe5b0181905550700277abdcdab07d5a77ac6d6b9fffffffff6001605a608081106108df57fe5b018190555070025daf6654b1eaa55fd64df5efffffffff6001605b6080811061090457fe5b0181905550700244c49c648baa98192dce88b7ffffffff6001605c6080811061092957fe5b018190555070022ce03cd5619a311b2471268bffffffff6001605d6080811061094e57fe5b0181905550700215f77c045fbe885654a44a0fffffffff6001605e6080811061097357fe5b01819055507001ffffffffffffffffffffffffffffffff6001605f6080811061099857fe5b01819055507001eaefdbdaaee7421fc4d3ede5ffffffff60016060608081106109bd57fe5b01819055507001d6bd8b2eb257df7e8ca57b09bfffffff60016061608081106109e257fe5b01819055507001c35fedd14b861eb0443f7f133fffffff6001606260808110610a0757fe5b01819055507001b0ce43b322bcde4a56e8ada5afffffff6001606360808110610a2c57fe5b018190555070019f0028ec1fff007f5a195a39dfffffff6001606460808110610a5157fe5b018190555070018ded91f0e72ee74f49b15ba527ffffff6001606560808110610a7657fe5b018190555070017d8ec7f04136f4e5615fd41a63ffffff6001606660808110610a9b57fe5b018190555070016ddc6556cdb84bdc8d12d22e6fffffff6001606760808110610ac057fe5b018190555070015ecf52776a1155b5bd8395814f7fffff6001606860808110610ae557fe5b018190555070015060c256cb23b3b3cc3754cf40ffffff6001606960808110610b0a57fe5b01819055507001428a2f98d728ae223ddab715be3fffff6001606a60808110610b2f57fe5b018190555070013545598e5c23276ccf0ede68034fffff6001606b60808110610b5457fe5b01819055507001288c4161ce1d6f54b7f61081194fffff6001606c60808110610b7957fe5b018190555070011c592761c666aa641d5a01a40f17ffff6001606d60808110610b9e57fe5b0181905550700110a688680a7530515f3e6e6cfdcdffff6001606e60808110610bc357fe5b01819055507001056f1b5bedf75c6bcb2ce8aed428ffff6001606f60808110610be857fe5b01819055506ffaadceceeff8a0890f3875f008277fff6001607060808110610c0c57fe5b01819055506ff05dc6b27edad306388a600f6ba0bfff6001607160808110610c3057fe5b01819055506fe67a5a25da41063de1495d5b18cdbfff6001607260808110610c5457fe5b01819055506fdcff115b14eedde6fc3aa5353f2e4fff6001607360808110610c7857fe5b01819055506fd3e7a3924312399f9aae2e0f868f8fff6001607460808110610c9c57fe5b01819055506fcb2ff529eb71e41582cccd5a1ee26fff6001607560808110610cc057fe5b01819055506fc2d415c3db974ab32a51840c0b67edff6001607660808110610ce457fe5b01819055506fbad03e7d883f69ad5b0a186184e06bff6001607760808110610d0857fe5b01819055506fb320d03b2c343d4829abd6075f0cc5ff6001607860808110610d2c57fe5b01819055506fabc25204e02828d73c6e80bcdb1a95bf6001607960808110610d5057fe5b01819055506fa4b16f74ee4bb2040a1ec6c15fbbf2df6001607a60808110610d7457fe5b01819055506f9deaf736ac1f569deb1b5ae3f36c130f6001607b60808110610d9857fe5b01819055506f976bd9952c7aa957f5937d790ef650376001607c60808110610dbc57fe5b01819055506f9131271922eaa6064b73a22d0bd4f2bf6001607d60808110610de057fe5b01819055506f8b380f3558668c46c91c49a2f8e967b96001607e60808110610e0457fe5b01819055506f857ddf0117efa215952912839f6473e66001607f60808110610e2857fe5b0181905550610ed7565b828054600181600116156101000203166002900490600052602060002090601f016020900481019282601f10610e7357805160ff1916838001178555610ea1565b82800160010185558215610ea1579182015b82811115610ea0578251825591602001919060010190610e85565b5b509050610eae9190610eb2565b5090565b610ed491905b80821115610ed0576000816000905550600101610eb8565b5090565b90565b61018780610ee66000396000f3fe608060405234801561001057600080fd5b506004361061002b5760003560e01c806354fd4d5014610030575b600080fd5b6100386100b3565b6040518080602001828103825283818151815260200191508051906020019080838360005b8381101561007857808201518184015260208101905061005d565b50505050905090810190601f1680156100a55780820380516001836020036101000a031916815260200191505b509250505060405180910390f35b60008054600181600116156101000203166002900480601f0160208091040260200160405190810160405280929190818152602001828054600181600116156101000203166002900480156101495780601f1061011e57610100808354040283529160200191610149565b820191906000526020600020905b81548152906001019060200180831161012c57829003601f168201915b50505050508156fea264697066735822122058a26dcf255ded4e36b0bff8659bd4a18fbe0afd233d637f1d54168288ec457d64736f6c63430006060033",
  "linkReferences": {},
  "deployedLinkReferences": {}
}