{
  "_format": "hh-sol-artifact-1",
  "contractName": "LateStageBondingCurve",
  "sourceName": "contracts/LateStageBondingCurve.sol",
  "abi": [
    {
      "inputs": [
        {
          "internalType": "address",
          "name": "token_",
          "type": "address"
        },
        {
          "internalType": "uint32",
          "name": "_reserveRatio",
          "type": "uint32"
        },
        {
          "internalType": "uint256",
          "name": "total",
          "type": "uint256"
        }
      ],
      "stateMutability": "nonpayable",
      "type": "constructor"
    },
    {
      "inputs": [],
      "name": "buy",
      "outputs": [],
      "stateMutability": "payable",
      "type": "function"
    },
    {
      "inputs": [],
      "name": "buyFee",
      "outputs": [
        {
          "internalType": "uint256",
          "name": "",
          "type": "uint256"
        }
      ],
      "stateMutability": "view",
      "type": "function"
    },
    {
      "inputs": [
        {
          "internalType": "uint256",
          "name": "_supply",
          "type": "uint256"
        },
        {
          "internalType": "uint256",
          "name": "_reserveBalance",
          "type": "uint256"
        },
        {
          "internalType": "uint32",
          "name": "_reserveRatio",
          "type": "uint32"
        },
        {
          "internalType": "uint256",
          "name": "_depositAmount",
          "type": "uint256"
        }
      ],
      "name": "calculatePurchaseReturn",
      "outputs": [
        {
          "internalType": "uint256",
          "name": "",
          "type": "uint256"
        }
      ],
      "stateMutability": "view",
      "type": "function"
    },
    {
      "inputs": [
        {
          "internalType": "uint256",
          "name": "_supply",
          "type": "uint256"
        },
        {
          "internalType": "uint256",
          "name": "_reserveBalance",
          "type": "uint256"
        },
        {
          "internalType": "uint32",
          "name": "_reserveRatio",
          "type": "uint32"
        },
        {
          "internalType": "uint256",
          "name": "_sellAmount",
          "type": "uint256"
        }
      ],
      "name": "calculateSaleReturn",
      "outputs": [
        {
          "internalType": "uint256",
          "name": "",
          "type": "uint256"
        }
      ],
      "stateMutability": "view",
      "type": "function"
    },
    {
      "inputs": [],
      "name": "continuousSupply",
      "outputs": [
        {
          "internalType": "uint256",
          "name": "",
          "type": "uint256"
        }
      ],
      "stateMutability": "view",
      "type": "function"
    },
    {
      "inputs": [
        {
          "internalType": "uint256",
          "name": "_continuousTokenAmount",
          "type": "uint256"
        }
      ],
      "name": "getContinuousBurnRefund",
      "outputs": [
        {
          "internalType": "uint256",
          "name": "",
          "type": "uint256"
        }
      ],
      "stateMutability": "view",
      "type": "function"
    },
    {
      "inputs": [
        {
          "internalType": "uint256",
          "name": "_reserveTokenAmount",
          "type": "uint256"
        }
      ],
      "name": "getContinuousMintReward",
      "outputs": [
        {
          "internalType": "uint256",
          "name": "",
          "type": "uint256"
        }
      ],
      "stateMutability": "view",
      "type": "function"
    },
    {
      "inputs": [],
      "name": "reserveBalance",
      "outputs": [
        {
          "internalType": "uint256",
          "name": "",
          "type": "uint256"
        }
      ],
      "stateMutability": "view",
      "type": "function"
    },
    {
      "inputs": [],
      "name": "reserveRatio",
      "outputs": [
        {
          "internalType": "uint32",
          "name": "",
          "type": "uint32"
        }
      ],
      "stateMutability": "view",
      "type": "function"
    },
    {
      "inputs": [
        {
          "internalType": "uint256",
          "name": "amount",
          "type": "uint256"
        }
      ],
      "name": "sell",
      "outputs": [
        {
          "internalType": "uint256",
          "name": "",
          "type": "uint256"
        }
      ],
      "stateMutability": "nonpayable",
      "type": "function"
    },
    {
      "inputs": [],
      "name": "sellFee",
      "outputs": [
        {
          "internalType": "uint256",
          "name": "",
          "type": "uint256"
        }
      ],
      "stateMutability": "view",
      "type": "function"
    },
    {
      "inputs": [],
      "name": "soldAmount",
      "outputs": [
        {
          "internalType": "uint256",
          "name": "",
          "type": "uint256"
        }
      ],
      "stateMutability": "view",
      "type": "function"
    },
    {
      "inputs": [],
      "name": "tbca",
      "outputs": [
        {
          "internalType": "uint256",
          "name": "",
          "type": "uint256"
        }
      ],
      "stateMutability": "view",
      "type": "function"
    },
    {
      "inputs": [
        {
          "internalType": "address payable",
          "name": "newDAO_",
          "type": "address"
        }
      ],
      "name": "transferDAO",
      "outputs": [],
      "stateMutability": "nonpayable",
      "type": "function"
    },
    {
      "inputs": [
        {
          "internalType": "uint256",
          "name": "newFee_",
          "type": "uint256"
        }
      ],
      "name": "updateBuyFee",
      "outputs": [],
      "stateMutability": "nonpayable",
      "type": "function"
    },
    {
      "inputs": [
        {
          "internalType": "uint256",
          "name": "newFee_",
          "type": "uint256"
        }
      ],
      "name": "updateSellFee",
      "outputs": [],
      "stateMutability": "nonpayable",
      "type": "function"
    },
    {
      "inputs": [],
      "name": "version",
      "outputs": [
        {
          "internalType": "string",
          "name": "",
          "type": "string"
        }
      ],
      "stateMutability": "view",
      "type": "function"
    }
  ],
  "bytecode": "0x60806040526040518060400160405280600381526020017f302e330000000000000000000000000000000000000000000000000000000000815250600090805190602001906200005192919062001106565b506000608260006101000a81548173ffffffffffffffffffffffffffffffffffffffff021916908373ffffffffffffffffffffffffffffffffffffffff160217905550600060845560026085556000608655348015620000b057600080fd5b5060405162003b9e38038062003b9e83398181016040526060811015620000d657600080fd5b8101908080519060200190929190805190602001909291908051906020019092919050505081701c35fedd14ffffffffffffffffffffffff60016020608081106200011d57fe5b0181905550701b0ce43b323fffffffffffffffffffffff60016021608081106200014357fe5b01819055507019f0028ec1ffffffffffffffffffffffff60016022608081106200016957fe5b01819055507018ded91f0e7fffffffffffffffffffffff60016023608081106200018f57fe5b01819055507017d8ec7f0417ffffffffffffffffffffff6001602460808110620001b557fe5b01819055507016ddc6556cdbffffffffffffffffffffff6001602560808110620001db57fe5b01819055507015ecf52776a1ffffffffffffffffffffff60016026608081106200020157fe5b01819055507015060c256cb2ffffffffffffffffffffff60016027608081106200022757fe5b0181905550701428a2f98d72ffffffffffffffffffffff60016028608081106200024d57fe5b01819055507013545598e5c23fffffffffffffffffffff60016029608081106200027357fe5b0181905550701288c4161ce1dfffffffffffffffffffff6001602a608081106200029957fe5b01819055507011c592761c666fffffffffffffffffffff6001602b60808110620002bf57fe5b018190555070110a688680a757ffffffffffffffffffff6001602c60808110620002e557fe5b0181905550701056f1b5bedf77ffffffffffffffffffff6001602d608081106200030b57fe5b0181905550700faadceceeff8bffffffffffffffffffff6001602e608081106200033157fe5b0181905550700f05dc6b27edadffffffffffffffffffff6001602f608081106200035757fe5b0181905550700e67a5a25da4107fffffffffffffffffff60016030608081106200037d57fe5b0181905550700dcff115b14eedffffffffffffffffffff6001603160808110620003a357fe5b0181905550700d3e7a392431239fffffffffffffffffff6001603260808110620003c957fe5b0181905550700cb2ff529eb71e4fffffffffffffffffff6001603360808110620003ef57fe5b0181905550700c2d415c3db974afffffffffffffffffff60016034608081106200041557fe5b0181905550700bad03e7d883f69bffffffffffffffffff60016035608081106200043b57fe5b0181905550700b320d03b2c343d5ffffffffffffffffff60016036608081106200046157fe5b0181905550700abc25204e02828dffffffffffffffffff60016037608081106200048757fe5b0181905550700a4b16f74ee4bb207fffffffffffffffff6001603860808110620004ad57fe5b01819055507009deaf736ac1f569ffffffffffffffffff6001603960808110620004d357fe5b0181905550700976bd9952c7aa957fffffffffffffffff6001603a60808110620004f957fe5b01819055507009131271922eaa606fffffffffffffffff6001603b608081106200051f57fe5b01819055507008b380f3558668c46fffffffffffffffff6001603c608081106200054557fe5b0181905550700857ddf0117efa215bffffffffffffffff6001603d608081106200056b57fe5b01819055507007ffffffffffffffffffffffffffffffff6001603e608081106200059157fe5b01819055507007abbf6f6abb9d087fffffffffffffffff6001603f60808110620005b757fe5b018190555070075af62cbac95f7dfa7fffffffffffffff6001604060808110620005dd57fe5b018190555070070d7fb7452e187ac13fffffffffffffff60016041608081106200060357fe5b01819055507006c3390ecc8af379295fffffffffffffff60016042608081106200062957fe5b018190555070067c00a3b07ffc01fd6fffffffffffffff60016043608081106200064f57fe5b0181905550700637b647c39cbb9d3d27ffffffffffffff60016044608081106200067557fe5b01819055507005f63b1fc104dbd39587ffffffffffffff60016045608081106200069b57fe5b01819055507005b771955b36e12f7235ffffffffffffff6001604660808110620006c157fe5b018190555070057b3d49dda84556d6f6ffffffffffffff6001604760808110620006e757fe5b018190555070054183095b2c8ececf30ffffffffffffff60016048608081106200070d57fe5b018190555070050a28be635ca2b888f77fffffffffffff60016049608081106200073357fe5b01819055507004d5156639708c9db33c3fffffffffffff6001604a608081106200075957fe5b01819055507004a23105873875bd52dfdfffffffffffff6001604b608081106200077f57fe5b0181905550700471649d87199aa990756fffffffffffff6001604c60808110620007a557fe5b01819055507004429a21a029d4c1457cfbffffffffffff6001604d60808110620007cb57fe5b0181905550700415bc6d6fb7dd71af2cb3ffffffffffff6001604e60808110620007f157fe5b01819055507003eab73b3bbfe282243ce1ffffffffffff6001604f608081106200081757fe5b01819055507003c1771ac9fb6b4c18e229ffffffffffff60016050608081106200083d57fe5b0181905550700399e96897690418f785257fffffffffff60016051608081106200086357fe5b0181905550700373fc456c53bb779bf0ea9fffffffffff60016052608081106200088957fe5b018190555070034f9e8e490c48e67e6ab8bfffffffffff6001605360808110620008af57fe5b018190555070032cbfd4a7adc790560b3337ffffffffff6001605460808110620008d557fe5b018190555070030b50570f6e5d2acca94613ffffffffff6001605560808110620008fb57fe5b01819055507002eb40f9f620fda6b56c2861ffffffffff60016056608081106200092157fe5b01819055507002cc8340ecb0d0f520a6af58ffffffffff60016057608081106200094757fe5b01819055507002af09481380a0a35cf1ba02ffffffffff60016058608081106200096d57fe5b0181905550700292c5bdd3b92ec810287b1b3fffffffff60016059608081106200099357fe5b0181905550700277abdcdab07d5a77ac6d6b9fffffffff6001605a60808110620009b957fe5b018190555070025daf6654b1eaa55fd64df5efffffffff6001605b60808110620009df57fe5b0181905550700244c49c648baa98192dce88b7ffffffff6001605c6080811062000a0557fe5b018190555070022ce03cd5619a311b2471268bffffffff6001605d6080811062000a2b57fe5b0181905550700215f77c045fbe885654a44a0fffffffff6001605e6080811062000a5157fe5b01819055507001ffffffffffffffffffffffffffffffff6001605f6080811062000a7757fe5b01819055507001eaefdbdaaee7421fc4d3ede5ffffffff600160606080811062000a9d57fe5b01819055507001d6bd8b2eb257df7e8ca57b09bfffffff600160616080811062000ac357fe5b01819055507001c35fedd14b861eb0443f7f133fffffff600160626080811062000ae957fe5b01819055507001b0ce43b322bcde4a56e8ada5afffffff600160636080811062000b0f57fe5b018190555070019f0028ec1fff007f5a195a39dfffffff600160646080811062000b3557fe5b018190555070018ded91f0e72ee74f49b15ba527ffffff600160656080811062000b5b57fe5b018190555070017d8ec7f04136f4e5615fd41a63ffffff600160666080811062000b8157fe5b018190555070016ddc6556cdb84bdc8d12d22e6fffffff600160676080811062000ba757fe5b018190555070015ecf52776a1155b5bd8395814f7fffff600160686080811062000bcd57fe5b018190555070015060c256cb23b3b3cc3754cf40ffffff600160696080811062000bf357fe5b01819055507001428a2f98d728ae223ddab715be3fffff6001606a6080811062000c1957fe5b018190555070013545598e5c23276ccf0ede68034fffff6001606b6080811062000c3f57fe5b01819055507001288c4161ce1d6f54b7f61081194fffff6001606c6080811062000c6557fe5b018190555070011c592761c666aa641d5a01a40f17ffff6001606d6080811062000c8b57fe5b0181905550700110a688680a7530515f3e6e6cfdcdffff6001606e6080811062000cb157fe5b01819055507001056f1b5bedf75c6bcb2ce8aed428ffff6001606f6080811062000cd757fe5b01819055506ffaadceceeff8a0890f3875f008277fff600160706080811062000cfc57fe5b01819055506ff05dc6b27edad306388a600f6ba0bfff600160716080811062000d2157fe5b01819055506fe67a5a25da41063de1495d5b18cdbfff600160726080811062000d4657fe5b01819055506fdcff115b14eedde6fc3aa5353f2e4fff600160736080811062000d6b57fe5b01819055506fd3e7a3924312399f9aae2e0f868f8fff600160746080811062000d9057fe5b01819055506fcb2ff529eb71e41582cccd5a1ee26fff600160756080811062000db557fe5b01819055506fc2d415c3db974ab32a51840c0b67edff600160766080811062000dda57fe5b01819055506fbad03e7d883f69ad5b0a186184e06bff600160776080811062000dff57fe5b01819055506fb320d03b2c343d4829abd6075f0cc5ff600160786080811062000e2457fe5b01819055506fabc25204e02828d73c6e80bcdb1a95bf600160796080811062000e4957fe5b01819055506fa4b16f74ee4bb2040a1ec6c15fbbf2df6001607a6080811062000e6e57fe5b01819055506f9deaf736ac1f569deb1b5ae3f36c130f6001607b6080811062000e9357fe5b01819055506f976bd9952c7aa957f5937d790ef650376001607c6080811062000eb857fe5b01819055506f9131271922eaa6064b73a22d0bd4f2bf6001607d6080811062000edd57fe5b01819055506f8b380f3558668c46c91c49a2f8e967b96001607e6080811062000f0257fe5b01819055506f857ddf0117efa215952912839f6473e66001607f6080811062000f2757fe5b018190555080608160006101000a81548163ffffffff021916908363ffffffff1602179055505033608260006101000a81548173ffffffffffffffffffffffffffffffffffffffff021916908373ffffffffffffffffffffffffffffffffffffffff16021790555082608160046101000a81548173ffffffffffffffffffffffffffffffffffffffff021916908373ffffffffffffffffffffffffffffffffffffffff160217905550608160049054906101000a900473ffffffffffffffffffffffffffffffffffffffff1673ffffffffffffffffffffffffffffffffffffffff166323b872dd3330846040518463ffffffff1660e01b8152600401808473ffffffffffffffffffffffffffffffffffffffff1673ffffffffffffffffffffffffffffffffffffffff1681526020018373ffffffffffffffffffffffffffffffffffffffff1673ffffffffffffffffffffffffffffffffffffffff1681526020018281526020019350505050602060405180830381600087803b158015620010ae57600080fd5b505af1158015620010c3573d6000803e3d6000fd5b505050506040513d6020811015620010da57600080fd5b81019080805190602001909291905050505080608381905550620186a0608481905550505050620011b5565b828054600181600116156101000203166002900490600052602060002090601f016020900481019282601f106200114957805160ff19168380011785556200117a565b828001600101855582156200117a579182015b82811115620011795782518255916020019190600101906200115c565b5b5090506200118991906200118d565b5090565b620011b291905b80821115620011ae57600081600090555060010162001194565b5090565b90565b6129d980620011c56000396000f3fe6080604052600436106100fe5760003560e01c806349f9b0f711610095578063a10954fe11610064578063a10954fe14610496578063a6f2ae3a146104c1578063da12457a146104cb578063e4849b32146104f6578063fa1a5f5914610545576100fe565b806349f9b0f7146102f357806354fd4d50146103665780637a318866146103f65780637cbed3e014610447576100fe565b80632b14ca56116100d15780632b14ca56146102375780632d189a3f14610262578063467abe0a1461028d57806347062402146102c8576100fe565b80630c7d5cd8146101035780630d8f9f7f1461013a5780631d933a4a1461018957806329a00e7c146101c4575b600080fd5b34801561010f57600080fd5b50610118610570565b604051808263ffffffff1663ffffffff16815260200191505060405180910390f35b34801561014657600080fd5b506101736004803603602081101561015d57600080fd5b8101908080359060200190929190505050610586565b6040518082815260200191505060405180910390f35b34801561019557600080fd5b506101c2600480360360208110156101ac57600080fd5b81019080803590602001909291905050506105bb565b005b3480156101d057600080fd5b50610221600480360360808110156101e757600080fd5b810190808035906020019092919080359060200190929190803563ffffffff1690602001909291908035906020019092919050505061070a565b6040518082815260200191505060405180910390f35b34801561024357600080fd5b5061024c61087f565b6040518082815260200191505060405180910390f35b34801561026e57600080fd5b50610277610885565b6040518082815260200191505060405180910390f35b34801561029957600080fd5b506102c6600480360360208110156102b057600080fd5b810190808035906020019092919050505061088b565b005b3480156102d457600080fd5b506102dd6109da565b6040518082815260200191505060405180910390f35b3480156102ff57600080fd5b506103506004803603608081101561031657600080fd5b810190808035906020019092919080359060200190929190803563ffffffff169060200190929190803590602001909291905050506109e0565b6040518082815260200191505060405180910390f35b34801561037257600080fd5b5061037b610b89565b6040518080602001828103825283818151815260200191508051906020019080838360005b838110156103bb5780820151818401526020810190506103a0565b50505050905090810190601f1680156103e85780820380516001836020036101000a031916815260200191505b509250505060405180910390f35b34801561040257600080fd5b506104456004803603602081101561041957600080fd5b81019080803573ffffffffffffffffffffffffffffffffffffffff169060200190929190505050610c27565b005b34801561045357600080fd5b506104806004803603602081101561046a57600080fd5b8101908080359060200190929190505050610d2e565b6040518082815260200191505060405180910390f35b3480156104a257600080fd5b506104ab610d63565b6040518082815260200191505060405180910390f35b6104c9610d6b565b005b3480156104d757600080fd5b506104e0611024565b6040518082815260200191505060405180910390f35b34801561050257600080fd5b5061052f6004803603602081101561051957600080fd5b810190808035906020019092919050505061102e565b6040518082815260200191505060405180910390f35b34801561055157600080fd5b5061055a611487565b6040518082815260200191505060405180910390f35b608160009054906101000a900463ffffffff1681565b60006105b4610593611024565b61059b610d63565b608160009054906101000a900463ffffffff168561070a565b9050919050565b3373ffffffffffffffffffffffffffffffffffffffff16608260009054906101000a900473ffffffffffffffffffffffffffffffffffffffff1673ffffffffffffffffffffffffffffffffffffffff161461067e576040517f08c379a000000000000000000000000000000000000000000000000000000000815260040180806020018281038252601e8152602001807f4f776e61626c653a2063616c6c6572206973206e6f74207468652064616f000081525060200191505060405180910390fd5b60008111801561068e5750602881105b610700576040517f08c379a000000000000000000000000000000000000000000000000000000000815260040180806020018281038252600b8152602001807f696e76616c69642066656500000000000000000000000000000000000000000081525060200191505060405180910390fd5b8060868190555050565b6000808511801561071b5750600084115b801561072d575060008363ffffffff16115b80156107485750620f424063ffffffff168363ffffffff1611155b6107ba576040517f08c379a000000000000000000000000000000000000000000000000000000000815260040180806020018281038252600f8152602001807f496e76616c696420696e707574732e000000000000000000000000000000000081525060200191505060405180910390fd5b60008214156107cc5760009050610877565b620f424063ffffffff168363ffffffff16141561080f57610808846107fa848861148d90919063ffffffff16565b61151390919063ffffffff16565b9050610877565b6000806000610827878661159c90919063ffffffff16565b9050610838818888620f4240611624565b809350819450505060008260ff16610859858b61148d90919063ffffffff16565b901c905061087089826117f890919063ffffffff16565b9450505050505b949350505050565b60865481565b60835481565b3373ffffffffffffffffffffffffffffffffffffffff16608260009054906101000a900473ffffffffffffffffffffffffffffffffffffffff1673ffffffffffffffffffffffffffffffffffffffff161461094e576040517f08c379a000000000000000000000000000000000000000000000000000000000815260040180806020018281038252601e8152602001807f4f776e61626c653a2063616c6c6572206973206e6f74207468652064616f000081525060200191505060405180910390fd5b60008111801561095e5750602881105b6109d0576040517f08c379a000000000000000000000000000000000000000000000000000000000815260040180806020018281038252600b8152602001807f696e76616c69642066656500000000000000000000000000000000000000000081525060200191505060405180910390fd5b8060858190555050565b60855481565b600080851180156109f15750600084115b8015610a03575060008363ffffffff16115b8015610a1e5750620f424063ffffffff168363ffffffff1611155b8015610a2a5750848211155b610a9c576040517f08c379a000000000000000000000000000000000000000000000000000000000815260040180806020018281038252600f8152602001807f496e76616c696420696e707574732e000000000000000000000000000000000081525060200191505060405180910390fd5b6000821415610aae5760009050610b81565b84821415610abe57839050610b81565b620f424063ffffffff168363ffffffff161415610b0157610afa85610aec848761148d90919063ffffffff16565b61151390919063ffffffff16565b9050610b81565b6000806000610b1985896117f890919063ffffffff16565b9050610b2a8882620f424089611624565b80935081945050506000610b47848961148d90919063ffffffff16565b905060008360ff1689901b9050610b7985610b6b83856117f890919063ffffffff16565b61151390919063ffffffff16565b955050505050505b949350505050565b60008054600181600116156101000203166002900480601f016020809104026020016040519081016040528092919081815260200182805460018160011615610100020316600290048015610c1f5780601f10610bf457610100808354040283529160200191610c1f565b820191906000526020600020905b815481529060010190602001808311610c0257829003601f168201915b505050505081565b3373ffffffffffffffffffffffffffffffffffffffff16608260009054906101000a900473ffffffffffffffffffffffffffffffffffffffff1673ffffffffffffffffffffffffffffffffffffffff1614610cea576040517f08c379a000000000000000000000000000000000000000000000000000000000815260040180806020018281038252601e8152602001807f4f776e61626c653a2063616c6c6572206973206e6f74207468652064616f000081525060200191505060405180910390fd5b80608260006101000a81548173ffffffffffffffffffffffffffffffffffffffff021916908373ffffffffffffffffffffffffffffffffffffffff16021790555050565b6000610d5c610d3b611024565b610d43610d63565b608160009054906101000a900463ffffffff16856109e0565b9050919050565b600047905090565b600034905060006085541115610e87576000610da56064610d976085548561151390919063ffffffff16565b61151390919063ffffffff16565b9050608260009054906101000a900473ffffffffffffffffffffffffffffffffffffffff1673ffffffffffffffffffffffffffffffffffffffff166108fc829081150290604051600060405180830381858888f19350505050610e70576040517f08c379a00000000000000000000000000000000000000000000000000000000081526004018080602001828103825260178152602001807f62757920666565207472616e73666572206661696c656400000000000000000081525060200191505060405180910390fd5b610e8381836117f890919063ffffffff16565b9150505b6000610e9282610586565b9050608354610eac8260845461159c90919063ffffffff16565b1115610f20576040517f08c379a00000000000000000000000000000000000000000000000000000000081526004018080602001828103825260148152602001807f6d6178696d756d206375727665206d696e74656400000000000000000000000081525060200191505060405180910390fd5b608160049054906101000a900473ffffffffffffffffffffffffffffffffffffffff1673ffffffffffffffffffffffffffffffffffffffff1663a9059cbb33836040518363ffffffff1660e01b8152600401808373ffffffffffffffffffffffffffffffffffffffff1673ffffffffffffffffffffffffffffffffffffffff16815260200182815260200192505050602060405180830381600087803b158015610fc957600080fd5b505af1158015610fdd573d6000803e3d6000fd5b505050506040513d6020811015610ff357600080fd5b81019080805190602001909291905050505061101a8160845461159c90919063ffffffff16565b6084819055505050565b6000608454905090565b600081608160049054906101000a900473ffffffffffffffffffffffffffffffffffffffff1673ffffffffffffffffffffffffffffffffffffffff166370a08231336040518263ffffffff1660e01b8152600401808273ffffffffffffffffffffffffffffffffffffffff1673ffffffffffffffffffffffffffffffffffffffff16815260200191505060206040518083038186803b1580156110d057600080fd5b505afa1580156110e4573d6000803e3d6000fd5b505050506040513d60208110156110fa57600080fd5b8101908080519060200190929190505050101561117f576040517f08c379a00000000000000000000000000000000000000000000000000000000081526004018080602001828103825260188152602001807f696e737566666963656e742042494f502062616c616e6365000000000000000081525060200191505060405180910390fd5b600061118a83610d2e565b9050600060865411156112a35760006111c160646111b36085548561151390919063ffffffff16565b61151390919063ffffffff16565b9050608260009054906101000a900473ffffffffffffffffffffffffffffffffffffffff1673ffffffffffffffffffffffffffffffffffffffff166108fc829081150290604051600060405180830381858888f1935050505061128c576040517f08c379a00000000000000000000000000000000000000000000000000000000081526004018080602001828103825260178152602001807f62757920666565207472616e73666572206661696c656400000000000000000081525060200191505060405180910390fd5b61129f81836117f890919063ffffffff16565b9150505b6112b8836084546117f890919063ffffffff16565b608481905550608160049054906101000a900473ffffffffffffffffffffffffffffffffffffffff1673ffffffffffffffffffffffffffffffffffffffff166323b872dd3330866040518463ffffffff1660e01b8152600401808473ffffffffffffffffffffffffffffffffffffffff1673ffffffffffffffffffffffffffffffffffffffff1681526020018373ffffffffffffffffffffffffffffffffffffffff1673ffffffffffffffffffffffffffffffffffffffff1681526020018281526020019350505050602060405180830381600087803b15801561139b57600080fd5b505af11580156113af573d6000803e3d6000fd5b505050506040513d60208110156113c557600080fd5b8101908080519060200190929190505050503373ffffffffffffffffffffffffffffffffffffffff166108fc829081150290604051600060405180830381858888f1935050505061147e576040517f08c379a000000000000000000000000000000000000000000000000000000000815260040180806020018281038252600f8152602001807f7472616e73666572206661696c6564000000000000000000000000000000000081525060200191505060405180910390fd5b80915050919050565b60845481565b6000808314156114a0576000905061150d565b60008284029050828482816114b157fe5b0414611508576040517f08c379a00000000000000000000000000000000000000000000000000000000081526004018080602001828103825260218152602001806129836021913960400191505060405180910390fd5b809150505b92915050565b600080821161158a576040517f08c379a000000000000000000000000000000000000000000000000000000000815260040180806020018281038252601a8152602001807f536166654d6174683a206469766973696f6e206279207a65726f00000000000081525060200191505060405180910390fd5b81838161159357fe5b04905092915050565b60008082840190508381101561161a576040517f08c379a000000000000000000000000000000000000000000000000000000000815260040180806020018281038252601b8152602001807f536166654d6174683a206164646974696f6e206f766572666c6f77000000000081525060200191505060405180910390fd5b8091505092915050565b60008070020000000000000000000000000000000086106116ad576040517f08c379a00000000000000000000000000000000000000000000000000000000081526004018080602001828103825260188152602001807f626173654e2065786365656473206d61782076616c75652e000000000000000081525060200191505060405180910390fd5b84861015611723576040517f08c379a000000000000000000000000000000000000000000000000000000000815260040180806020018281038252601c8152602001807f4261736573203c203120617265206e6f7420737570706f727465642e0000000081525060200191505060405180910390fd5b600080866f8000000000000000000000000000000089028161174157fe5b04905070015bf0a8b1457695355fb8ac404e7a79e381101561176d576117668161187b565b9150611779565b61177681611e0b565b91505b60008563ffffffff168763ffffffff1684028161179257fe5b0490507008000000000000000000000000000000008110156117c5576117b781611f33565b607f945094505050506117ef565b60006117d0826124ad565b90506117e581607f0360ff1683901c82612562565b8195509550505050505b94509492505050565b600082821115611870576040517f08c379a000000000000000000000000000000000000000000000000000000000815260040180806020018281038252601e8152602001807f536166654d6174683a207375627472616374696f6e206f766572666c6f77000081525060200191505060405180910390fd5b818303905092915050565b6000806000905060008060006fd3094c70f034de4b96ff7d5b6f99fcd886106118e2576f40000000000000000000000000000000840193506fd3094c70f034de4b96ff7d5b6f99fcd86f800000000000000000000000000000008702816118de57fe5b0495505b6fa45af1e1f40c333b3de1db4dd55f29a7861061193d576f20000000000000000000000000000000840193506fa45af1e1f40c333b3de1db4dd55f29a76f8000000000000000000000000000000087028161193957fe5b0495505b6f910b022db7ae67ce76b441c27035c6a18610611998576f10000000000000000000000000000000840193506f910b022db7ae67ce76b441c27035c6a16f8000000000000000000000000000000087028161199457fe5b0495505b6f88415abbe9a76bead8d00cf112e4d4a886106119f3576f08000000000000000000000000000000840193506f88415abbe9a76bead8d00cf112e4d4a86f800000000000000000000000000000008702816119ef57fe5b0495505b6f84102b00893f64c705e841d5d4064bd38610611a4e576f04000000000000000000000000000000840193506f84102b00893f64c705e841d5d4064bd36f80000000000000000000000000000000870281611a4a57fe5b0495505b6f8204055aaef1c8bd5c3259f4822735a28610611aa9576f02000000000000000000000000000000840193506f8204055aaef1c8bd5c3259f4822735a26f80000000000000000000000000000000870281611aa557fe5b0495505b6f810100ab00222d861931c15e39b44e998610611b04576f01000000000000000000000000000000840193506f810100ab00222d861931c15e39b44e996f80000000000000000000000000000000870281611b0057fe5b0495505b6f808040155aabbbe9451521693554f7338610611b5e576e800000000000000000000000000000840193506f808040155aabbbe9451521693554f7336f80000000000000000000000000000000870281611b5a57fe5b0495505b6f80000000000000000000000000000000860392508291506f8000000000000000000000000000000083840281611b9157fe5b0490507001000000000000000000000000000000008370010000000000000000000000000000000003830281611bc357fe5b04840193506f8000000000000000000000000000000081830281611be357fe5b049150700200000000000000000000000000000000836faaaaaaaaaaaaaaaaaaaaaaaaaaaaaaaa03830281611c1457fe5b04840193506f8000000000000000000000000000000081830281611c3457fe5b049150700300000000000000000000000000000000836f9999999999999999999999999999999903830281611c6557fe5b04840193506f8000000000000000000000000000000081830281611c8557fe5b049150700400000000000000000000000000000000836f9249249249249249249249249249249203830281611cb657fe5b04840193506f8000000000000000000000000000000081830281611cd657fe5b049150700500000000000000000000000000000000836f8e38e38e38e38e38e38e38e38e38e38e03830281611d0757fe5b04840193506f8000000000000000000000000000000081830281611d2757fe5b049150700600000000000000000000000000000000836f8ba2e8ba2e8ba2e8ba2e8ba2e8ba2e8b03830281611d5857fe5b04840193506f8000000000000000000000000000000081830281611d7857fe5b049150700700000000000000000000000000000000836f89d89d89d89d89d89d89d89d89d89d8903830281611da957fe5b04840193506f8000000000000000000000000000000081830281611dc957fe5b049150700800000000000000000000000000000000836f8888888888888888888888888888888803830281611dfa57fe5b048401935083945050505050919050565b6000806000905060008390507001000000000000000000000000000000008110611e78576000611e536f800000000000000000000000000000008381611e4d57fe5b04612900565b90508060ff1682901c91506f800000000000000000000000000000008160ff16029250505b6f80000000000000000000000000000000811115611efe576000607f90505b60008160ff161115611efc576f8000000000000000000000000000000082830281611ebe57fe5b0491507001000000000000000000000000000000008210611ef057600182901c91506001810360ff166001901b830192505b80600190039050611e97565b505b6f05b9de1d10bf4103d647b0955897ba806f03f80fe03f80fe03f80fe03f80fe03f8830281611f2957fe5b0492505050919050565b600080600090506000806f100000000000000000000000000000008581611f5657fe5b0691508190506f8000000000000000000000000000000082820281611f7757fe5b0490506710e1b3be415a00008102830192506f8000000000000000000000000000000082820281611fa457fe5b0490506705a0913f6b1e00008102830192506f8000000000000000000000000000000082820281611fd157fe5b049050670168244fdac780008102830192506f8000000000000000000000000000000082820281611ffe57fe5b049050664807432bc180008102830192506f800000000000000000000000000000008282028161202a57fe5b049050660c0135dca040008102830192506f800000000000000000000000000000008282028161205657fe5b0490506601b707b1cdc0008102830192506f800000000000000000000000000000008282028161208257fe5b0490506536e0f639b8008102830192506f80000000000000000000000000000000828202816120ad57fe5b049050650618fee9f8008102830192506f80000000000000000000000000000000828202816120d857fe5b049050649c197dcc008102830192506f800000000000000000000000000000008282028161210257fe5b049050640e30dce4008102830192506f800000000000000000000000000000008282028161212c57fe5b04905064012ebd13008102830192506f800000000000000000000000000000008282028161215657fe5b0490506317499f008102830192506f800000000000000000000000000000008282028161217f57fe5b0490506301a9d4808102830192506f80000000000000000000000000000000828202816121a857fe5b049050621c63808102830192506f80000000000000000000000000000000828202816121d057fe5b0490506201c6388102830192506f80000000000000000000000000000000828202816121f857fe5b049050611ab88102830192506f800000000000000000000000000000008282028161221f57fe5b04905061017c8102830192506f800000000000000000000000000000008282028161224657fe5b04905060148102830192506f800000000000000000000000000000008282028161226c57fe5b04905060018102830192506f80000000000000000000000000000000826721c3677c82b40000858161229a57fe5b040101925060006f100000000000000000000000000000008616146122ea5770018ebef9eac820ae8682b9793ac6d1e7767001c3d6a24ed82218787d624d3e5eba95f98402816122e657fe5b0492505b60006f20000000000000000000000000000000861614612335577001368b2fc6f9609fe7aceb46aa619baed470018ebef9eac820ae8682b9793ac6d1e77884028161233157fe5b0492505b60006f4000000000000000000000000000000086161461237f576fbc5ab1b16779be3575bd8f0520a9f21f7001368b2fc6f9609fe7aceb46aa619baed584028161237b57fe5b0492505b60006f800000000000000000000000000000008616146123c8576f454aaa8efe072e7f6ddbab84b40a55c96fbc5ab1b16779be3575bd8f0520a9f21e8402816123c457fe5b0492505b6000700100000000000000000000000000000000861614612412576f0960aadc109e7a3bf4578099615711ea6f454aaa8efe072e7f6ddbab84b40a55c584028161240e57fe5b0492505b600070020000000000000000000000000000000086161461245b576e2bf84208204f5977f9a8cf01fdce3d6f0960aadc109e7a3bf4578099615711d784028161245757fe5b0492505b60007004000000000000000000000000000000008616146124a2576d03c6ab775dd0b95b4cbee7e65d116e2bf84208204f5977f9a8cf01fdc30784028161249e57fe5b0492505b829350505050919050565b600080602090506000607f90505b8060ff166001830160ff16101561250a576000600282840160ff16816124dd57fe5b0490508460018260ff16608081106124f157fe5b01541061250057809250612504565b8091505b506124bb565b8360018260ff166080811061251b57fe5b01541061252c57809250505061255d565b8360018360ff166080811061253d57fe5b01541061254e57819250505061255d565b600061255657fe5b6000925050505b919050565b60008083905060008090508360ff16858302901c91506f03442c4e6074a82f1797f72ac00000008202810190508360ff16858302901c91506f0116b96f757c380fb287fd0e400000008202810190508360ff16858302901c91506e45ae5bdd5f0e03eca1ff43900000008202810190508360ff16858302901c91506e0defabf91302cd95b9ffda500000008202810190508360ff16858302901c91506e02529ca9832b22439efff9b80000008202810190508360ff16858302901c91506d54f1cf12bd04e516b6da880000008202810190508360ff16858302901c91506d0a9e39e257a09ca2d6db510000008202810190508360ff16858302901c91506d012e066e7b839fa050c3090000008202810190508360ff16858302901c91506c1e33d7d926c329a1ad1a8000008202810190508360ff16858302901c91506c02bee513bdb4a6b19b5f8000008202810190508360ff16858302901c91506b3a9316fa79b88eccf2a000008202810190508360ff16858302901c91506b048177ebe1fa8123752000008202810190508360ff16858302901c91506a5263fe90242dcbacf000008202810190508360ff16858302901c91506a057e22099c030d941000008202810190508360ff16858302901c91506957e22099c030d94100008202810190508360ff16858302901c915069052b6b545699763100008202810190508360ff16858302901c9150684985f67696bf7480008202810190508360ff16858302901c91506803dea12ea99e4980008202810190508360ff16858302901c91506731880f2214b6e0008202810190508360ff16858302901c915067025bcff56eb360008202810190508360ff16858302901c9150661b722e10ab10008202810190508360ff16858302901c91506601317c700770008202810190508360ff16858302901c9150650cba84aafa008202810190508360ff16858302901c91506482573a0a008202810190508360ff16858302901c91506405035ad9008202810190508360ff16858302901c9150632f881b008202810190508360ff16858302901c91506301b293408202810190508360ff16858302901c9150620efc408202810190508360ff16858302901c9150617fe08202810190508360ff16858302901c91506104208202810190508360ff16858302901c915060218202810190508360ff16858302901c915060018202810190508360ff166001901b856f0688589cc0e9505e2f2fee558000000083816128f357fe5b0401019250505092915050565b600080600090506000839050610100811015612937575b600181111561293257600181901c9050600182019150612917565b612978565b6000608090505b60008160ff161115612976578060ff166001901b8210612967578060ff1682901c915080831792505b60018160ff16901c905061293e565b505b819250505091905056fe536166654d6174683a206d756c7469706c69636174696f6e206f766572666c6f77a2646970667358221220f20e449437f08cd6ac93fdc3b51318a3aa043ccb4f942c2050536da52b59264464736f6c63430006060033",
  "linkReferences": {},
  "deployedLinkReferences": {}
}