{
  "contractName": "BinaryOptions",
  "abi": [
    {
      "inputs": [
        {
          "internalType": "string",
          "name": "name_",
          "type": "string"
        },
        {
          "internalType": "string",
          "name": "symbol_",
          "type": "string"
        },
        {
          "internalType": "address",
          "name": "pp_",
          "type": "address"
        },
        {
          "internalType": "address",
          "name": "biop_",
          "type": "address"
        },
        {
          "internalType": "address",
          "name": "rateCalc_",
          "type": "address"
        }
      ],
      "stateMutability": "nonpayable",
      "type": "constructor"
    },
    {
      "anonymous": false,
      "inputs": [
        {
          "indexed": true,
          "internalType": "address",
          "name": "owner",
          "type": "address"
        },
        {
          "indexed": true,
          "internalType": "address",
          "name": "spender",
          "type": "address"
        },
        {
          "indexed": false,
          "internalType": "uint256",
          "name": "value",
          "type": "uint256"
        }
      ],
      "name": "Approval",
      "type": "event"
    },
    {
      "anonymous": false,
      "inputs": [
        {
          "indexed": true,
          "internalType": "uint256",
          "name": "id",
          "type": "uint256"
        },
        {
          "indexed": false,
          "internalType": "address payable",
          "name": "account",
          "type": "address"
        },
        {
          "indexed": false,
          "internalType": "int256",
          "name": "sP",
          "type": "int256"
        },
        {
          "indexed": false,
          "internalType": "uint256",
          "name": "lV",
          "type": "uint256"
        },
        {
          "indexed": false,
          "internalType": "bool",
          "name": "dir",
          "type": "bool"
        }
      ],
      "name": "Create",
      "type": "event"
    },
    {
      "anonymous": false,
      "inputs": [
        {
          "indexed": true,
          "internalType": "uint256",
          "name": "id",
          "type": "uint256"
        }
      ],
      "name": "Exercise",
      "type": "event"
    },
    {
      "anonymous": false,
      "inputs": [
        {
          "indexed": true,
          "internalType": "uint256",
          "name": "id",
          "type": "uint256"
        }
      ],
      "name": "Expire",
      "type": "event"
    },
    {
      "anonymous": false,
      "inputs": [
        {
          "indexed": false,
          "internalType": "uint256",
          "name": "poolLost",
          "type": "uint256"
        },
        {
          "indexed": false,
          "internalType": "address",
          "name": "winner",
          "type": "address"
        }
      ],
      "name": "Payout",
      "type": "event"
    },
    {
      "anonymous": false,
      "inputs": [
        {
          "indexed": true,
          "internalType": "address",
          "name": "from",
          "type": "address"
        },
        {
          "indexed": true,
          "internalType": "address",
          "name": "to",
          "type": "address"
        },
        {
          "indexed": false,
          "internalType": "uint256",
          "name": "value",
          "type": "uint256"
        }
      ],
      "name": "Transfer",
      "type": "event"
    },
    {
      "inputs": [
        {
          "internalType": "address",
          "name": "owner",
          "type": "address"
        },
        {
          "internalType": "address",
          "name": "spender",
          "type": "address"
        }
      ],
      "name": "allowance",
      "outputs": [
        {
          "internalType": "uint256",
          "name": "",
          "type": "uint256"
        }
      ],
      "stateMutability": "view",
      "type": "function",
      "constant": true
    },
    {
      "inputs": [
        {
          "internalType": "address",
          "name": "",
          "type": "address"
        }
      ],
      "name": "altLockedAmount",
      "outputs": [
        {
          "internalType": "uint256",
          "name": "",
          "type": "uint256"
        }
      ],
      "stateMutability": "view",
      "type": "function",
      "constant": true
    },
    {
      "inputs": [
        {
          "internalType": "address",
          "name": "spender",
          "type": "address"
        },
        {
          "internalType": "uint256",
          "name": "amount",
          "type": "uint256"
        }
      ],
      "name": "approve",
      "outputs": [
        {
          "internalType": "bool",
          "name": "",
          "type": "bool"
        }
      ],
      "stateMutability": "nonpayable",
      "type": "function"
    },
    {
      "inputs": [
        {
          "internalType": "address",
          "name": "account",
          "type": "address"
        }
      ],
      "name": "balanceOf",
      "outputs": [
        {
          "internalType": "uint256",
          "name": "",
          "type": "uint256"
        }
      ],
      "stateMutability": "view",
      "type": "function",
      "constant": true
    },
    {
      "inputs": [],
      "name": "biop",
      "outputs": [
        {
          "internalType": "address",
          "name": "",
          "type": "address"
        }
      ],
      "stateMutability": "view",
      "type": "function",
      "constant": true
    },
    {
      "inputs": [],
      "name": "contractCreated",
      "outputs": [
        {
          "internalType": "uint256",
          "name": "",
          "type": "uint256"
        }
      ],
      "stateMutability": "view",
      "type": "function",
      "constant": true
    },
    {
      "inputs": [],
      "name": "decimals",
      "outputs": [
        {
          "internalType": "uint8",
          "name": "",
          "type": "uint8"
        }
      ],
      "stateMutability": "view",
      "type": "function",
      "constant": true
    },
    {
      "inputs": [
        {
          "internalType": "address",
          "name": "spender",
          "type": "address"
        },
        {
          "internalType": "uint256",
          "name": "subtractedValue",
          "type": "uint256"
        }
      ],
      "name": "decreaseAllowance",
      "outputs": [
        {
          "internalType": "bool",
          "name": "",
          "type": "bool"
        }
      ],
      "stateMutability": "nonpayable",
      "type": "function"
    },
    {
      "inputs": [],
      "name": "defaultPair",
      "outputs": [
        {
          "internalType": "address",
          "name": "",
          "type": "address"
        }
      ],
      "stateMutability": "view",
      "type": "function",
      "constant": true
    },
    {
      "inputs": [],
      "name": "defaultRCAddress",
      "outputs": [
        {
          "internalType": "address",
          "name": "",
          "type": "address"
        }
      ],
      "stateMutability": "view",
      "type": "function",
      "constant": true
    },
    {
      "inputs": [],
      "name": "devFund",
      "outputs": [
        {
          "internalType": "address payable",
          "name": "",
          "type": "address"
        }
      ],
      "stateMutability": "view",
      "type": "function",
      "constant": true
    },
    {
      "inputs": [],
      "name": "devFundBetFee",
      "outputs": [
        {
          "internalType": "uint256",
          "name": "",
          "type": "uint256"
        }
      ],
      "stateMutability": "view",
      "type": "function",
      "constant": true
    },
    {
      "inputs": [
        {
          "internalType": "address",
          "name": "",
          "type": "address"
        }
      ],
      "name": "ePairs",
      "outputs": [
        {
          "internalType": "address",
          "name": "",
          "type": "address"
        }
      ],
      "stateMutability": "view",
      "type": "function",
      "constant": true
    },
    {
      "inputs": [
        {
          "internalType": "address",
          "name": "",
          "type": "address"
        }
      ],
      "name": "ePools",
      "outputs": [
        {
          "internalType": "bool",
          "name": "",
          "type": "bool"
        }
      ],
      "stateMutability": "view",
      "type": "function",
      "constant": true
    },
    {
      "inputs": [],
      "name": "exerciserFee",
      "outputs": [
        {
          "internalType": "uint256",
          "name": "",
          "type": "uint256"
        }
      ],
      "stateMutability": "view",
      "type": "function",
      "constant": true
    },
    {
      "inputs": [],
      "name": "expirerFee",
      "outputs": [
        {
          "internalType": "uint256",
          "name": "",
          "type": "uint256"
        }
      ],
      "stateMutability": "view",
      "type": "function",
      "constant": true
    },
    {
      "inputs": [],
      "name": "fGS",
      "outputs": [
        {
          "internalType": "uint256",
          "name": "",
          "type": "uint256"
        }
      ],
      "stateMutability": "view",
      "type": "function",
      "constant": true
    },
    {
      "inputs": [
        {
          "internalType": "address",
          "name": "",
          "type": "address"
        }
      ],
      "name": "iAL",
      "outputs": [
        {
          "internalType": "uint256",
          "name": "",
          "type": "uint256"
        }
      ],
      "stateMutability": "view",
      "type": "function",
      "constant": true
    },
    {
      "inputs": [
        {
          "internalType": "address",
          "name": "spender",
          "type": "address"
        },
        {
          "internalType": "uint256",
          "name": "addedValue",
          "type": "uint256"
        }
      ],
      "name": "increaseAllowance",
      "outputs": [
        {
          "internalType": "bool",
          "name": "",
          "type": "bool"
        }
      ],
      "stateMutability": "nonpayable",
      "type": "function"
    },
    {
      "inputs": [
        {
          "internalType": "address",
          "name": "",
          "type": "address"
        }
      ],
      "name": "lST",
      "outputs": [
        {
          "internalType": "uint256",
          "name": "",
          "type": "uint256"
        }
      ],
      "stateMutability": "view",
      "type": "function",
      "constant": true
    },
    {
      "inputs": [
        {
          "internalType": "address",
          "name": "",
          "type": "address"
        }
      ],
      "name": "lW",
      "outputs": [
        {
          "internalType": "uint256",
          "name": "",
          "type": "uint256"
        }
      ],
      "stateMutability": "view",
      "type": "function",
      "constant": true
    },
    {
      "inputs": [],
      "name": "lockedAmount",
      "outputs": [
        {
          "internalType": "uint256",
          "name": "",
          "type": "uint256"
        }
      ],
      "stateMutability": "view",
      "type": "function",
      "constant": true
    },
    {
      "inputs": [],
      "name": "maxT",
      "outputs": [
        {
          "internalType": "uint256",
          "name": "",
          "type": "uint256"
        }
      ],
      "stateMutability": "view",
      "type": "function",
      "constant": true
    },
    {
      "inputs": [],
      "name": "minT",
      "outputs": [
        {
          "internalType": "uint256",
          "name": "",
          "type": "uint256"
        }
      ],
      "stateMutability": "view",
      "type": "function",
      "constant": true
    },
    {
      "inputs": [
        {
          "internalType": "address",
          "name": "",
          "type": "address"
        }
      ],
      "name": "nW",
      "outputs": [
        {
          "internalType": "uint256",
          "name": "",
          "type": "uint256"
        }
      ],
      "stateMutability": "view",
      "type": "function",
      "constant": true
    },
    {
      "inputs": [],
      "name": "name",
      "outputs": [
        {
          "internalType": "string",
          "name": "",
          "type": "string"
        }
      ],
      "stateMutability": "view",
      "type": "function",
      "constant": true
    },
    {
      "inputs": [],
      "name": "open",
      "outputs": [
        {
          "internalType": "bool",
          "name": "",
          "type": "bool"
        }
      ],
      "stateMutability": "view",
      "type": "function",
      "constant": true
    },
    {
      "inputs": [
        {
          "internalType": "uint256",
          "name": "",
          "type": "uint256"
        }
      ],
      "name": "options",
      "outputs": [
        {
          "internalType": "address payable",
          "name": "holder",
          "type": "address"
        },
        {
          "internalType": "int256",
          "name": "sP",
          "type": "int256"
        },
        {
          "internalType": "uint256",
          "name": "pV",
          "type": "uint256"
        },
        {
          "internalType": "uint256",
          "name": "lV",
          "type": "uint256"
        },
        {
          "internalType": "uint256",
          "name": "exp",
          "type": "uint256"
        },
        {
          "internalType": "bool",
          "name": "dir",
          "type": "bool"
        },
        {
          "internalType": "address",
          "name": "pP",
          "type": "address"
        },
        {
          "internalType": "address",
          "name": "aPA",
          "type": "address"
        }
      ],
      "stateMutability": "view",
      "type": "function",
      "constant": true
    },
    {
      "inputs": [],
      "name": "owner",
      "outputs": [
        {
          "internalType": "address payable",
          "name": "",
          "type": "address"
        }
      ],
      "stateMutability": "view",
      "type": "function",
      "constant": true
    },
    {
      "inputs": [],
      "name": "poolLockSeconds",
      "outputs": [
        {
          "internalType": "uint256",
          "name": "",
          "type": "uint256"
        }
      ],
      "stateMutability": "view",
      "type": "function",
      "constant": true
    },
    {
      "inputs": [],
      "name": "rewEn",
      "outputs": [
        {
          "internalType": "bool",
          "name": "",
          "type": "bool"
        }
      ],
      "stateMutability": "view",
      "type": "function",
      "constant": true
    },
    {
      "inputs": [],
      "name": "reward",
      "outputs": [
        {
          "internalType": "uint256",
          "name": "",
          "type": "uint256"
        }
      ],
      "stateMutability": "view",
      "type": "function",
      "constant": true
    },
    {
      "inputs": [],
      "name": "symbol",
      "outputs": [
        {
          "internalType": "string",
          "name": "",
          "type": "string"
        }
      ],
      "stateMutability": "view",
      "type": "function",
      "constant": true
    },
    {
      "inputs": [],
      "name": "tI",
      "outputs": [
        {
          "internalType": "uint256",
          "name": "",
          "type": "uint256"
        }
      ],
      "stateMutability": "view",
      "type": "function",
      "constant": true
    },
    {
      "inputs": [],
      "name": "totalSupply",
      "outputs": [
        {
          "internalType": "uint256",
          "name": "",
          "type": "uint256"
        }
      ],
      "stateMutability": "view",
      "type": "function",
      "constant": true
    },
    {
      "inputs": [
        {
          "internalType": "address",
          "name": "recipient",
          "type": "address"
        },
        {
          "internalType": "uint256",
          "name": "amount",
          "type": "uint256"
        }
      ],
      "name": "transfer",
      "outputs": [
        {
          "internalType": "bool",
          "name": "",
          "type": "bool"
        }
      ],
      "stateMutability": "nonpayable",
      "type": "function"
    },
    {
      "inputs": [
        {
          "internalType": "address",
          "name": "sender",
          "type": "address"
        },
        {
          "internalType": "address",
          "name": "recipient",
          "type": "address"
        },
        {
          "internalType": "uint256",
          "name": "amount",
          "type": "uint256"
        }
      ],
      "name": "transferFrom",
      "outputs": [
        {
          "internalType": "bool",
          "name": "",
          "type": "bool"
        }
      ],
      "stateMutability": "nonpayable",
      "type": "function"
    },
    {
      "inputs": [],
      "name": "getMaxAvailable",
      "outputs": [
        {
          "internalType": "uint256",
          "name": "",
          "type": "uint256"
        }
      ],
      "stateMutability": "view",
      "type": "function",
      "constant": true
    },
    {
      "inputs": [
        {
          "internalType": "address",
          "name": "erc20PoolAddress_",
          "type": "address"
        }
      ],
      "name": "getAltMaxAvailable",
      "outputs": [
        {
          "internalType": "uint256",
          "name": "",
          "type": "uint256"
        }
      ],
      "stateMutability": "view",
      "type": "function",
      "constant": true
    },
    {
      "inputs": [],
      "name": "getOptionCount",
      "outputs": [
        {
          "internalType": "uint256",
          "name": "",
          "type": "uint256"
        }
      ],
      "stateMutability": "view",
      "type": "function",
      "constant": true
    },
    {
      "inputs": [
        {
          "internalType": "address",
          "name": "account",
          "type": "address"
        }
      ],
      "name": "getStakingTimeBonus",
      "outputs": [
        {
          "internalType": "uint256",
          "name": "",
          "type": "uint256"
        }
      ],
      "stateMutability": "view",
      "type": "function",
      "constant": true
    },
    {
      "inputs": [
        {
          "internalType": "address",
          "name": "account",
          "type": "address"
        }
      ],
      "name": "getPoolBalanceBonus",
      "outputs": [
        {
          "internalType": "uint256",
          "name": "",
          "type": "uint256"
        }
      ],
      "stateMutability": "view",
      "type": "function",
      "constant": true
    },
    {
      "inputs": [
        {
          "internalType": "address",
          "name": "account",
          "type": "address"
        }
      ],
      "name": "getOptionValueBonus",
      "outputs": [
        {
          "internalType": "uint256",
          "name": "",
          "type": "uint256"
        }
      ],
      "stateMutability": "view",
      "type": "function",
      "constant": true
    },
    {
      "inputs": [
        {
          "internalType": "uint256",
          "name": "amount",
          "type": "uint256"
        },
        {
          "internalType": "uint256",
          "name": "base",
          "type": "uint256"
        }
      ],
      "name": "getBetSizeBonus",
      "outputs": [
        {
          "internalType": "uint256",
          "name": "",
          "type": "uint256"
        }
      ],
      "stateMutability": "view",
      "type": "function",
      "constant": true
    },
    {
      "inputs": [
        {
          "internalType": "address",
          "name": "account",
          "type": "address"
        }
      ],
      "name": "getCombinedStakingBonus",
      "outputs": [
        {
          "internalType": "uint256",
          "name": "",
          "type": "uint256"
        }
      ],
      "stateMutability": "view",
      "type": "function",
      "constant": true
    },
    {
      "inputs": [
        {
          "internalType": "address",
          "name": "account",
          "type": "address"
        }
      ],
      "name": "getPendingClaims",
      "outputs": [
        {
          "internalType": "uint256",
          "name": "",
          "type": "uint256"
        }
      ],
      "stateMutability": "view",
      "type": "function",
      "constant": true
    },
    {
      "inputs": [],
      "name": "claimRewards",
      "outputs": [],
      "stateMutability": "nonpayable",
      "type": "function"
    },
    {
      "inputs": [],
      "name": "defaultPriceProvider",
      "outputs": [
        {
          "internalType": "address",
          "name": "",
          "type": "address"
        }
      ],
      "stateMutability": "view",
      "type": "function",
      "constant": true
    },
    {
      "inputs": [
        {
          "internalType": "address",
          "name": "newPool_",
          "type": "address"
        }
      ],
      "name": "addAltPool",
      "outputs": [],
      "stateMutability": "nonpayable",
      "type": "function"
    },
    {
      "inputs": [
        {
          "internalType": "bool",
          "name": "nx_",
          "type": "bool"
        }
      ],
      "name": "enableRewards",
      "outputs": [],
      "stateMutability": "nonpayable",
      "type": "function"
    },
    {
      "inputs": [
        {
          "internalType": "address",
          "name": "oldPool_",
          "type": "address"
        }
      ],
      "name": "removeAltPool",
      "outputs": [],
      "stateMutability": "nonpayable",
      "type": "function"
    },
    {
      "inputs": [
        {
          "internalType": "address",
          "name": "newPP_",
          "type": "address"
        },
        {
          "internalType": "address",
          "name": "rateCalc_",
          "type": "address"
        }
      ],
      "name": "addPP",
      "outputs": [],
      "stateMutability": "nonpayable",
      "type": "function"
    },
    {
      "inputs": [
        {
          "internalType": "address",
          "name": "oldPP_",
          "type": "address"
        }
      ],
      "name": "removePP",
      "outputs": [],
      "stateMutability": "nonpayable",
      "type": "function"
    },
    {
      "inputs": [
        {
          "internalType": "uint256",
          "name": "newMax_",
          "type": "uint256"
        }
      ],
      "name": "setMaxT",
      "outputs": [],
      "stateMutability": "nonpayable",
      "type": "function"
    },
    {
      "inputs": [
        {
          "internalType": "uint256",
          "name": "newMin_",
          "type": "uint256"
        }
      ],
      "name": "setMinT",
      "outputs": [],
      "stateMutability": "nonpayable",
      "type": "function"
    },
    {
      "inputs": [],
      "name": "thisAddress",
      "outputs": [
        {
          "internalType": "address",
          "name": "",
          "type": "address"
        }
      ],
      "stateMutability": "view",
      "type": "function",
      "constant": true
    },
    {
      "inputs": [
        {
          "internalType": "uint256",
          "name": "exerciserFee_",
          "type": "uint256"
        }
      ],
      "name": "updateExerciserFee",
      "outputs": [],
      "stateMutability": "nonpayable",
      "type": "function"
    },
    {
      "inputs": [
        {
          "internalType": "uint256",
          "name": "expirerFee_",
          "type": "uint256"
        }
      ],
      "name": "updateExpirerFee",
      "outputs": [],
      "stateMutability": "nonpayable",
      "type": "function"
    },
    {
      "inputs": [
        {
          "internalType": "uint256",
          "name": "devFundBetFee_",
          "type": "uint256"
        }
      ],
      "name": "updateDevFundBetFee",
      "outputs": [],
      "stateMutability": "nonpayable",
      "type": "function"
    },
    {
      "inputs": [
        {
          "internalType": "uint256",
          "name": "newLockSeconds_",
          "type": "uint256"
        }
      ],
      "name": "updatePoolLockSeconds",
      "outputs": [],
      "stateMutability": "nonpayable",
      "type": "function"
    },
    {
      "inputs": [
        {
          "internalType": "address payable",
          "name": "newOwner_",
          "type": "address"
        }
      ],
      "name": "transferOwner",
      "outputs": [],
      "stateMutability": "nonpayable",
      "type": "function"
    },
    {
      "inputs": [
        {
          "internalType": "address payable",
          "name": "newDevFund",
          "type": "address"
        }
      ],
      "name": "transferDevFund",
      "outputs": [],
      "stateMutability": "nonpayable",
      "type": "function"
    },
    {
      "inputs": [],
      "name": "closeStaking",
      "outputs": [],
      "stateMutability": "nonpayable",
      "type": "function"
    },
    {
      "inputs": [],
      "name": "stake",
      "outputs": [],
      "stateMutability": "payable",
      "type": "function",
      "payable": true
    },
    {
      "inputs": [
        {
          "internalType": "uint256",
          "name": "amount",
          "type": "uint256"
        }
      ],
      "name": "withdraw",
      "outputs": [],
      "stateMutability": "nonpayable",
      "type": "function"
    },
    {
      "inputs": [
        {
          "internalType": "address",
          "name": "pair",
          "type": "address"
        },
        {
          "internalType": "uint256",
          "name": "max",
          "type": "uint256"
        },
        {
          "internalType": "uint256",
          "name": "deposit",
          "type": "uint256"
        },
        {
          "internalType": "int256",
          "name": "currentPrice",
          "type": "int256"
        },
        {
          "internalType": "uint256",
          "name": "t",
          "type": "uint256"
        },
        {
          "internalType": "bool",
          "name": "k",
          "type": "bool"
        }
      ],
      "name": "getRate",
      "outputs": [
        {
          "internalType": "uint256",
          "name": "",
          "type": "uint256"
        }
      ],
      "stateMutability": "view",
      "type": "function",
      "constant": true
    },
    {
      "inputs": [
        {
          "internalType": "bool",
          "name": "k_",
          "type": "bool"
        },
        {
          "internalType": "address",
          "name": "pp_",
          "type": "address"
        },
        {
          "internalType": "uint256",
          "name": "t_",
          "type": "uint256"
        }
      ],
      "name": "bet",
      "outputs": [],
      "stateMutability": "payable",
      "type": "function",
      "payable": true
    },
    {
      "inputs": [
        {
          "internalType": "bool",
          "name": "k_",
          "type": "bool"
        },
        {
          "internalType": "address",
          "name": "pp_",
          "type": "address"
        },
        {
          "internalType": "uint256",
          "name": "t_",
          "type": "uint256"
        },
        {
          "internalType": "address",
          "name": "pa_",
          "type": "address"
        },
        {
          "internalType": "uint256",
          "name": "a_",
          "type": "uint256"
        }
      ],
      "name": "bet20",
      "outputs": [],
      "stateMutability": "payable",
      "type": "function",
      "payable": true
    },
    {
      "inputs": [
        {
          "internalType": "uint256",
          "name": "oID",
          "type": "uint256"
        }
      ],
      "name": "exercise",
      "outputs": [],
      "stateMutability": "nonpayable",
      "type": "function"
    },
    {
      "inputs": [
        {
          "internalType": "uint256",
          "name": "oID",
          "type": "uint256"
        }
      ],
      "name": "expire",
      "outputs": [],
      "stateMutability": "nonpayable",
      "type": "function"
    }
  ],
  "bytecode": "0x60806040526032601581905560165560c860175562093a80601855601a8054600160ff1991821681179092556000601c5566016bcc41e90000601d5565b5e620f48000601e55601f805490911690911790553480156200005e57600080fd5b50604051620043d6380380620043d6833981810160405260a08110156200008457600080fd5b8101908080516040519392919084640100000000821115620000a557600080fd5b908301906020820185811115620000bb57600080fd5b8251640100000000811182820188101715620000d657600080fd5b82525081516020918201929091019080838360005b8381101562000105578181015183820152602001620000eb565b50505050905090810190601f168015620001335780820380516001836020036101000a031916815260200191505b50604052602001805160405193929190846401000000008211156200015757600080fd5b9083019060208201858111156200016d57600080fd5b82516401000000008111828201881017156200018857600080fd5b82525081516020918201929091019080838360005b83811015620001b75781810151838201526020016200019d565b50505050905090810190601f168015620001e55780820380516001836020036101000a031916815260200191505b506040908152602082810151918301516060909301518751929550929350869186916200021891600391850190620002dd565b5080516200022e906004906020840190620002dd565b505060058054601260ff199091168117610100600160a81b0319166101003390810291909117909255600680546001600160a01b031990811690931790556007805483166001600160a01b0396871617905560088054831694861694909417938490556000601481905542601955958516808752600a60205260409096208054949095169382169390931790935550601380549092169092179055610384601155610e10905550620003829050565b828054600181600116156101000203166002900490600052602060002090601f016020900481019282601f106200032057805160ff191683800117855562000350565b8280016001018555821562000350579182015b828111156200035057825182559160200191906001019062000333565b506200035e92915062000362565b5090565b6200037f91905b808211156200035e576000815560010162000369565b90565b61404480620003926000396000f3fe6080604052600436106104055760003560e01c806383880e5111610213578063b551572511610123578063db05c547116100ab578063e56e03cc1161007a578063e56e03cc14610ed7578063f200fb2014610f0a578063f4a6e1e214610f3d578063fcfff16f14610f70578063fd4cbc0514610f8557610405565b8063db05c54714610e3f578063dd62ed3e14610e54578063de46101f14610e8f578063e4523ef914610ec257610405565b8063bf81bf43116100f2578063bf81bf4314610dc1578063c897239114610deb578063d25b00d014610e00578063d32a8f6714610e15578063d4dca69b14610e2a57610405565b8063b551572514610d29578063b6148fd214610d5c578063bac2e6db14610d71578063bc08621514610d8657610405565b80639aae9708116101a6578063a9059cbb11610175578063a9059cbb14610c54578063a9493ced14610c8d578063ad33648a14610ca2578063b07f0a4114610ccc578063b0ed9d8c14610cf657610405565b80639aae970814610bc55780639b1559c314610bda578063a457c2d714610c06578063a6bd542714610c3f57610405565b8063902d9e93116101e2578063902d9e9314610b3557806395d89b4114610b6857806398cfe58714610b7d57806399f9140514610b9257610405565b806383880e5114610aae5780638a0c6d2614610ac35780638a300e6814610aed5780638da5cb5b14610b2057610405565b8063374028e3116103195780634fce9c84116102a157806360baaaae1161027057806360baaaae146109eb5780636342987e14610a005780636ab28bc814610a335780636f3f661814610a4857806370a0823114610a7b57610405565b80634fce9c84146109445780635009a6131461095957806350724c7d14610983578063602d8608146109d657610405565b8063409e2205116102e8578063409e22051461080a5780634390d2a814610887578063470534b11461089c5780634cd6278d146108cf5780634fb2e45d1461091157610405565b8063374028e31461076e57806337637f451461079f57806339509351146107c95780633a4b66f11461080257610405565b80631bd8eca81161039c57806323b872dd1161036b57806323b872dd1461068d5780632927989f146106d05780632e1a7d4d14610704578063313ce5671461072e578063372500ab1461075957610405565b80631bd8eca8146105e65780631d37c76c1461061b5780631d983e231461064e578063228cb7331461067857610405565b806318160ddd116103d857806318160ddd1461053b57806319174be6146105505780631a4d56bd146105835780631baba706146105b357610405565b806306fdde031461040a578063095ea7b314610494578063108e184d146104e157806318126dce14610526575b600080fd5b34801561041657600080fd5b5061041f610faf565b6040805160208082528351818301528351919283929083019185019080838360005b83811015610459578181015183820152602001610441565b50505050905090810190601f1680156104865780820380516001836020036101000a031916815260200191505b509250505060405180910390f35b3480156104a057600080fd5b506104cd600480360360408110156104b757600080fd5b506001600160a01b038135169060200135611046565b604080519115158252519081900360200190f35b3480156104ed57600080fd5b506105146004803603602081101561050457600080fd5b50356001600160a01b0316611064565b60408051918252519081900360200190f35b34801561053257600080fd5b50610514611076565b34801561054757600080fd5b5061051461107c565b34801561055c57600080fd5b506105146004803603602081101561057357600080fd5b50356001600160a01b0316611082565b34801561058f57600080fd5b50610514600480360360408110156105a657600080fd5b5080359060200135611094565b3480156105bf57600080fd5b50610514600480360360208110156105d657600080fd5b50356001600160a01b0316611116565b3480156105f257600080fd5b506106196004803603602081101561060957600080fd5b50356001600160a01b0316611128565b005b34801561062757600080fd5b506104cd6004803603602081101561063e57600080fd5b50356001600160a01b0316611196565b34801561065a57600080fd5b506106196004803603602081101561067157600080fd5b50356111ab565b34801561068457600080fd5b506105146111fd565b34801561069957600080fd5b506104cd600480360360608110156106b057600080fd5b506001600160a01b03813581169160208101359091169060400135611203565b610619600480360360608110156106e657600080fd5b5080351515906001600160a01b036020820135169060400135611290565b34801561071057600080fd5b506106196004803603602081101561072757600080fd5b50356117c4565b34801561073a57600080fd5b506107436119cc565b6040805160ff9092168252519081900360200190f35b34801561076557600080fd5b506106196119d5565b34801561077a57600080fd5b50610783611a78565b604080516001600160a01b039092168252519081900360200190f35b3480156107ab57600080fd5b50610619600480360360208110156107c257600080fd5b5035611a87565b3480156107d557600080fd5b506104cd600480360360408110156107ec57600080fd5b506001600160a01b038135169060200135611ad9565b610619611b2d565b34801561081657600080fd5b506108346004803603602081101561082d57600080fd5b5035611c4b565b604080516001600160a01b03998a16815260208101989098528781019690965260608701949094526080860192909252151560a0850152841660c084015290921660e08201529051908190036101000190f35b34801561089357600080fd5b50610783611cb0565b3480156108a857600080fd5b50610783600480360360208110156108bf57600080fd5b50356001600160a01b0316611cc4565b610619600480360360a08110156108e557600080fd5b5080351515906001600160a01b0360208201358116916040810135916060820135169060800135611cdf565b34801561091d57600080fd5b506106196004803603602081101561093457600080fd5b50356001600160a01b031661217a565b34801561095057600080fd5b506105146121e9565b34801561096557600080fd5b506106196004803603602081101561097c57600080fd5b50356121ef565b34801561098f57600080fd5b50610514600480360360c08110156109a657600080fd5b506001600160a01b038135169060208101359060408101359060608101359060808101359060a001351515612286565b3480156109e257600080fd5b50610514612349565b3480156109f757600080fd5b5061051461234f565b348015610a0c57600080fd5b5061051460048036036020811015610a2357600080fd5b50356001600160a01b0316612355565b348015610a3f57600080fd5b506105146123b9565b348015610a5457600080fd5b5061051460048036036020811015610a6b57600080fd5b50356001600160a01b03166123bf565b348015610a8757600080fd5b5061051460048036036020811015610a9e57600080fd5b50356001600160a01b0316612424565b348015610aba57600080fd5b506104cd61243f565b348015610acf57600080fd5b5061061960048036036020811015610ae657600080fd5b5035612448565b348015610af957600080fd5b5061051460048036036020811015610b1057600080fd5b50356001600160a01b03166124ea565b348015610b2c57600080fd5b506107836124fc565b348015610b4157600080fd5b5061051460048036036020811015610b5857600080fd5b50356001600160a01b031661250b565b348015610b7457600080fd5b5061041f61260e565b348015610b8957600080fd5b5061061961266f565b348015610b9e57600080fd5b5061051460048036036020811015610bb557600080fd5b50356001600160a01b03166126c8565b348015610bd157600080fd5b50610783612732565b348015610be657600080fd5b5061061960048036036020811015610bfd57600080fd5b50351515612741565b348015610c1257600080fd5b506104cd60048036036040811015610c2957600080fd5b506001600160a01b0381351690602001356127a1565b348015610c4b57600080fd5b5061051461280f565b348015610c6057600080fd5b506104cd60048036036040811015610c7757600080fd5b506001600160a01b038135169060200135612815565b348015610c9957600080fd5b50610514612829565b348015610cae57600080fd5b5061061960048036036020811015610cc557600080fd5b503561282f565b348015610cd857600080fd5b5061061960048036036020811015610cef57600080fd5b50356128cd565b348015610d0257600080fd5b5061051460048036036020811015610d1957600080fd5b50356001600160a01b0316612c53565b348015610d3557600080fd5b5061061960048036036020811015610d4c57600080fd5b50356001600160a01b0316612d2e565b348015610d6857600080fd5b50610514612d9f565b348015610d7d57600080fd5b50610514612da5565b348015610d9257600080fd5b5061061960048036036040811015610da957600080fd5b506001600160a01b0381358116916020013516612dda565b348015610dcd57600080fd5b5061061960048036036020811015610de457600080fd5b5035612e55565b348015610df757600080fd5b506105146130c1565b348015610e0c57600080fd5b506105146130c7565b348015610e2157600080fd5b506107836130cd565b348015610e3657600080fd5b506107836130dc565b348015610e4b57600080fd5b506105146130e0565b348015610e6057600080fd5b5061051460048036036040811015610e7757600080fd5b506001600160a01b03813581169160200135166130e6565b348015610e9b57600080fd5b5061051460048036036020811015610eb257600080fd5b50356001600160a01b0316613111565b348015610ece57600080fd5b50610783613146565b348015610ee357600080fd5b5061051460048036036020811015610efa57600080fd5b50356001600160a01b0316613155565b348015610f1657600080fd5b5061061960048036036020811015610f2d57600080fd5b50356001600160a01b0316613167565b348015610f4957600080fd5b5061061960048036036020811015610f6057600080fd5b50356001600160a01b03166131dc565b348015610f7c57600080fd5b506104cd613250565b348015610f9157600080fd5b5061061960048036036020811015610fa857600080fd5b5035613259565b60038054604080516020601f600260001961010060018816150201909516949094049384018190048102820181019092528281526060939092909183018282801561103b5780601f106110105761010080835404028352916020019161103b565b820191906000526020600020905b81548152906001019060200180831161101e57829003601f168201915b505050505090505b90565b600061105a6110536132fa565b84846132fe565b5060015b92915050565b600e6020526000908152604090205481565b60125481565b60025490565b600d6020526000908152604090205481565b6000806110c0846110b460646110a861107c565b9063ffffffff6133ea16565b9063ffffffff61344a16565b905060006110d9600a6110b4868563ffffffff6133ea16565b11156110fc576110f4600a6110b4858463ffffffff6133ea16565b91505061105e565b61110e836103e863ffffffff61344a16565b949350505050565b60106020526000908152604090205481565b6006546001600160a01b03163314611175576040805162461bcd60e51b81526020600482018190526024820152600080516020613f60833981519152604482015290519081900360640190fd5b6001600160a01b03166000908152600f60205260409020805460ff19169055565b600f6020526000908152604090205460ff1681565b6006546001600160a01b031633146111f8576040805162461bcd60e51b81526020600482018190526024820152600080516020613f60833981519152604482015290519081900360640190fd5b601255565b601e5481565b600061121084848461348c565b6112868461121c6132fa565b61128185604051806060016040528060288152602001613f38602891396001600160a01b038a1660009081526001602052604081209061125a6132fa565b6001600160a01b03168152602081019190915260400160002054919063ffffffff6135f316565b6132fe565b5060019392505050565b60115481101580156112a457506012548111155b6112e4576040805162461bcd60e51b815260206004820152600c60248201526b496e76616c69642074696d6560a01b604482015290519081900360640190fd5b6001600160a01b038083166000908152600a60205260409020541661134a576040805162461bcd60e51b815260206004820152601760248201527624b73b30b634b21010383934b1b290383937bb34b232b960491b604482015290519081900360640190fd5b60008290506000816001600160a01b03166350d25bcd6040518163ffffffff1660e01b815260040160206040518083038186803b15801561138a57600080fd5b505afa15801561139e573d6000803e3d6000fd5b505050506040513d60208110156113b457600080fd5b5051601b5490915060009081906064341015611406576040805162461bcd60e51b815260206004820152600c60248201526b18995d081d1bc81cdb585b1b60a21b604482015290519081900360640190fd5b61140e612da5565b34111561144f576040805162461bcd60e51b815260206004820152600a60248201526962657420746f2062696760b01b604482015290519081900360640190fd5b6017543411801561146257506000601754115b1561151657600061147e6017543461344a90919063ffffffff16565b60055460405191925061010090046001600160a01b0316906108fc8315029083906000818181858888f193505050506114fe576040805162461bcd60e51b815260206004820152601b60248201527f64657646756e6420666565207472616e73666572206661696c65640000000000604482015290519081900360640190fd5b61150e348263ffffffff61368a16565b93505061151a565b3492505b600061153188611528612da5565b86888b8e612286565b601f5490915060ff161561157b5761156a61154e85601e54611094565b336000908152600c60205260409020549063ffffffff6136cc16565b336000908152600c60205260409020555b61158b818563ffffffff6136cc16565b925061159683613726565b61159e613db1565b506040805161010080820183523382526020820188815292820187815260608301878152428c01608085019081528e151560a086019081526001600160a01b038f811660c088019081523060e08901908152601b8054600181018255600091909152895160079091027f3ad8aa4f87544323a9d1e5dd902f40c356527a7955687113db5f9a85ad579dc1810180549286166001600160a01b03199384161790559a517f3ad8aa4f87544323a9d1e5dd902f40c356527a7955687113db5f9a85ad579dc28c015596517f3ad8aa4f87544323a9d1e5dd902f40c356527a7955687113db5f9a85ad579dc38b015594517f3ad8aa4f87544323a9d1e5dd902f40c356527a7955687113db5f9a85ad579dc48a015592517f3ad8aa4f87544323a9d1e5dd902f40c356527a7955687113db5f9a85ad579dc589015590517f3ad8aa4f87544323a9d1e5dd902f40c356527a7955687113db5f9a85ad579dc68801805493518316909602610100600160a81b031991151560ff19909416939093171691909117909355517f3ad8aa4f87544323a9d1e5dd902f40c356527a7955687113db5f9a85ad579dc7909401805494909216931692909217909155601c5461176a908563ffffffff6136cc16565b601c5560408051338152602081018890528082018690528b15156060820152905184917fc22159e9c70f40218804cbfbacf5359485a13c00fd742df591f32bfda9878825919081900360800190a250505050505050505050565b806117ce33612424565b1015611821576040805162461bcd60e51b815260206004820152601960248201527f496e737566666963656e742053686172652042616c616e636500000000000000604482015290519081900360640190fd5b336000908152600b6020526040812042905561184e61183e61107c565b6110b4844763ffffffff6133ea16565b905061185a338361373f565b33600090815260096020526040902054421161196957600061188382606463ffffffff61344a16565b60055460405191925061010090046001600160a01b0316906108fc8315029083906000818181858888f193505050506118f5576040805162461bcd60e51b815260206004820152600f60248201526e1d1c985b9cd9995c8819985a5b1959608a1b604482015290519081900360640190fd5b336108fc611909848463ffffffff61368a16565b6040518115909202916000818181858888f19350505050611963576040805162461bcd60e51b815260206004820152600f60248201526e1d1c985b9cd9995c8819985a5b1959608a1b604482015290519081900360640190fd5b506119c8565b604051339082156108fc029083906000818181858888f193505050506119c8576040805162461bcd60e51b815260206004820152600f60248201526e1d1c985b9cd9995c8819985a5b1959608a1b604482015290519081900360640190fd5b5050565b60055460ff1690565b6007546001600160a01b031660006119ec336126c8565b905060016119f933612424565b1115611a0757611a07613847565b336000908152600c6020526040808220829055805163750a7ea360e01b81526004810184905290516001600160a01b0385169263750a7ea3926024808201939182900301818387803b158015611a5c57600080fd5b505af1158015611a70573d6000803e3d6000fd5b505050505050565b6008546001600160a01b031681565b6006546001600160a01b03163314611ad4576040805162461bcd60e51b81526020600482018190526024820152600080516020613f60833981519152604482015290519081900360640190fd5b601155565b600061105a611ae66132fa565b846112818560016000611af76132fa565b6001600160a01b03908116825260208083019390935260409182016000908120918c16815292529020549063ffffffff6136cc16565b601a5460ff161515600114611b89576040805162461bcd60e51b815260206004820152601860248201527f706f6f6c206465706f736974732068617320636c6f7365640000000000000000604482015290519081900360640190fd5b6064341015611bd0576040805162461bcd60e51b815260206004820152600e60248201526d1cdd185ad9481d1bc81cdb585b1b60921b604482015290519081900360640190fd5b611bd933612424565b611c1e57336000908152600b60209081526040808320429055601d54600c90925290912054611c0d9163ffffffff6136cc16565b336000908152600c60205260409020555b611c26613847565b60185433600081815260096020526040902042909201909155611c49903461386a565b565b601b8181548110611c5857fe5b600091825260209091206007909102018054600182015460028301546003840154600485015460058601546006909601546001600160a01b039586169750939592949193909260ff8116926101009091048116911688565b60055461010090046001600160a01b031681565b600a602052600090815260409020546001600160a01b031681565b6011548310158015611cf357506012548311155b611d33576040805162461bcd60e51b815260206004820152600c60248201526b496e76616c69642074696d6560a01b604482015290519081900360640190fd5b6001600160a01b038085166000908152600a602052604090205416611d99576040805162461bcd60e51b815260206004820152601760248201527624b73b30b634b21010383934b1b290383937bb34b232b960491b604482015290519081900360640190fd5b60008490506000816001600160a01b03166350d25bcd6040518163ffffffff1660e01b815260040160206040518083038186803b158015611dd957600080fd5b505afa158015611ded573d6000803e3d6000fd5b505050506040513d6020811015611e0357600080fd5b50516001600160a01b0385166000908152600f602052604081205491925090819060ff16611e67576040805162461bcd60e51b815260206004820152600c60248201526b1a5b9d985b1a59081c1bdbdb60a21b604482015290519081900360640190fd5b604080516370a0823160e01b81523360048201529051879187916001600160a01b038416916370a08231916024808301926020929190829003018186803b158015611eb157600080fd5b505afa158015611ec5573d6000803e3d6000fd5b505050506040513d6020811015611edb57600080fd5b50511015611f1f576040805162461bcd60e51b815260206004820152600c60248201526b1a5b9d985b1a59081c1bdbdb60a21b604482015290519081900360640190fd5b604080516325fcf68f60e11b8152600481018690526024810188905281516001600160a01b03841692634bf9ed1e92604480820193918290030181600087803b158015611f6b57600080fd5b505af1158015611f7f573d6000803e3d6000fd5b505050506040513d6040811015611f9557600080fd5b5080516020909101519093509150611fab613db1565b604051806101000160405280336001600160a01b031681526020018681526020018581526020018481526020018a420181526020018c151581526020018b6001600160a01b03168152602001896001600160a01b03168152509050601b81908060018154018082558091505060019003906000526020600020906007020160009091909190915060008201518160000160006101000a8154816001600160a01b0302191690836001600160a01b031602179055506020820151816001015560408201518160020155606082015181600301556080820151816004015560a08201518160050160006101000a81548160ff02191690831515021790555060c08201518160050160016101000a8154816001600160a01b0302191690836001600160a01b0316021790555060e08201518160060160006101000a8154816001600160a01b0302191690836001600160a01b03160217905550505061211883601c546136cc90919063ffffffff16565b601c55601b5460408051338152602081018890528082018690528d151560608201529051600019909201917fc22159e9c70f40218804cbfbacf5359485a13c00fd742df591f32bfda98788259181900360800190a25050505050505050505050565b6006546001600160a01b031633146121c7576040805162461bcd60e51b81526020600482018190526024820152600080516020613f60833981519152604482015290519081900360640190fd5b600680546001600160a01b0319166001600160a01b0392909216919091179055565b60195481565b6006546001600160a01b0316331461223c576040805162461bcd60e51b81526020600482018190526024820152600080516020613f60833981519152604482015290519081900360640190fd5b621275008110612281576040805162461bcd60e51b815260206004820152600b60248201526a696e76616c69642066656560a81b604482015290519081900360640190fd5b601855565b6001600160a01b038087166000908152600a60205260408120549091168063ea7044ed876122ba8a8263ffffffff61368a16565b8888886040518663ffffffff1660e01b815260040180868152602001858152602001848152602001838152602001821515151581526020019550505050505060206040518083038186803b15801561231157600080fd5b505afa158015612325573d6000803e3d6000fd5b505050506040513d602081101561233b57600080fd5b505198975050505050505050565b60185481565b60165481565b6001600160a01b0381166000908152600e6020526040812054819061238190429063ffffffff61368a16565b9050600061239882620bdd8063ffffffff61344a16565b9050620bdd808210156123b0576001925050506123b4565b9150505b919050565b60145481565b6001600160a01b0381166000908152600d6020526040812054601c5482916123ed919063ffffffff61368a16565b9050600061240982670de0b6b3a764000063ffffffff61344a16565b9050801561241a5791506123b49050565b5060009392505050565b6001600160a01b031660009081526020819052604090205490565b601f5460ff1681565b6006546001600160a01b03163314612495576040805162461bcd60e51b81526020600482018190526024820152600080516020613f60833981519152604482015290519081900360640190fd5b6001811180156124a657506101f481105b6124e5576040805162461bcd60e51b815260206004820152600b60248201526a696e76616c69642066656560a81b604482015290519081900360640190fd5b601555565b60096020526000908152604090205481565b6006546001600160a01b031681565b60008061251783612424565b9050801561105a57606461252961107c565b10156125395760019150506123b4565b61254660026110b461107c565b81106125565760149150506123b4565b61256360046110b461107c565b811061257357600e9150506123b4565b61258060056110b461107c565b811061259057600a9150506123b4565b61259d600a6110b461107c565b81106125ad5760089150506123b4565b6125ba60146110b461107c565b81106125ca5760069150506123b4565b6125d760326110b461107c565b81106125e75760049150506123b4565b6125f460646110b461107c565b81106126045760039150506123b4565b60029150506123b4565b60048054604080516020601f600260001961010060018816150201909516949094049384018190048102820181019092528281526060939092909183018282801561103b5780601f106110105761010080835404028352916020019161103b565b6006546001600160a01b031633146126bc576040805162461bcd60e51b81526020600482018190526024820152600080516020613f60833981519152604482015290519081900360640190fd5b601a805460ff19169055565b600060016126d583612424565b11156127135761270c6126e783613111565b6001600160a01b0384166000908152600c60205260409020549063ffffffff6136cc16565b90506123b4565b506001600160a01b0381166000908152600c60205260409020546123b4565b6013546001600160a01b031690565b6006546001600160a01b0316331461278e576040805162461bcd60e51b81526020600482018190526024820152600080516020613f60833981519152604482015290519081900360640190fd5b601f805460ff1916911515919091179055565b600061105a6127ae6132fa565b8461128185604051806060016040528060258152602001613fea60259139600160006127d86132fa565b6001600160a01b03908116825260208083019390935260409182016000908120918d1681529252902054919063ffffffff6135f316565b601b5490565b600061105a6128226132fa565b848461348c565b60175481565b6006546001600160a01b0316331461287c576040805162461bcd60e51b81526020600482018190526024820152600080516020613f60833981519152604482015290519081900360640190fd5b8015806128895750603281115b6128c8576040805162461bcd60e51b815260206004820152600b60248201526a696e76616c69642066656560a81b604482015290519081900360640190fd5b601755565b6128d5613db1565b601b82815481106128e257fe5b6000918252602091829020604080516101008082018352600790940290920180546001600160a01b03908116845260018201549584019590955260028101549183019190915260038101546060830152600481015460808301819052600582015460ff8116151560a085015293909304841660c08301526006015490921660e08301529091504211156129a65760405162461bcd60e51b8152600401808060200182810382526021815260200180613ef66021913960400191505060405180910390fd5b60008160c0015190506000816001600160a01b03166350d25bcd6040518163ffffffff1660e01b815260040160206040518083038186803b1580156129ea57600080fd5b505afa1580156129fe573d6000803e3d6000fd5b505050506040513d6020811015612a1457600080fd5b505160a084015190915015612a725782602001518113612a6d576040805162461bcd60e51b815260206004820152600f60248201526e707269636520697320746f206c6f7760881b604482015290519081900360640190fd5b612abd565b82602001518112612abd576040805162461bcd60e51b815260206004820152601060248201526f0e0e4d2c6ca40d2e640e8de40d0d2ced60831b604482015290519081900360640190fd5b60e08301516001600160a01b03163014612bc55760e083015160608401516040808601518651825163144f3ee560e21b8152600481019490945260248401919091523360448401526001600160a01b03908116606484015290519083169163513cfb949160848083019260209291908290030181600087803b158015612b4257600080fd5b505af1158015612b56573d6000803e3d6000fd5b505050506040513d6020811015612b6c57600080fd5b5051612bbf576040805162461bcd60e51b815260206004820152601a60248201527f657263323020706f6f6c206578657263697365206661696c6564000000000000604482015290519081900360640190fd5b50612bf3565b612bd88360600151338560000151613966565b6060830151601454612bef9163ffffffff61368a16565b6014555b60405184907fa2a53c7cb82eeb7994ccbbab71bea210cd63cfeb7823972fb5b6a49c3b0e1d4c90600090a2601f5460ff1615612c4d57612c3c61154e8460600151601e54611094565b336000908152600c60205260409020555b50505050565b604080516370a0823160e01b81523060048201529051600091839183916001600160a01b038416916370a0823191602480820192602092909190829003018186803b158015612ca157600080fd5b505afa158015612cb5573d6000803e3d6000fd5b505050506040513d6020811015612ccb57600080fd5b50516001600160a01b038516600090815260106020526040902054909150811115612d23576001600160a01b038416600090815260106020526040902054612d1a90829063ffffffff61368a16565b925050506123b4565b6000925050506123b4565b6006546001600160a01b03163314612d7b576040805162461bcd60e51b81526020600482018190526024820152600080516020613f60833981519152604482015290519081900360640190fd5b6001600160a01b03166000908152600f60205260409020805460ff19166001179055565b601d5481565b6014546000904790811115612dd057601454612dc890829063ffffffff61368a16565b915050611043565b6000915050611043565b6006546001600160a01b03163314612e27576040805162461bcd60e51b81526020600482018190526024820152600080516020613f60833981519152604482015290519081900360640190fd5b6001600160a01b039182166000908152600a6020526040902080546001600160a01b03191691909216179055565b612e5d613db1565b601b8281548110612e6a57fe5b6000918252602091829020604080516101008082018352600790940290920180546001600160a01b03908116845260018201549584019590955260028101549183019190915260038101546060830152600481015460808301819052600582015460ff8116151560a085015293909304841660c08301526006015490921660e08301529091504211612f43576040805162461bcd60e51b815260206004820152601e60248201527f65787069726174696f6e206461746520686173206e6f74207061737365640000604482015290519081900360640190fd5b60e08101516001600160a01b0316301461303b5760e0810151606082015160408084015181516204d2f960ed1b815260048101939093526024830152336044830152516001600160a01b03831691639a5f20009160648083019260209291908290030181600087803b158015612fb857600080fd5b505af1158015612fcc573d6000803e3d6000fd5b505050506040513d6020811015612fe257600080fd5b5051613035576040805162461bcd60e51b815260206004820152601a60248201527f657263323020706f6f6c206578657263697365206661696c6564000000000000604482015290519081900360640190fd5b50613064565b613049816060015133613c2b565b60608101516014546130609163ffffffff61368a16565b6014555b60405182907fa33fd53ba34795ffefaea3759c71f87d38b89ae12e40bc434c826fae0ca5358390600090a2601f5460ff16156119c8576130ad61154e8260400151601e54611094565b336000908152600c60205260409020555050565b60115481565b60155481565b6013546001600160a01b031681565b3090565b601c5481565b6001600160a01b03918216600090815260016020908152604080832093909416825291909152205490565b600061105e61311f836123bf565b6110a861312b8561250b565b6110a861313787612355565b601e549063ffffffff6133ea16565b6007546001600160a01b031681565b600b6020526000908152604090205481565b6006546001600160a01b031633146131b4576040805162461bcd60e51b81526020600482018190526024820152600080516020613f60833981519152604482015290519081900360640190fd5b600580546001600160a01b0390921661010002610100600160a81b0319909216919091179055565b6006546001600160a01b03163314613229576040805162461bcd60e51b81526020600482018190526024820152600080516020613f60833981519152604482015290519081900360640190fd5b6001600160a01b03166000908152600a6020526040902080546001600160a01b0319169055565b601a5460ff1681565b6006546001600160a01b031633146132a6576040805162461bcd60e51b81526020600482018190526024820152600080516020613f60833981519152604482015290519081900360640190fd5b6001811180156132b65750603281105b6132f5576040805162461bcd60e51b815260206004820152600b60248201526a696e76616c69642066656560a81b604482015290519081900360640190fd5b601655565b3390565b6001600160a01b0383166133435760405162461bcd60e51b8152600401808060200182810382526024815260200180613fc66024913960400191505060405180910390fd5b6001600160a01b0382166133885760405162461bcd60e51b8152600401808060200182810382526022815260200180613e596022913960400191505060405180910390fd5b6001600160a01b03808416600081815260016020908152604080832094871680845294825291829020859055815185815291517f8c5be1e5ebec7d5bd14f71427d1e84f3dd0314c0f7b2291e5b200ac8c7c3b9259281900390910190a3505050565b6000826133f95750600061105e565b8282028284828161340657fe5b04146134435760405162461bcd60e51b8152600401808060200182810382526021815260200180613f176021913960400191505060405180910390fd5b9392505050565b600061344383836040518060400160405280601a81526020017f536166654d6174683a206469766973696f6e206279207a65726f000000000000815250613d4c565b6001600160a01b0383166134d15760405162461bcd60e51b8152600401808060200182810382526025815260200180613fa16025913960400191505060405180910390fd5b6001600160a01b0382166135165760405162461bcd60e51b8152600401808060200182810382526023815260200180613e146023913960400191505060405180910390fd5b613521838383613d47565b61356481604051806060016040528060268152602001613e7b602691396001600160a01b038616600090815260208190526040902054919063ffffffff6135f316565b6001600160a01b038085166000908152602081905260408082209390935590841681522054613599908263ffffffff6136cc16565b6001600160a01b038084166000818152602081815260409182902094909455805185815290519193928716927fddf252ad1be2c89b69c2b068fc378daa952ba7f163c4a11628f55a4df523b3ef92918290030190a3505050565b600081848411156136825760405162461bcd60e51b81526004018080602001828103825283818151815260200191508051906020019080838360005b8381101561364757818101518382015260200161362f565b50505050905090810190601f1680156136745780820380516001836020036101000a031916815260200191505b509250505060405180910390fd5b505050900390565b600061344383836040518060400160405280601e81526020017f536166654d6174683a207375627472616374696f6e206f766572666c6f7700008152506135f3565b600082820183811015613443576040805162461bcd60e51b815260206004820152601b60248201527f536166654d6174683a206164646974696f6e206f766572666c6f770000000000604482015290519081900360640190fd5b601454613739908263ffffffff6136cc16565b60145550565b6001600160a01b0382166137845760405162461bcd60e51b8152600401808060200182810382526021815260200180613f806021913960400191505060405180910390fd5b61379082600083613d47565b6137d381604051806060016040528060228152602001613e37602291396001600160a01b038516600090815260208190526040902054919063ffffffff6135f316565b6001600160a01b0383166000908152602081905260409020556002546137ff908263ffffffff61368a16565b6002556040805182815290516000916001600160a01b038516917fddf252ad1be2c89b69c2b068fc378daa952ba7f163c4a11628f55a4df523b3ef9181900360200190a35050565b336000908152600e60209081526040808320429055601c54600d90925290912055565b6001600160a01b0382166138c5576040805162461bcd60e51b815260206004820152601f60248201527f45524332303a206d696e7420746f20746865207a65726f206164647265737300604482015290519081900360640190fd5b6138d160008383613d47565b6002546138e4908263ffffffff6136cc16565b6002556001600160a01b038216600090815260208190526040902054613910908263ffffffff6136cc16565b6001600160a01b0383166000818152602081815260408083209490945583518581529351929391927fddf252ad1be2c89b69c2b068fc378daa952ba7f163c4a11628f55a4df523b3ef9281900390910190a35050565b6014548311156139a75760405162461bcd60e51b815260040180806020018281038252602c815260200180613ea1602c913960400191505060405180910390fd5b478311156139fc576040805162461bcd60e51b815260206004820152601b60248201527f696e737566666963656e742062616c616e636520696e20706f6f6c0000000000604482015290519081900360640190fd5b806001600160a01b0316826001600160a01b031614613b74576000662386f26fc100008411613a5757613a5060646110b4613a4360046015546133ea90919063ffffffff16565b879063ffffffff61344a16565b9050613a74565b613a7160646110b46015548761344a90919063ffffffff16565b90505b8015613b6e576040516001600160a01b0384169082156108fc029083906000818181858888f19350505050613af0576040805162461bcd60e51b815260206004820152601960248201527f657865726369736572207472616e73666572206661696c656400000000000000604482015290519081900360640190fd5b6001600160a01b0382166108fc613b0d868463ffffffff61368a16565b6040518115909202916000818181858888f19350505050613b6e576040805162461bcd60e51b81526020600482015260166024820152751dda5b9b995c881d1c985b9cd9995c8819985a5b195960521b604482015290519081900360640190fd5b50613be3565b6040516001600160a01b0382169084156108fc029085906000818181858888f19350505050613be3576040805162461bcd60e51b81526020600482015260166024820152751dda5b9b995c881d1c985b9cd9995c8819985a5b195960521b604482015290519081900360640190fd5b604080518481526001600160a01b038316602082015281517f9b5d1a613fa5f0790b36b13103706e31fca06b229d87e9915b29fc20c1d76490929181900390910190a1505050565b601454821115613c6c5760405162461bcd60e51b8152600401808060200182810382526029815260200180613ecd6029913960400191505060405180910390fd5b6000662386f26fc100008311613cae57613ca760646110b4613c9a60046015546133ea90919063ffffffff16565b869063ffffffff61344a16565b9050613ccb565b613cc860646110b46015548661344a90919063ffffffff16565b90505b8015613d47576040516001600160a01b0383169082156108fc029083906000818181858888f19350505050613d47576040805162461bcd60e51b815260206004820152601e60248201527f676f6f642073616d61726974616e207472616e73666572206661696c65640000604482015290519081900360640190fd5b505050565b60008183613d9b5760405162461bcd60e51b815260206004820181815283516024840152835190928392604490910191908501908083836000831561364757818101518382015260200161362f565b506000838581613da757fe5b0495945050505050565b60405180610100016040528060006001600160a01b031681526020016000815260200160008152602001600081526020016000815260200160001515815260200160006001600160a01b0316815260200160006001600160a01b03168152509056fe45524332303a207472616e7366657220746f20746865207a65726f206164647265737345524332303a206275726e20616d6f756e7420657863656564732062616c616e636545524332303a20617070726f766520746f20746865207a65726f206164647265737345524332303a207472616e7366657220616d6f756e7420657863656564732062616c616e6365696e737566666963656e7420706f6f6c2062616c616e636520617661696c61626c6520746f207061796f7574696e737566666963656e74206c6f636b656420706f6f6c2062616c616e636520746f20756e6c6f636b65787069726174696f6e2064617465206d617267696e2068617320706173736564536166654d6174683a206d756c7469706c69636174696f6e206f766572666c6f7745524332303a207472616e7366657220616d6f756e74206578636565647320616c6c6f77616e63654f776e61626c653a2063616c6c6572206973206e6f7420746865206f776e657245524332303a206275726e2066726f6d20746865207a65726f206164647265737345524332303a207472616e736665722066726f6d20746865207a65726f206164647265737345524332303a20617070726f76652066726f6d20746865207a65726f206164647265737345524332303a2064656372656173656420616c6c6f77616e63652062656c6f77207a65726fa2646970667358221220b294375247098372879f2fa2de0b2ba4a956a2d427d96e386bf4aa2a8b81e35764736f6c63430006060033",
  "immutableReferences": {},
  "source": "pragma solidity ^0.6.6;\n\nimport \"@openzeppelin/contracts/math/SafeMath.sol\";\nimport \"@openzeppelin/contracts/token/ERC20/ERC20.sol\";\nimport \"@chainlink/contracts/src/v0.6/AggregatorProxy.sol\";\n\nimport \"./BIOPTokenV3.sol\";\nimport \"./RateCalc.sol\";\nimport \"./IEBOP20.sol\";\n\n\n/**\n * @title Binary Options Eth Pool\n * @author github.com/BIOPset\n * @dev Pool ETH Tokens and use it for optionss\n * Biop\n */\ncontract BinaryOptions is ERC20 {\n    using SafeMath for uint256;\n    address payable public devFund;\n    address payable public owner;\n    address public biop;\n    address public defaultRCAddress;//address of default rate calculator\n    mapping(address=>uint256) public nW; //next withdraw (used for pool lock time)\n    mapping(address=>address) public ePairs;//enabled pairs. price provider mapped to rate calc\n    mapping(address=>uint256) public lW;//last withdraw.used for rewards calc\n    mapping(address=>uint256) private pClaims;//pending claims\n    mapping(address=>uint256) public iAL;//interchange at last claim \n    mapping(address=>uint256) public lST;//last stake time\n\n    //erc20 pools stuff\n    mapping(address=>bool) public ePools;//enabled pools\n    mapping(address=>uint256) public altLockedAmount;\n\n\n\n    uint256 public minT;//min time\n    uint256 public maxT;//max time\n    address public defaultPair;\n    uint256 public lockedAmount;\n    uint256 public exerciserFee = 50;//in tenth percent\n    uint256 public expirerFee = 50;//in tenth percent\n    uint256 public devFundBetFee = 200;//0.5%\n    uint256 public poolLockSeconds = 7 days;\n    uint256 public contractCreated;\n    bool public open = true;\n    Option[] public options;\n    \n    uint256 public tI = 0;//total interchange\n    //reward amounts\n    uint256 public fGS =400000000000000;//first gov stake reward\n    uint256 public reward =       200000000000000;\n    bool public rewEn = true;//rewards enabled\n\n\n    modifier onlyOwner() {\n        require(owner == msg.sender, \"Ownable: caller is not the owner\");\n        _;\n    }\n\n\n    /* Types */\n    struct Option {\n        address payable holder;\n        int256 sP;//strike\n        uint256 pV;//purchase \n        uint256 lV;// purchaseAmount+possible reward for correct bet\n        uint256 exp;//expiration\n        bool dir;//direction (true for call)\n        address pP;//price provider\n        address aPA;//alt pool address \n    }\n\n    /* Events */\n     event Create(\n        uint256 indexed id,\n        address payable account,\n        int256 sP,//strike\n        uint256 lV,//locked value\n        bool dir\n    );\n    event Payout(uint256 poolLost, address winner);\n    event Exercise(uint256 indexed id);\n    event Expire(uint256 indexed id);\n\n      constructor(string memory name_, string memory symbol_, address pp_, address biop_, address rateCalc_) public ERC20(name_, symbol_){\n        devFund = msg.sender;\n        owner = msg.sender;\n        biop = biop_;\n        defaultRCAddress = rateCalc_;\n        lockedAmount = 0;\n        contractCreated = block.timestamp;\n        ePairs[pp_] = defaultRCAddress; //default pair ETH/USD\n        defaultPair = pp_;\n        minT = 900;//15 minutes\n        maxT = 60 minutes;\n    }\n\n\n    function getMaxAvailable() public view returns(uint256) {\n        uint256 balance = address(this).balance;\n        if (balance > lockedAmount) {\n            return balance.sub(lockedAmount);\n        } else {\n            return 0;\n        }\n    }\n\n    function getAltMaxAvailable(address erc20PoolAddress_) public view returns(uint256) {\n        ERC20 alt = ERC20(erc20PoolAddress_);\n        uint256 balance = alt.balanceOf(address(this));\n        if (balance >  altLockedAmount[erc20PoolAddress_]) {\n            return balance.sub( altLockedAmount[erc20PoolAddress_]);\n        } else {\n            return 0;\n        }\n    }\n\n    function getOptionCount() public view returns(uint256) {\n        return options.length;\n    }\n\n    function getStakingTimeBonus(address account) public view returns(uint256) {\n        uint256 dif = block.timestamp.sub(lST[account]);\n        uint256 bonus = dif.div(777600);//9 days\n        if (dif < 777600) {\n            return 1;\n        }\n        return bonus;\n    }\n\n    function getPoolBalanceBonus(address account) public view returns(uint256) {\n        uint256 balance = balanceOf(account);\n        if (balance > 0) {\n\n            if (totalSupply() < 100) { //guard\n                return 1;\n            }\n            \n\n            if (balance >= totalSupply().div(2)) {//50th percentile\n                return 20;\n            }\n\n            if (balance >= totalSupply().div(4)) {//25th percentile\n                return 14;\n            }\n\n            if (balance >= totalSupply().div(5)) {//20th percentile\n                return 10;\n            }\n\n            if (balance >= totalSupply().div(10)) {//10th percentile\n                return 8;\n            }\n\n            if (balance >= totalSupply().div(20)) {//5th percentile\n                return 6;\n            }\n\n            if (balance >= totalSupply().div(50)) {//2nd percentile\n                return 4;\n            }\n\n            if (balance >= totalSupply().div(100)) {//1st percentile\n                return 3;\n            }\n           \n           return 2;\n        } \n        return 1; \n    }\n\n    function getOptionValueBonus(address account) public view returns(uint256) {\n        uint256 dif = tI.sub(iAL[account]);\n        uint256 bonus = dif.div(1000000000000000000);//1ETH\n        if(bonus > 0){\n            return bonus;\n        }\n        return 0;\n    }\n\n    //used for betting/exercise/expire calc\n    function getBetSizeBonus(uint256 amount, uint256 base) public view returns(uint256) {\n        uint256 betPercent = totalSupply().mul(100).div(amount);\n        if(base.mul(betPercent).div(10) > 0){\n            return base.mul(betPercent).div(10);\n        }\n        return base.div(1000);\n    }\n\n    function getCombinedStakingBonus(address account) public view returns(uint256) {\n        return reward\n                .mul(getStakingTimeBonus(account))\n                .mul(getPoolBalanceBonus(account))\n                .mul(getOptionValueBonus(account));\n    }\n\n    function getPendingClaims(address account) public view returns(uint256) {\n        if (balanceOf(account) > 1) {\n            //staker reward bonus\n            //base*(weeks)*(poolBalanceBonus/10)*optionsBacked\n            return pClaims[account].add(\n                getCombinedStakingBonus(account)\n            );\n        } else {\n            //normal rewards\n            return pClaims[account];\n        }\n    }\n\n    function updateLPmetrics() internal {\n        lST[msg.sender] = block.timestamp;\n        iAL[msg.sender] = tI;\n    }\n     /**\n     * @dev distribute pending governance token claims to user\n     */\n    function claimRewards() external {\n        \n        BIOPTokenV3 b = BIOPTokenV3(biop);\n        uint256 claims = getPendingClaims(msg.sender);\n        if (balanceOf(msg.sender) > 1) {\n            updateLPmetrics();\n        }\n        pClaims[msg.sender] = 0;\n        b.updateEarlyClaim(claims);\n    }\n\n    \n\n  \n\n    /**\n     * @dev the default price provider. This is a convenience method\n     */\n    function defaultPriceProvider() public view returns (address) {\n        return defaultPair;\n    }\n\n\n    /**\n     * @dev add a pool\n     * @param newPool_ the address EBOP20 pool to add\n     */\n    function addAltPool(address newPool_) external onlyOwner {\n        ePools[newPool_] = true; \n    }\n\n    /**\n     * @dev enable or disable BIOP rewards\n     * @param nx_ the new position for the rewEn switch\n     */\n    function enableRewards(bool nx_) external onlyOwner {\n        rewEn = nx_;\n    }\n\n    /**\n     * @dev remove a pool\n     * @param oldPool_ the address EBOP20 pool to remove\n     */\n    function removeAltPool(address oldPool_) external onlyOwner {\n        ePools[oldPool_] = false; \n    }\n\n    /**\n     * @dev add or update a price provider to the ePairs list.\n     * @param newPP_ the address of the AggregatorProxy price provider contract address to add.\n     * @param rateCalc_ the address of the RateCalc to use with this trading pair.\n     */\n    function addPP(address newPP_, address rateCalc_) external onlyOwner {\n        ePairs[newPP_] = rateCalc_; \n    }\n\n   \n\n    /**\n     * @dev remove a price provider from the ePairs list\n     * @param oldPP_ the address of the AggregatorProxy price provider contract address to remove.\n     */\n    function removePP(address oldPP_) external onlyOwner {\n        ePairs[oldPP_] = 0x0000000000000000000000000000000000000000;\n    }\n\n    /**\n     * @dev update the max time for option bets\n     * @param newMax_ the new maximum time (in seconds) an option may be created for (inclusive).\n     */\n    function setMaxT(uint256 newMax_) external onlyOwner {\n        maxT = newMax_;\n    }\n\n    /**\n     * @dev update the max time for option bets\n     * @param newMin_ the new minimum time (in seconds) an option may be created for (inclusive).\n     */\n    function setMinT(uint256 newMin_) external onlyOwner {\n        minT = newMin_;\n    }\n\n    /**\n     * @dev address of this contract, convenience method\n     */\n    function thisAddress() public view returns (address){\n        return address(this);\n    }\n\n    /**\n     * @dev set the fee users can recieve for exercising other users options\n     * @param exerciserFee_ the new fee (in tenth percent) for exercising a options itm\n     */\n    function updateExerciserFee(uint256 exerciserFee_) external onlyOwner {\n        require(exerciserFee_ > 1 && exerciserFee_ < 500, \"invalid fee\");\n        exerciserFee = exerciserFee_;\n    }\n\n     /**\n     * @dev set the fee users can recieve for expiring other users options\n     * @param expirerFee_ the new fee (in tenth percent) for expiring a options\n     */\n    function updateExpirerFee(uint256 expirerFee_) external onlyOwner {\n        require(expirerFee_ > 1 && expirerFee_ < 50, \"invalid fee\");\n        expirerFee = expirerFee_;\n    }\n\n    /**\n     * @dev set the fee users pay to buy an option\n     * @param devFundBetFee_ the new fee (in tenth percent) to buy an option\n     */\n    function updateDevFundBetFee(uint256 devFundBetFee_) external onlyOwner {\n        require(devFundBetFee_ == 0 || devFundBetFee_ > 50, \"invalid fee\");\n        devFundBetFee = devFundBetFee_;\n    }\n\n     /**\n     * @dev update the pool stake lock up time.\n     * @param newLockSeconds_ the new lock time, in seconds\n     */\n    function updatePoolLockSeconds(uint256 newLockSeconds_) external onlyOwner {\n        require(newLockSeconds_ >= 0 && newLockSeconds_ < 14 days, \"invalid fee\");\n        poolLockSeconds = newLockSeconds_;\n    }\n\n    /**\n     * @dev used to transfer ownership\n     * @param newOwner_ the address of governance contract which takes over control\n     */\n    function transferOwner(address payable newOwner_) external onlyOwner {\n        owner = newOwner_;\n    }\n\n    /**\n     * @dev used to transfer devfund \n     * @param newDevFund the address of governance contract which takes over control\n     */\n    function transferDevFund(address payable newDevFund) external onlyOwner {\n        devFund = newDevFund;\n    }\n\n\n     /**\n     * @dev used to send this pool into EOL mode when a newer one is open\n     */\n    function closeStaking() external onlyOwner {\n        open = false;\n    }\n\n   \n    \n\n    /**\n     * @dev send ETH to the pool. Recieve pETH token representing your claim.\n     * If rewards are available recieve BIOP governance tokens as well.\n    */\n    function stake() external payable {\n        require(open == true, \"pool deposits has closed\");\n        require(msg.value >= 100, \"stake to small\");\n        if (balanceOf(msg.sender) == 0) {\n            lW[msg.sender] = block.timestamp;\n            pClaims[msg.sender] = pClaims[msg.sender].add(fGS);\n        }\n        updateLPmetrics();\n        nW[msg.sender] = block.timestamp + poolLockSeconds;//this one is seperate because it isn't updated on reward claim\n        \n        _mint(msg.sender, msg.value);\n    }\n\n    /**\n     * @dev recieve ETH from the pool. \n     * If the current time is before your next available withdraw a 1% fee will be applied.\n     * @param amount The amount of pETH to send the pool.\n    */\n    function withdraw(uint256 amount) public {\n       require (balanceOf(msg.sender) >= amount, \"Insufficent Share Balance\");\n        lW[msg.sender] = block.timestamp;\n        uint256 valueToRecieve = amount.mul(address(this).balance).div(totalSupply());\n        _burn(msg.sender, amount);\n        if (block.timestamp <= nW[msg.sender]) {\n            //early withdraw fee\n            uint256 penalty = valueToRecieve.div(100);\n            require(devFund.send(penalty), \"transfer failed\");\n            require(msg.sender.send(valueToRecieve.sub(penalty)), \"transfer failed\");\n        } else {\n            require(msg.sender.send(valueToRecieve), \"transfer failed\");\n        }\n    }\n\n     /**\n    @dev helper for getting rate\n    @param pair the price provider\n    @param max max pool available\n    @param deposit bet amount\n    @param t time\n    @param k direction bool, true is call\n    @return the rate\n    */\n    function getRate(address pair,uint256 max, uint256 deposit, int256 currentPrice, uint256 t, bool k) public view returns (uint256) {\n        RateCalc rc = RateCalc(ePairs[pair]);\n        \n        return rc.rate(deposit, max.sub(deposit), uint256(currentPrice), t, k);\n    }\n\n     /**\n    @dev Open a new call or put options.\n    @param k_ type of option to buy (true for call )\n    @param pp_ the address of the price provider to use (must be in the list of ePairs)\n    @param t_ the time until your options expiration (must be minT < t_ > maxT)\n    */\n    function bet(bool k_, address pp_, uint256 t_) external payable {\n        require(\n            t_ >= minT && t_ <= maxT,\n            \"Invalid time\"\n        );\n        require(ePairs[pp_] != 0x0000000000000000000000000000000000000000, \"Invalid  price provider\");\n        \n        AggregatorProxy priceProvider = AggregatorProxy(pp_);\n        int256 lA = priceProvider.latestAnswer();\n        uint256 dV;\n        uint256 lT;\n        uint256 oID = options.length;\n\n        \n            //normal eth bet\n            require(msg.value >= 100, \"bet to small\");\n            require(msg.value <= getMaxAvailable(), \"bet to big\");\n\n\n            //an optional (to be choosen by contract owner) fee on each option. \n            //A % of the bet money is sent as a fee. see devFundBetFee\n            if (msg.value > devFundBetFee && devFundBetFee > 0) {\n                    uint256 fee = msg.value.div(devFundBetFee);\n                    require(devFund.send(fee), \"devFund fee transfer failed\");\n                    dV = msg.value.sub(fee);\n            } else {\n                    dV = msg.value;\n            }\n\n\n            uint256 lockValue = getRate(pp_, getMaxAvailable(), dV, lA, t_, k_);\n            \n            if (rewEn) {\n                pClaims[msg.sender] = pClaims[msg.sender].add(getBetSizeBonus(dV, reward));\n            }\n            lT = lockValue.add(dV);\n            lock(lT);\n        \n\n\n        Option memory op = Option(\n            msg.sender,\n            lA,\n            dV,\n            lT,\n            block.timestamp + t_,//time till expiration\n            k_,\n            pp_,\n            address(this)\n        );\n\n        options.push(op);\n        tI = tI.add(lT);\n        emit Create(oID, msg.sender, lA, lT, k_);\n    }\n\n    /**\n    @dev Open a new call or put options with a ERC20 pool.\n    @param k_ type of option to buy (true for call)\n    @param pp_ the address of the price provider to use (must be in the list of ePairs)\n    @param t_ the time until your options expiration (must be minT < t_ > maxT)\n    @param pa_ address of alt pool\n    @param a_ bet amount. \n    */function bet20(bool k_, address pp_, uint256 t_, address pa_,  uint256 a_) external payable {\n        require(\n            t_ >= minT && t_ <= maxT,\n            \"Invalid time\"\n        );\n        require(ePairs[pp_] != 0x0000000000000000000000000000000000000000, \"Invalid  price provider\");\n        \n        AggregatorProxy priceProvider = AggregatorProxy(pp_);\n        int256 lA = priceProvider.latestAnswer();\n        uint256 dV;\n        uint256 lT;\n\n        require(ePools[pa_], \"invalid pool\");\n        IEBOP20 altPool = IEBOP20(pa_);\n        require(altPool.balanceOf(msg.sender) >= a_, \"invalid pool\");\n        (dV, lT) = altPool.bet(lA, a_);\n        \n        Option memory op = Option(\n            msg.sender,\n            lA,\n            dV,\n            lT,\n            block.timestamp + t_,//time till expiration\n            k_,\n            pp_,\n            pa_\n        );\n\n        options.push(op);\n        tI = tI.add(lT);\n        emit Create(options.length-1, msg.sender, lA, lT, k_);\n    }\n\n\n    \n\n     /**\n     * @notice exercises a option\n     * @param oID id of the option to exercise\n     */\n    function exercise(uint256 oID)\n        external\n    {\n        Option memory option = options[oID];\n        require(block.timestamp <= option.exp, \"expiration date margin has passed\");\n        AggregatorProxy priceProvider = AggregatorProxy(option.pP);\n        int256 lA = priceProvider.latestAnswer();\n        if (option.dir) {\n            //call option\n            require(lA > option.sP, \"price is to low\");\n        } else {\n            //put option\n            require(lA < option.sP, \"price is to high\");\n        }\n\n\n        if (option.aPA != address(this)) {\n            IEBOP20 alt = IEBOP20(option.aPA);\n            require(alt.payout(option.lV,option.pV, msg.sender, option.holder), \"erc20 pool exercise failed\");\n        } else {\n            //option expires ITM, we pay out\n            payout(option.lV, msg.sender, option.holder);\n            lockedAmount = lockedAmount.sub(option.lV);\n        }\n        \n        emit Exercise(oID);\n        if (rewEn) {\n            pClaims[msg.sender] = pClaims[msg.sender].add(getBetSizeBonus(option.lV, reward));\n        }\n    }\n\n     /**\n     * @notice expires a option\n     * @param oID id of the option to expire\n     */\n    function expire(uint256 oID)\n        external\n    {\n        Option memory option = options[oID];\n        require(block.timestamp > option.exp, \"expiration date has not passed\");\n\n\n        if (option.aPA != address(this)) {\n            //ERC20 option\n            IEBOP20 alt = IEBOP20(option.aPA);\n            require(alt.unlockAndPayExpirer(option.lV,option.pV, msg.sender), \"erc20 pool exercise failed\");\n        } else {\n            //ETH option\n            unlock(option.lV, msg.sender);\n            lockedAmount = lockedAmount.sub(option.lV);\n        }\n        emit Expire(oID);\n        if (rewEn) {\n            pClaims[msg.sender] = pClaims[msg.sender].add(getBetSizeBonus(option.pV, reward));\n        }\n    }\n\n    /**\n    @dev called by BinaryOptions contract to lock pool value coresponding to new binary options bought. \n    @param amount amount in ETH to lock from the pool total.\n    */\n    function lock(uint256 amount) internal {\n        lockedAmount = lockedAmount.add(amount);\n    }\n\n    /**\n    @dev called by BinaryOptions contract to unlock pool value coresponding to an option expiring otm. \n    @param amount amount in ETH to unlock\n    @param goodSamaritan the user paying to unlock these funds, they recieve a fee\n    */\n    function unlock(uint256 amount, address payable goodSamaritan) internal {\n        require(amount <= lockedAmount, \"insufficent locked pool balance to unlock\");\n        uint256 fee;\n        if (amount <= 10000000000000000) {//small options give bigger fee %\n            fee = amount.div(exerciserFee.mul(4)).div(100);\n        } else {\n            fee = amount.div(exerciserFee).div(100);\n        } \n        if (fee > 0) {\n            require(goodSamaritan.send(fee), \"good samaritan transfer failed\");\n        }\n    }\n\n    /**\n    @dev called by BinaryOptions contract to payout pool value coresponding to binary options expiring itm. \n    @param amount amount in ETH to unlock\n    @param exerciser address calling the exercise/expire function, this may the winner or another user who then earns a fee.\n    @param winner address of the winner.\n    @notice exerciser fees are subject to change see updateFeePercent above.\n    */\n    function payout(uint256 amount, address payable exerciser, address payable winner) internal {\n        require(amount <= lockedAmount, \"insufficent pool balance available to payout\");\n        require(amount <= address(this).balance, \"insufficent balance in pool\");\n        if (exerciser != winner) {\n            //good samaratin fee\n            uint256 fee;\n            if (amount <= 10000000000000000) {//small options give bigger fee %\n                fee = amount.div(exerciserFee.mul(4)).div(100);\n            } else {\n                fee = amount.div(exerciserFee).div(100);\n            } \n            if (fee > 0) {\n                require(exerciser.send(fee), \"exerciser transfer failed\");\n                require(winner.send(amount.sub(fee)), \"winner transfer failed\");\n            }\n        } else {  \n            require(winner.send(amount), \"winner transfer failed\");\n        }\n        emit Payout(amount, winner);\n    }\n\n}",
  "sourcePath": "/Users/x/Desktop/eth/BIOPv3/contracts/BinaryOptions.sol",
  "compiler": {
    "name": "solc",
    "version": "0.6.6+commit.6c089d02.Emscripten.clang"
  },
  "schemaVersion": "3.2.5",
  "updatedAt": "2021-02-04T07:06:41.309Z",
  "networkType": "ethereum",
  "devdoc": {
    "author": "github.com/BIOPset",
    "details": "Pool ETH Tokens and use it for optionss Biop",
    "methods": {
      "addAltPool(address)": {
        "details": "add a pool",
        "params": {
          "newPool_": "the address EBOP20 pool to add"
        }
      },
      "addPP(address,address)": {
        "details": "add or update a price provider to the ePairs list.",
        "params": {
          "newPP_": "the address of the AggregatorProxy price provider contract address to add.",
          "rateCalc_": "the address of the RateCalc to use with this trading pair."
        }
      },
      "allowance(address,address)": {
        "details": "See {IERC20-allowance}."
      },
      "approve(address,uint256)": {
        "details": "See {IERC20-approve}.     * Requirements:     * - `spender` cannot be the zero address."
      },
      "balanceOf(address)": {
        "details": "See {IERC20-balanceOf}."
      },
      "bet(bool,address,uint256)": {
        "details": "Open a new call or put options.",
        "params": {
          "k_": "type of option to buy (true for call )",
          "pp_": "the address of the price provider to use (must be in the list of ePairs)",
          "t_": "the time until your options expiration (must be minT < t_ > maxT)"
        }
      },
      "bet20(bool,address,uint256,address,uint256)": {
        "details": "Open a new call or put options with a ERC20 pool.",
        "params": {
          "a_": "bet amount. ",
          "k_": "type of option to buy (true for call)",
          "pa_": "address of alt pool",
          "pp_": "the address of the price provider to use (must be in the list of ePairs)",
          "t_": "the time until your options expiration (must be minT < t_ > maxT)"
        }
      },
      "claimRewards()": {
        "details": "distribute pending governance token claims to user"
      },
      "closeStaking()": {
        "details": "used to send this pool into EOL mode when a newer one is open"
      },
      "decimals()": {
        "details": "Returns the number of decimals used to get its user representation. For example, if `decimals` equals `2`, a balance of `505` tokens should be displayed to a user as `5,05` (`505 / 10 ** 2`).     * Tokens usually opt for a value of 18, imitating the relationship between Ether and Wei. This is the value {ERC20} uses, unless {_setupDecimals} is called.     * NOTE: This information is only used for _display_ purposes: it in no way affects any of the arithmetic of the contract, including {IERC20-balanceOf} and {IERC20-transfer}."
      },
      "decreaseAllowance(address,uint256)": {
        "details": "Atomically decreases the allowance granted to `spender` by the caller.     * This is an alternative to {approve} that can be used as a mitigation for problems described in {IERC20-approve}.     * Emits an {Approval} event indicating the updated allowance.     * Requirements:     * - `spender` cannot be the zero address. - `spender` must have allowance for the caller of at least `subtractedValue`."
      },
      "defaultPriceProvider()": {
        "details": "the default price provider. This is a convenience method"
      },
      "enableRewards(bool)": {
        "details": "enable or disable BIOP rewards",
        "params": {
          "nx_": "the new position for the rewEn switch"
        }
      },
      "exercise(uint256)": {
        "params": {
          "oID": "id of the option to exercise"
        }
      },
      "expire(uint256)": {
        "params": {
          "oID": "id of the option to expire"
        }
      },
      "getRate(address,uint256,uint256,int256,uint256,bool)": {
        "details": "helper for getting rate",
        "params": {
          "deposit": "bet amount",
          "k": "direction bool, true is call",
          "max": "max pool available",
          "pair": "the price provider",
          "t": "time"
        },
        "returns": {
          "_0": "the rate"
        }
      },
      "increaseAllowance(address,uint256)": {
        "details": "Atomically increases the allowance granted to `spender` by the caller.     * This is an alternative to {approve} that can be used as a mitigation for problems described in {IERC20-approve}.     * Emits an {Approval} event indicating the updated allowance.     * Requirements:     * - `spender` cannot be the zero address."
      },
      "name()": {
        "details": "Returns the name of the token."
      },
      "removeAltPool(address)": {
        "details": "remove a pool",
        "params": {
          "oldPool_": "the address EBOP20 pool to remove"
        }
      },
      "removePP(address)": {
        "details": "remove a price provider from the ePairs list",
        "params": {
          "oldPP_": "the address of the AggregatorProxy price provider contract address to remove."
        }
      },
      "setMaxT(uint256)": {
        "details": "update the max time for option bets",
        "params": {
          "newMax_": "the new maximum time (in seconds) an option may be created for (inclusive)."
        }
      },
      "setMinT(uint256)": {
        "details": "update the max time for option bets",
        "params": {
          "newMin_": "the new minimum time (in seconds) an option may be created for (inclusive)."
        }
      },
      "stake()": {
        "details": "send ETH to the pool. Recieve pETH token representing your claim. If rewards are available recieve BIOP governance tokens as well."
      },
      "symbol()": {
        "details": "Returns the symbol of the token, usually a shorter version of the name."
      },
      "thisAddress()": {
        "details": "address of this contract, convenience method"
      },
      "totalSupply()": {
        "details": "See {IERC20-totalSupply}."
      },
      "transfer(address,uint256)": {
        "details": "See {IERC20-transfer}.     * Requirements:     * - `recipient` cannot be the zero address. - the caller must have a balance of at least `amount`."
      },
      "transferDevFund(address)": {
        "details": "used to transfer devfund ",
        "params": {
          "newDevFund": "the address of governance contract which takes over control"
        }
      },
      "transferFrom(address,address,uint256)": {
        "details": "See {IERC20-transferFrom}.     * Emits an {Approval} event indicating the updated allowance. This is not required by the EIP. See the note at the beginning of {ERC20}.     * Requirements:     * - `sender` and `recipient` cannot be the zero address. - `sender` must have a balance of at least `amount`. - the caller must have allowance for ``sender``'s tokens of at least `amount`."
      },
      "transferOwner(address)": {
        "details": "used to transfer ownership",
        "params": {
          "newOwner_": "the address of governance contract which takes over control"
        }
      },
      "updateDevFundBetFee(uint256)": {
        "details": "set the fee users pay to buy an option",
        "params": {
          "devFundBetFee_": "the new fee (in tenth percent) to buy an option"
        }
      },
      "updateExerciserFee(uint256)": {
        "details": "set the fee users can recieve for exercising other users options",
        "params": {
          "exerciserFee_": "the new fee (in tenth percent) for exercising a options itm"
        }
      },
      "updateExpirerFee(uint256)": {
        "details": "set the fee users can recieve for expiring other users options",
        "params": {
          "expirerFee_": "the new fee (in tenth percent) for expiring a options"
        }
      },
      "updatePoolLockSeconds(uint256)": {
        "details": "update the pool stake lock up time.",
        "params": {
          "newLockSeconds_": "the new lock time, in seconds"
        }
      },
      "withdraw(uint256)": {
        "details": "recieve ETH from the pool.  If the current time is before your next available withdraw a 1% fee will be applied.",
        "params": {
          "amount": "The amount of pETH to send the pool."
        }
      }
    },
    "title": "Binary Options Eth Pool"
  },
  "userdoc": {
    "methods": {
      "exercise(uint256)": {
        "notice": "exercises a option"
      },
      "expire(uint256)": {
        "notice": "expires a option"
      }
    }
  }
}