{
  "contractName": "BIOPTokenV3",
  "abi": [
    {
      "inputs": [
        {
          "internalType": "string",
          "name": "name_",
          "type": "string"
        },
        {
          "internalType": "string",
          "name": "symbol_",
          "type": "string"
        },
        {
          "internalType": "address",
          "name": "v2_",
          "type": "address"
        },
        {
          "internalType": "uint32",
          "name": "_reserveRatio",
          "type": "uint32"
        }
      ],
      "stateMutability": "nonpayable",
      "type": "constructor"
    },
    {
      "anonymous": false,
      "inputs": [
        {
          "indexed": true,
          "internalType": "address",
          "name": "owner",
          "type": "address"
        },
        {
          "indexed": true,
          "internalType": "address",
          "name": "spender",
          "type": "address"
        },
        {
          "indexed": false,
          "internalType": "uint256",
          "name": "value",
          "type": "uint256"
        }
      ],
      "name": "Approval",
      "type": "event"
    },
    {
      "anonymous": false,
      "inputs": [
        {
          "indexed": true,
          "internalType": "address",
          "name": "from",
          "type": "address"
        },
        {
          "indexed": true,
          "internalType": "address",
          "name": "to",
          "type": "address"
        },
        {
          "indexed": false,
          "internalType": "uint256",
          "name": "value",
          "type": "uint256"
        }
      ],
      "name": "Transfer",
      "type": "event"
    },
    {
      "inputs": [
        {
          "internalType": "address",
          "name": "owner",
          "type": "address"
        },
        {
          "internalType": "address",
          "name": "spender",
          "type": "address"
        }
      ],
      "name": "allowance",
      "outputs": [
        {
          "internalType": "uint256",
          "name": "",
          "type": "uint256"
        }
      ],
      "stateMutability": "view",
      "type": "function",
      "constant": true
    },
    {
      "inputs": [
        {
          "internalType": "address",
          "name": "spender",
          "type": "address"
        },
        {
          "internalType": "uint256",
          "name": "amount",
          "type": "uint256"
        }
      ],
      "name": "approve",
      "outputs": [
        {
          "internalType": "bool",
          "name": "",
          "type": "bool"
        }
      ],
      "stateMutability": "nonpayable",
      "type": "function"
    },
    {
      "inputs": [],
      "name": "bO",
      "outputs": [
        {
          "internalType": "address",
          "name": "",
          "type": "address"
        }
      ],
      "stateMutability": "view",
      "type": "function",
      "constant": true
    },
    {
      "inputs": [
        {
          "internalType": "address",
          "name": "account",
          "type": "address"
        }
      ],
      "name": "balanceOf",
      "outputs": [
        {
          "internalType": "uint256",
          "name": "",
          "type": "uint256"
        }
      ],
      "stateMutability": "view",
      "type": "function",
      "constant": true
    },
    {
      "inputs": [],
      "name": "binaryOptionsSet",
      "outputs": [
        {
          "internalType": "bool",
          "name": "",
          "type": "bool"
        }
      ],
      "stateMutability": "view",
      "type": "function",
      "constant": true
    },
    {
      "inputs": [],
      "name": "buyFee",
      "outputs": [
        {
          "internalType": "uint256",
          "name": "",
          "type": "uint256"
        }
      ],
      "stateMutability": "view",
      "type": "function",
      "constant": true
    },
    {
      "inputs": [
        {
          "internalType": "uint256",
          "name": "_supply",
          "type": "uint256"
        },
        {
          "internalType": "uint256",
          "name": "_reserveBalance",
          "type": "uint256"
        },
        {
          "internalType": "uint32",
          "name": "_reserveRatio",
          "type": "uint32"
        },
        {
          "internalType": "uint256",
          "name": "_depositAmount",
          "type": "uint256"
        }
      ],
      "name": "calculatePurchaseReturn",
      "outputs": [
        {
          "internalType": "uint256",
          "name": "",
          "type": "uint256"
        }
      ],
      "stateMutability": "view",
      "type": "function",
      "constant": true
    },
    {
      "inputs": [
        {
          "internalType": "uint256",
          "name": "_supply",
          "type": "uint256"
        },
        {
          "internalType": "uint256",
          "name": "_reserveBalance",
          "type": "uint256"
        },
        {
          "internalType": "uint32",
          "name": "_reserveRatio",
          "type": "uint32"
        },
        {
          "internalType": "uint256",
          "name": "_sellAmount",
          "type": "uint256"
        }
      ],
      "name": "calculateSaleReturn",
      "outputs": [
        {
          "internalType": "uint256",
          "name": "",
          "type": "uint256"
        }
      ],
      "stateMutability": "view",
      "type": "function",
      "constant": true
    },
    {
      "inputs": [],
      "name": "decimals",
      "outputs": [
        {
          "internalType": "uint8",
          "name": "",
          "type": "uint8"
        }
      ],
      "stateMutability": "view",
      "type": "function",
      "constant": true
    },
    {
      "inputs": [
        {
          "internalType": "address",
          "name": "spender",
          "type": "address"
        },
        {
          "internalType": "uint256",
          "name": "subtractedValue",
          "type": "uint256"
        }
      ],
      "name": "decreaseAllowance",
      "outputs": [
        {
          "internalType": "bool",
          "name": "",
          "type": "bool"
        }
      ],
      "stateMutability": "nonpayable",
      "type": "function"
    },
    {
      "inputs": [
        {
          "internalType": "uint256",
          "name": "_continuousTokenAmount",
          "type": "uint256"
        }
      ],
      "name": "getContinuousBurnRefund",
      "outputs": [
        {
          "internalType": "uint256",
          "name": "",
          "type": "uint256"
        }
      ],
      "stateMutability": "view",
      "type": "function",
      "constant": true
    },
    {
      "inputs": [
        {
          "internalType": "uint256",
          "name": "_reserveTokenAmount",
          "type": "uint256"
        }
      ],
      "name": "getContinuousMintReward",
      "outputs": [
        {
          "internalType": "uint256",
          "name": "",
          "type": "uint256"
        }
      ],
      "stateMutability": "view",
      "type": "function",
      "constant": true
    },
    {
      "inputs": [
        {
          "internalType": "address",
          "name": "spender",
          "type": "address"
        },
        {
          "internalType": "uint256",
          "name": "addedValue",
          "type": "uint256"
        }
      ],
      "name": "increaseAllowance",
      "outputs": [
        {
          "internalType": "bool",
          "name": "",
          "type": "bool"
        }
      ],
      "stateMutability": "nonpayable",
      "type": "function"
    },
    {
      "inputs": [],
      "name": "name",
      "outputs": [
        {
          "internalType": "string",
          "name": "",
          "type": "string"
        }
      ],
      "stateMutability": "view",
      "type": "function",
      "constant": true
    },
    {
      "inputs": [],
      "name": "reserveRatio",
      "outputs": [
        {
          "internalType": "uint32",
          "name": "",
          "type": "uint32"
        }
      ],
      "stateMutability": "view",
      "type": "function",
      "constant": true
    },
    {
      "inputs": [],
      "name": "sellFee",
      "outputs": [
        {
          "internalType": "uint256",
          "name": "",
          "type": "uint256"
        }
      ],
      "stateMutability": "view",
      "type": "function",
      "constant": true
    },
    {
      "inputs": [],
      "name": "soldAmount",
      "outputs": [
        {
          "internalType": "uint256",
          "name": "",
          "type": "uint256"
        }
      ],
      "stateMutability": "view",
      "type": "function",
      "constant": true
    },
    {
      "inputs": [],
      "name": "symbol",
      "outputs": [
        {
          "internalType": "string",
          "name": "",
          "type": "string"
        }
      ],
      "stateMutability": "view",
      "type": "function",
      "constant": true
    },
    {
      "inputs": [],
      "name": "tCA",
      "outputs": [
        {
          "internalType": "uint256",
          "name": "",
          "type": "uint256"
        }
      ],
      "stateMutability": "view",
      "type": "function",
      "constant": true
    },
    {
      "inputs": [],
      "name": "tbca",
      "outputs": [
        {
          "internalType": "uint256",
          "name": "",
          "type": "uint256"
        }
      ],
      "stateMutability": "view",
      "type": "function",
      "constant": true
    },
    {
      "inputs": [],
      "name": "totalSupply",
      "outputs": [
        {
          "internalType": "uint256",
          "name": "",
          "type": "uint256"
        }
      ],
      "stateMutability": "view",
      "type": "function",
      "constant": true
    },
    {
      "inputs": [
        {
          "internalType": "address",
          "name": "recipient",
          "type": "address"
        },
        {
          "internalType": "uint256",
          "name": "amount",
          "type": "uint256"
        }
      ],
      "name": "transfer",
      "outputs": [
        {
          "internalType": "bool",
          "name": "",
          "type": "bool"
        }
      ],
      "stateMutability": "nonpayable",
      "type": "function"
    },
    {
      "inputs": [
        {
          "internalType": "address",
          "name": "sender",
          "type": "address"
        },
        {
          "internalType": "address",
          "name": "recipient",
          "type": "address"
        },
        {
          "internalType": "uint256",
          "name": "amount",
          "type": "uint256"
        }
      ],
      "name": "transferFrom",
      "outputs": [
        {
          "internalType": "bool",
          "name": "",
          "type": "bool"
        }
      ],
      "stateMutability": "nonpayable",
      "type": "function"
    },
    {
      "inputs": [],
      "name": "v2",
      "outputs": [
        {
          "internalType": "address",
          "name": "",
          "type": "address"
        }
      ],
      "stateMutability": "view",
      "type": "function",
      "constant": true
    },
    {
      "inputs": [],
      "name": "version",
      "outputs": [
        {
          "internalType": "string",
          "name": "",
          "type": "string"
        }
      ],
      "stateMutability": "view",
      "type": "function",
      "constant": true
    },
    {
      "inputs": [
        {
          "internalType": "address payable",
          "name": "g_",
          "type": "address"
        }
      ],
      "name": "transferGovernance",
      "outputs": [],
      "stateMutability": "nonpayable",
      "type": "function"
    },
    {
      "inputs": [
        {
          "internalType": "uint256",
          "name": "newFee_",
          "type": "uint256"
        }
      ],
      "name": "updateBuyFee",
      "outputs": [],
      "stateMutability": "nonpayable",
      "type": "function"
    },
    {
      "inputs": [
        {
          "internalType": "uint256",
          "name": "newFee_",
          "type": "uint256"
        }
      ],
      "name": "updateSellFee",
      "outputs": [],
      "stateMutability": "nonpayable",
      "type": "function"
    },
    {
      "inputs": [
        {
          "internalType": "uint256",
          "name": "amount",
          "type": "uint256"
        }
      ],
      "name": "updateEarlyClaim",
      "outputs": [],
      "stateMutability": "nonpayable",
      "type": "function"
    },
    {
      "inputs": [
        {
          "internalType": "address payable",
          "name": "options_",
          "type": "address"
        }
      ],
      "name": "setupBinaryOptions",
      "outputs": [],
      "stateMutability": "nonpayable",
      "type": "function"
    },
    {
      "inputs": [],
      "name": "swapv2v3",
      "outputs": [],
      "stateMutability": "nonpayable",
      "type": "function"
    },
    {
      "inputs": [],
      "name": "continuousSupply",
      "outputs": [
        {
          "internalType": "uint256",
          "name": "",
          "type": "uint256"
        }
      ],
      "stateMutability": "view",
      "type": "function",
      "constant": true
    },
    {
      "inputs": [],
      "name": "reserveBalance",
      "outputs": [
        {
          "internalType": "uint256",
          "name": "",
          "type": "uint256"
        }
      ],
      "stateMutability": "view",
      "type": "function",
      "constant": true
    },
    {
      "inputs": [],
      "name": "buy",
      "outputs": [],
      "stateMutability": "payable",
      "type": "function",
      "payable": true
    },
    {
      "inputs": [
        {
          "internalType": "uint256",
          "name": "amount",
          "type": "uint256"
        }
      ],
      "name": "sell",
      "outputs": [
        {
          "internalType": "uint256",
          "name": "",
          "type": "uint256"
        }
      ],
      "stateMutability": "nonpayable",
      "type": "function"
    }
  ],
  "bytecode": "0x60c06040526003608081905262302e3360e81b60a090815262000026916000919062000b81565b5060878054610100600160a81b0319169055608880546001600160a01b03191690556c097761759c34d7b26fb0000000608c556c050c783eb9b5c85f2a80000000608d55608e805460ff191690556000608f81905560026090556091553480156200009057600080fd5b5060405162003b1838038062003b1883398181016040526080811015620000b657600080fd5b8101908080516040519392919084640100000000821115620000d757600080fd5b908301906020820185811115620000ed57600080fd5b82516401000000008111828201881017156200010857600080fd5b82525081516020918201929091019080838360005b83811015620001375781810151838201526020016200011d565b50505050905090810190601f168015620001655780820380516001836020036101000a031916815260200191505b50604052602001805160405193929190846401000000008211156200018957600080fd5b9083019060208201858111156200019f57600080fd5b8251640100000000811182820188101715620001ba57600080fd5b82525081516020918201929091019080838360005b83811015620001e9578181015183820152602001620001cf565b50505050905090810190601f168015620002175780820380516001836020036101000a031916815260200191505b506040908152602082810151928201516001641c35fedd1560601b036021556001646c3390ecc9605e1b036022556001640cf801476160611b0360235560016431bdb23e1d605f1b0360245560016502fb1d8fe083605b1b0360255560016505b771955b37605a1b036026556001650af67a93bb5160591b0360275560016515060c256cb360581b036028556001651428a2f98d7360581b036029556001654d515663970960561b03602a55600165944620b0e70f60551b03602b55600166011c592761c66760541b03602c5560016602214d10d014eb60531b03602d55600166020ade36b7dbef60531b03602e5560016603eab73b3bbfe360521b03602f556001660782ee3593f6d760511b036030556001661ccf4b44bb4821604f1b0360315560016606e7f88ad8a77760511b0360325560016669f3d1c921891d604d1b03603355600166cb2ff529eb71e5604c1b03603455600166c2d415c3db974b604c1b0360355560016702eb40f9f620fda7604a1b0360365560016705990681d961a1eb60491b03603755600167055e12902701414760491b0360385560016714962dee9dc9764160471b0360395560016704ef57b9b560fab560491b03603a5560016712ed7b32a58f552b60471b03603b556001679131271922eaa60760441b03603c556001678b380f3558668c4760441b03603d556001680215f77c045fbe885760421b03603e556001600160831b03603f556001670f577eded5773a1160471b039092556001680eb5ec597592befbf5603f1b036041556001681c35fedd14b861eb05603e1b036042556001683619c87664579bc94b603d1b0360435560016867c00a3b07ffc01fd7603c1b03604455600168c6f6c8f8739773a7a5603b1b03604555600168bec763f8209b7a72b1603b1b0360465560016902dbb8caad9b7097b91b60391b03604755600169057b3d49dda84556d6f760381b03604855600169054183095b2c8ececf3160381b036049556001690a14517cc6b9457111ef60371b03604a5560016913545598e5c23276ccf160361b03604b556001692511882c39c3adea96ff60351b03604c55600169471649d87199aa99075760341b03604d557004429a21a029d4c1457cfbffffffffffff604e55700415bc6d6fb7dd71af2cb3ffffffffffff604f557003eab73b3bbfe282243ce1ffffffffffff6050557003c1771ac9fb6b4c18e229ffffffffffff605155700399e96897690418f785257fffffffffff605255700373fc456c53bb779bf0ea9fffffffffff60535570034f9e8e490c48e67e6ab8bfffffffffff60545570032cbfd4a7adc790560b3337ffffffffff60555570030b50570f6e5d2acca94613ffffffffff6056557002eb40f9f620fda6b56c2861ffffffffff6057557002cc8340ecb0d0f520a6af58ffffffffff6058557002af09481380a0a35cf1ba02ffffffffff605955700292c5bdd3b92ec810287b1b3fffffffff605a55700277abdcdab07d5a77ac6d6b9fffffffff605b5570025daf6654b1eaa55fd64df5efffffffff605c55700244c49c648baa98192dce88b7ffffffff605d5570022ce03cd5619a311b2471268bffffffff605e55700215f77c045fbe885654a44a0fffffffff605f556001600160811b036060557001eaefdbdaaee7421fc4d3ede5ffffffff6061557001d6bd8b2eb257df7e8ca57b09bfffffff6062557001c35fedd14b861eb0443f7f133fffffff6063557001b0ce43b322bcde4a56e8ada5afffffff60645570019f0028ec1fff007f5a195a39dfffffff60655570018ded91f0e72ee74f49b15ba527ffffff60665570017d8ec7f04136f4e5615fd41a63ffffff60675570016ddc6556cdb84bdc8d12d22e6fffffff60685570015ecf52776a1155b5bd8395814f7fffff60695570015060c256cb23b3b3cc3754cf40ffffff606a557001428a2f98d728ae223ddab715be3fffff606b5570013545598e5c23276ccf0ede68034fffff606c557001288c4161ce1d6f54b7f61081194fffff606d5570011c592761c666aa641d5a01a40f17ffff606e55700110a688680a7530515f3e6e6cfdcdffff606f557001056f1b5bedf75c6bcb2ce8aed428ffff6070556ffaadceceeff8a0890f3875f008277fff6071556ff05dc6b27edad306388a600f6ba0bfff6072556fe67a5a25da41063de1495d5b18cdbfff6073556fdcff115b14eedde6fc3aa5353f2e4fff6074556fd3e7a3924312399f9aae2e0f868f8fff6075556fcb2ff529eb71e41582cccd5a1ee26fff6076556fc2d415c3db974ab32a51840c0b67edff6077556fbad03e7d883f69ad5b0a186184e06bff6078556fb320d03b2c343d4829abd6075f0cc5ff6079556fabc25204e02828d73c6e80bcdb1a95bf607a556fa4b16f74ee4bb2040a1ec6c15fbbf2df607b556f9deaf736ac1f569deb1b5ae3f36c130f607c556f976bd9952c7aa957f5937d790ef65037607d556f9131271922eaa6064b73a22d0bd4f2bf607e556f8b380f3558668c46c91c49a2f8e967b9607f556f857ddf0117efa215952912839f6473e66080556081805463ffffffff191663ffffffff8416179055865192945090925085918591620009829160859185019062000b81565b5080516200099890608690602084019062000b81565b505060878054601260ff199091161790555060898054336001600160a01b03199182168117909255608a80549091166001600160a01b038516179055426203f48001608b55620009ec90620186a0620009fe565b5050620186a0608f555062000c269050565b6001600160a01b03821662000a5a576040805162461bcd60e51b815260206004820152601f60248201527f45524332303a206d696e7420746f20746865207a65726f206164647265737300604482015290519081900360640190fd5b62000a71600083836001600160e01b0362000b1a16565b62000a8d8160845462000b1f60201b62001bb11790919060201c565b6084556001600160a01b03821660009081526082602090815260409091205462000ac291839062001bb162000b1f821b17901c565b6001600160a01b03831660008181526082602090815260408083209490945583518581529351929391927fddf252ad1be2c89b69c2b068fc378daa952ba7f163c4a11628f55a4df523b3ef9281900390910190a35050565b505050565b60008282018381101562000b7a576040805162461bcd60e51b815260206004820152601b60248201527f536166654d6174683a206164646974696f6e206f766572666c6f770000000000604482015290519081900360640190fd5b9392505050565b828054600181600116156101000203166002900490600052602060002090601f016020900481019282601f1062000bc457805160ff191683800117855562000bf4565b8280016001018555821562000bf4579182015b8281111562000bf457825182559160200191906001019062000bd7565b5062000c0292915062000c06565b5090565b62000c2391905b8082111562000c02576000815560010162000c0d565b90565b612ee28062000c366000396000f3fe6080604052600436106102045760003560e01c80636c9ec78c11610118578063a9059cbb116100a0578063db943fa11161006f578063db943fa114610717578063dd62ed3e1461074a578063e4849b3214610785578063f3acae3a146107af578063fa1a5f59146107c457610204565b8063a9059cbb14610681578063c82f3828146106ba578063d38bfff4146106cf578063da12457a1461070257610204565b80637cbed3e0116100e75780637cbed3e0146105ec57806395d89b4114610616578063a10954fe1461062b578063a457c2d714610640578063a6f2ae3a1461067957610204565b80636c9ec78c1461054957806370a082311461055e578063750a7ea3146105915780637ca76c94146105bb57610204565b80632b14ca561161019b578063467abe0a1161016a578063467abe0a1461049e57806347062402146104c857806349f9b0f7146104dd57806354fd4d501461051f5780635e83612f1461053457610204565b80632b14ca56146104105780632d189a3f14610425578063313ce5671461043a578063395093511461046557610204565b806318160ddd116101d757806318160ddd1461034a5780631d933a4a1461035f57806323b872dd1461038b57806329a00e7c146103ce57610204565b806306fdde0314610209578063095ea7b3146102935780630c7d5cd8146102e05780630d8f9f7f1461030e575b600080fd5b34801561021557600080fd5b5061021e6107d9565b6040805160208082528351818301528351919283929083019185019080838360005b83811015610258578181015183820152602001610240565b50505050905090810190601f1680156102855780820380516001836020036101000a031916815260200191505b509250505060405180910390f35b34801561029f57600080fd5b506102cc600480360360408110156102b657600080fd5b506001600160a01b03813516906020013561086f565b604080519115158252519081900360200190f35b3480156102ec57600080fd5b506102f561088d565b6040805163ffffffff9092168252519081900360200190f35b34801561031a57600080fd5b506103386004803603602081101561033157600080fd5b5035610899565b60408051918252519081900360200190f35b34801561035657600080fd5b506103386108c5565b34801561036b57600080fd5b506103896004803603602081101561038257600080fd5b50356108cb565b005b34801561039757600080fd5b506102cc600480360360608110156103ae57600080fd5b506001600160a01b038135811691602081013590911690604001356109ce565b3480156103da57600080fd5b50610338600480360360808110156103f157600080fd5b5080359060208101359063ffffffff6040820135169060600135610a5b565b34801561041c57600080fd5b50610338610b7e565b34801561043157600080fd5b50610338610b84565b34801561044657600080fd5b5061044f610b8a565b6040805160ff9092168252519081900360200190f35b34801561047157600080fd5b506102cc6004803603604081101561048857600080fd5b506001600160a01b038135169060200135610b93565b3480156104aa57600080fd5b50610389600480360360208110156104c157600080fd5b5035610be7565b3480156104d457600080fd5b50610338610cea565b3480156104e957600080fd5b506103386004803603608081101561050057600080fd5b5080359060208101359063ffffffff6040820135169060600135610cf0565b34801561052b57600080fd5b5061021e610e1f565b34801561054057600080fd5b506102cc610ead565b34801561055557600080fd5b50610338610eb6565b34801561056a57600080fd5b506103386004803603602081101561058157600080fd5b50356001600160a01b0316610ebc565b34801561059d57600080fd5b50610389600480360360208110156105b457600080fd5b5035610ed7565b3480156105c757600080fd5b506105d0610fee565b604080516001600160a01b039092168252519081900360200190f35b3480156105f857600080fd5b506103386004803603602081101561060f57600080fd5b5035611002565b34801561062257600080fd5b5061021e611026565b34801561063757600080fd5b50610338611087565b34801561064c57600080fd5b506102cc6004803603604081101561066357600080fd5b506001600160a01b03813516906020013561108b565b6103896110f9565b34801561068d57600080fd5b506102cc600480360360408110156106a457600080fd5b506001600160a01b0381351690602001356112c6565b3480156106c657600080fd5b506103896112da565b3480156106db57600080fd5b50610389600480360360208110156106f257600080fd5b50356001600160a01b0316611429565b34801561070e57600080fd5b50610338611523565b34801561072357600080fd5b506103896004803603602081101561073a57600080fd5b50356001600160a01b0316611529565b34801561075657600080fd5b506103386004803603604081101561076d57600080fd5b506001600160a01b03813581169160200135166115bb565b34801561079157600080fd5b50610338600480360360208110156107a857600080fd5b50356115e6565b3480156107bb57600080fd5b506105d061180a565b3480156107d057600080fd5b50610338611819565b60858054604080516020601f60026000196101006001881615020190951694909404938401819004810282018101909252828152606093909290918301828280156108655780601f1061083a57610100808354040283529160200191610865565b820191906000526020600020905b81548152906001019060200180831161084857829003601f168201915b5050505050905090565b600061088361087c61181f565b8484611823565b5060015b92915050565b60815463ffffffff1681565b60006108bd6108a6611523565b6108ae611087565b60815463ffffffff1685610a5b565b90505b919050565b60845490565b6088546001600160a01b031661092d576089546001600160a01b03163314610928576040805162461bcd60e51b81526020600482018190526024820152600080516020612dfe833981519152604482015290519081900360640190fd5b61097a565b6088546001600160a01b0316331461097a576040805162461bcd60e51b81526020600482018190526024820152600080516020612dfe833981519152604482015290519081900360640190fd5b60008111801561098a5750602881105b6109c9576040805162461bcd60e51b815260206004820152600b60248201526a696e76616c69642066656560a81b604482015290519081900360640190fd5b609155565b60006109db84848461190f565b610a51846109e761181f565b610a4c85604051806060016040528060288152602001612dd6602891396001600160a01b038a16600090815260836020526040812090610a2561181f565b6001600160a01b03168152602081019190915260400160002054919063ffffffff611a7816565b611823565b5060019392505050565b60008085118015610a6c5750600084115b8015610a7e575060008363ffffffff16115b8015610a935750620f424063ffffffff841611155b610ad6576040805162461bcd60e51b815260206004820152600f60248201526e24b73b30b634b21034b7383aba399760891b604482015290519081900360640190fd5b81610ae357506000610b76565b63ffffffff8316620f42401415610b1b57610b1484610b08878563ffffffff611b0f16565b9063ffffffff611b6f16565b9050610b76565b60008080610b2f858863ffffffff611bb116565b9050610b40818888620f4240611c0b565b9093509150600060ff8316610b5b8a8663ffffffff611b0f16565b901c9050610b6f818a63ffffffff611d7a16565b9450505050505b949350505050565b60915481565b608d5481565b60875460ff1690565b6000610883610ba061181f565b84610a4c8560836000610bb161181f565b6001600160a01b03908116825260208083019390935260409182016000908120918c16815292529020549063ffffffff611bb116565b6088546001600160a01b0316610c49576089546001600160a01b03163314610c44576040805162461bcd60e51b81526020600482018190526024820152600080516020612dfe833981519152604482015290519081900360640190fd5b610c96565b6088546001600160a01b03163314610c96576040805162461bcd60e51b81526020600482018190526024820152600080516020612dfe833981519152604482015290519081900360640190fd5b600081118015610ca65750602881105b610ce5576040805162461bcd60e51b815260206004820152600b60248201526a696e76616c69642066656560a81b604482015290519081900360640190fd5b609055565b60905481565b60008085118015610d015750600084115b8015610d13575060008363ffffffff16115b8015610d285750620f424063ffffffff841611155b8015610d345750848211155b610d77576040805162461bcd60e51b815260206004820152600f60248201526e24b73b30b634b21034b7383aba399760891b604482015290519081900360640190fd5b81610d8457506000610b76565b84821415610d93575082610b76565b63ffffffff8316620f42401415610db857610b1485610b08868563ffffffff611b0f16565b60008080610dcc888663ffffffff611d7a16565b9050610ddd8882620f424089611c0b565b90935091506000610df4888563ffffffff611b0f16565b905060ff831688901b610e1185610b08848463ffffffff611d7a16565b9a9950505050505050505050565b6000805460408051602060026001851615610100026000190190941693909304601f81018490048402820184019092528181529291830182828015610ea55780601f10610e7a57610100808354040283529160200191610ea5565b820191906000526020600020905b815481529060010190602001808311610e8857829003601f168201915b505050505081565b608e5460ff1681565b608c5481565b6001600160a01b031660009081526082602052604090205490565b60875461010090046001600160a01b03163314610f255760405162461bcd60e51b8152600401808060200182810382526032815260200180612d836032913960400191505060405180910390fd5b608c54600090610f3b908363ffffffff611d7a16565b1015610f8e576040805162461bcd60e51b815260206004820152601c60248201527f696e737566666963656e7420636c61696d7320617661696c61626c6500000000604482015290519081900360640190fd5b42608b541015610fcd57608c54610fab908263ffffffff611d7a16565b608c55610fc832610fc383600463ffffffff611b0f16565b611dbc565b610feb565b608c54610fe0908263ffffffff611d7a16565b50610feb3282611dbc565b50565b60875461010090046001600160a01b031681565b60006108bd61100f611523565b611017611087565b60815463ffffffff1685610cf0565b60868054604080516020601f60026000196101006001881615020190951694909404938401819004810282018101909252828152606093909290918301828280156108655780601f1061083a57610100808354040283529160200191610865565b4790565b600061088361109861181f565b84610a4c85604051806060016040528060258152602001612e8860259139608360006110c261181f565b6001600160a01b03908116825260208083019390935260409182016000908120918d1681529252902054919063ffffffff611a7816565b60905434901561123357600061111f6064610b0860905485611b6f90919063ffffffff16565b6088549091506001600160a01b03166111ab576089546040516001600160a01b039091169082156108fc029083906000818181858888f193505050506111a6576040805162461bcd60e51b8152602060048201526017602482015276189d5e48199959481d1c985b9cd9995c8819985a5b1959604a1b604482015290519081900360640190fd5b61121f565b6088546040516001600160a01b039091169082156108fc029083906000818181858888f1935050505061121f576040805162461bcd60e51b8152602060048201526017602482015276189d5e48199959481d1c985b9cd9995c8819985a5b1959604a1b604482015290519081900360640190fd5b61122f828263ffffffff611d7a16565b9150505b600061123e82610899565b9050608d5461125882608f54611bb190919063ffffffff16565b11156112a2576040805162461bcd60e51b81526020600482015260146024820152731b585e1a5b5d5b4818dd5c9d99481b5a5b9d195960621b604482015290519081900360640190fd5b6112ac3382611dbc565b608f546112bf908263ffffffff611bb116565b608f555050565b60006108836112d361181f565b848461190f565b608a54604080516370a0823160e01b815233600482015290516001600160a01b039092169160009183916370a0823191602480820192602092909190829003018186803b15801561132a57600080fd5b505afa15801561133e573d6000803e3d6000fd5b505050506040513d602081101561135457600080fd5b50519050604080516323b872dd60e01b81523360048201523060248201526044810183905290516001600160a01b038416916323b872dd9160648083019260209291908290030181600087803b1580156113ad57600080fd5b505af11580156113c1573d6000803e3d6000fd5b505050506040513d60208110156113d757600080fd5b505161141b576040805162461bcd60e51b815260206004820152600e60248201526d1cdd185ada5b99c819985a5b195960921b604482015290519081900360640190fd5b6114253382611dbc565b5050565b6088546001600160a01b031661148b576089546001600160a01b03163314611486576040805162461bcd60e51b81526020600482018190526024820152600080516020612dfe833981519152604482015290519081900360640190fd5b6114d8565b6088546001600160a01b031633146114d8576040805162461bcd60e51b81526020600482018190526024820152600080516020612dfe833981519152604482015290519081900360640190fd5b6088546001600160a01b0316156114ee57600080fd5b6001600160a01b03811661150157600080fd5b608880546001600160a01b0319166001600160a01b0392909216919091179055565b608f5490565b608e5460ff16151560011415611586576040805162461bcd60e51b815260206004820152601d60248201527f62696e617279206f7074696f6e7320697320616c726561647920736574000000604482015290519081900360640190fd5b608780546001600160a01b0390921661010002610100600160a81b0319909216919091179055608e805460ff19166001179055565b6001600160a01b03918216600090815260836020908152604080832093909416825291909152205490565b6000816115f233610ebc565b1015611645576040805162461bcd60e51b815260206004820152601860248201527f696e737566666963656e742042494f502062616c616e63650000000000000000604482015290519081900360640190fd5b600061165083611002565b6091549091501561178b5760006116776064610b0860905485611b6f90919063ffffffff16565b6088549091506001600160a01b0316611703576089546040516001600160a01b039091169082156108fc029083906000818181858888f193505050506116fe576040805162461bcd60e51b8152602060048201526017602482015276189d5e48199959481d1c985b9cd9995c8819985a5b1959604a1b604482015290519081900360640190fd5b611777565b6088546040516001600160a01b039091169082156108fc029083906000818181858888f19350505050611777576040805162461bcd60e51b8152602060048201526017602482015276189d5e48199959481d1c985b9cd9995c8819985a5b1959604a1b604482015290519081900360640190fd5b611787828263ffffffff611d7a16565b9150505b608f5461179e908463ffffffff611d7a16565b608f556117ab3384611eba565b604051339082156108fc029083906000818181858888f193505050506108bd576040805162461bcd60e51b815260206004820152600f60248201526e1d1c985b9cd9995c8819985a5b1959608a1b604482015290519081900360640190fd5b608a546001600160a01b031681565b608f5481565b3390565b6001600160a01b0383166118685760405162461bcd60e51b8152600401808060200182810382526024815260200180612e646024913960400191505060405180910390fd5b6001600160a01b0382166118ad5760405162461bcd60e51b8152600401808060200182810382526022815260200180612d3b6022913960400191505060405180910390fd5b6001600160a01b03808416600081815260836020908152604080832094871680845294825291829020859055815185815291517f8c5be1e5ebec7d5bd14f71427d1e84f3dd0314c0f7b2291e5b200ac8c7c3b9259281900390910190a3505050565b6001600160a01b0383166119545760405162461bcd60e51b8152600401808060200182810382526025815260200180612e3f6025913960400191505060405180910390fd5b6001600160a01b0382166119995760405162461bcd60e51b8152600401808060200182810382526023815260200180612cf66023913960400191505060405180910390fd5b6119a4838383611fc2565b6119e781604051806060016040528060268152602001612d5d602691396001600160a01b038616600090815260826020526040902054919063ffffffff611a7816565b6001600160a01b038085166000908152608260205260408082209390935590841681522054611a1c908263ffffffff611bb116565b6001600160a01b0380841660008181526082602090815260409182902094909455805185815290519193928716927fddf252ad1be2c89b69c2b068fc378daa952ba7f163c4a11628f55a4df523b3ef92918290030190a3505050565b60008184841115611b075760405162461bcd60e51b81526004018080602001828103825283818151815260200191508051906020019080838360005b83811015611acc578181015183820152602001611ab4565b50505050905090810190601f168015611af95780820380516001836020036101000a031916815260200191505b509250505060405180910390fd5b505050900390565b600082611b1e57506000610887565b82820282848281611b2b57fe5b0414611b685760405162461bcd60e51b8152600401808060200182810382526021815260200180612db56021913960400191505060405180910390fd5b9392505050565b6000611b6883836040518060400160405280601a81526020017f536166654d6174683a206469766973696f6e206279207a65726f000000000000815250611fc7565b600082820183811015611b68576040805162461bcd60e51b815260206004820152601b60248201527f536166654d6174683a206164646974696f6e206f766572666c6f770000000000604482015290519081900360640190fd5b600080600160811b8610611c66576040805162461bcd60e51b815260206004820152601860248201527f626173654e2065786365656473206d61782076616c75652e0000000000000000604482015290519081900360640190fd5b84861015611cbb576040805162461bcd60e51b815260206004820152601c60248201527f4261736573203c203120617265206e6f7420737570706f727465642e00000000604482015290519081900360640190fd5b600080866001607f1b890281611ccd57fe5b04905070015bf0a8b1457695355fb8ac404e7a79e3811015611cf957611cf28161202c565b9150611d05565b611d028161240e565b91505b60008563ffffffff168763ffffffff16840281611d1e57fe5b049050600160831b811015611d4457611d36816124be565b607f94509450505050611d71565b6000611d4f82612862565b9050611d6481607f0360ff1683901c826128f4565b95509350611d7192505050565b94509492505050565b6000611b6883836040518060400160405280601e81526020017f536166654d6174683a207375627472616374696f6e206f766572666c6f770000815250611a78565b6001600160a01b038216611e17576040805162461bcd60e51b815260206004820152601f60248201527f45524332303a206d696e7420746f20746865207a65726f206164647265737300604482015290519081900360640190fd5b611e2360008383611fc2565b608454611e36908263ffffffff611bb116565b6084556001600160a01b038216600090815260826020526040902054611e62908263ffffffff611bb116565b6001600160a01b03831660008181526082602090815260408083209490945583518581529351929391927fddf252ad1be2c89b69c2b068fc378daa952ba7f163c4a11628f55a4df523b3ef9281900390910190a35050565b6001600160a01b038216611eff5760405162461bcd60e51b8152600401808060200182810382526021815260200180612e1e6021913960400191505060405180910390fd5b611f0b82600083611fc2565b611f4e81604051806060016040528060228152602001612d19602291396001600160a01b038516600090815260826020526040902054919063ffffffff611a7816565b6001600160a01b038316600090815260826020526040902055608454611f7a908263ffffffff611d7a16565b6084556040805182815290516000916001600160a01b038516917fddf252ad1be2c89b69c2b068fc378daa952ba7f163c4a11628f55a4df523b3ef9181900360200190a35050565b505050565b600081836120165760405162461bcd60e51b8152602060048201818152835160248401528351909283926044909101919085019080838360008315611acc578181015183820152602001611ab4565b50600083858161202257fe5b0495945050505050565b6000808080806fd3094c70f034de4b96ff7d5b6f99fcd88610612075576001607e1b840193506fd3094c70f034de4b96ff7d5b6f99fcd86001607f1b87028161207157fe5b0495505b6fa45af1e1f40c333b3de1db4dd55f29a786106120b8576001607d1b840193506fa45af1e1f40c333b3de1db4dd55f29a76001607f1b8702816120b457fe5b0495505b6f910b022db7ae67ce76b441c27035c6a186106120fb576001607c1b840193506f910b022db7ae67ce76b441c27035c6a16001607f1b8702816120f757fe5b0495505b6f88415abbe9a76bead8d00cf112e4d4a8861061213e576001607b1b840193506f88415abbe9a76bead8d00cf112e4d4a86001607f1b87028161213a57fe5b0495505b6f84102b00893f64c705e841d5d4064bd38610612181576001607a1b840193506f84102b00893f64c705e841d5d4064bd36001607f1b87028161217d57fe5b0495505b6f8204055aaef1c8bd5c3259f4822735a286106121c457600160791b840193506f8204055aaef1c8bd5c3259f4822735a26001607f1b8702816121c057fe5b0495505b6f810100ab00222d861931c15e39b44e99861061220757600160781b840193506f810100ab00222d861931c15e39b44e996001607f1b87028161220357fe5b0495505b6f808040155aabbbe9451521693554f733861061224a57600160771b840193506f808040155aabbbe9451521693554f7336001607f1b87028161224657fe5b0495505b6f7fffffffffffffffffffffffffffffff19860192508291506001607f1b828002049050600160801b838103830204840193506001607f1b8183028161228c57fe5b049150600160811b836faaaaaaaaaaaaaaaaaaaaaaaaaaaaaaaa038302816122b057fe5b04840193506001607f1b818302816122c457fe5b049150600360801b836f99999999999999999999999999999999038302816122e857fe5b04840193506001607f1b818302816122fc57fe5b049150600160821b836f924924924924924924924924924924920383028161232057fe5b04840193506001607f1b8183028161233457fe5b049150600560801b836f8e38e38e38e38e38e38e38e38e38e38e0383028161235857fe5b04840193506001607f1b8183028161236c57fe5b049150600360811b836f8ba2e8ba2e8ba2e8ba2e8ba2e8ba2e8b0383028161239057fe5b04840193506001607f1b818302816123a457fe5b049150600760801b836f89d89d89d89d89d89d89d89d89d89d89038302816123c857fe5b04840193506001607f1b818302816123dc57fe5b049150600160831b836f888888888888888888888888888888880383028161240057fe5b049390930195945050505050565b60008082600160801b811061244157600061242e6001607f1b8304612c91565b60ff166001607f1b810293509190911c90505b6001607f1b81111561249157607f5b60ff81161561248f576001607f1b828002049150600160801b821061248657600182901c91506001810360ff166001901b830192505b60001901612450565b505b6f05b9de1d10bf4103d647b0955897ba806f03f80fe03f80fe03f80fe03f80fe03f8830204949350505050565b6000670168244fdac780006001607f1b6f0fffffffffffffffffffffffffffffff84168080028290048082028390048083028490049485026710e1b3be415a00009092026705a0913f6b1e000091909102010192909181830204905080664807432bc1800002830192506001607f1b8282028161253757fe5b04905080660c0135dca0400002830192506001607f1b8282028161255757fe5b049050806601b707b1cdc00002830192506001607f1b8282028161257757fe5b049050806536e0f639b80002830192506001607f1b8282028161259657fe5b04905080650618fee9f80002830192506001607f1b828202816125b557fe5b04905080649c197dcc0002830192506001607f1b828202816125d357fe5b04905080640e30dce40002830192506001607f1b828202816125f157fe5b0490508064012ebd130002830192506001607f1b8282028161260f57fe5b049050806317499f0002830192506001607f1b8282028161262c57fe5b049050806301a9d48002830192506001607f1b8282028161264957fe5b04905080621c638002830192506001607f1b8282028161266557fe5b049050806201c63802830192506001607f1b8282028161268157fe5b04905080611ab802830192506001607f1b8282028161269c57fe5b0490508061017c02830192506001607f1b828202816126b757fe5b04905080601402830192506001607f1b828202816126d157fe5b6721c3677c82b400009190049384010482016001607f1b019290506001607c1b8516156127225770018ebef9eac820ae8682b9793ac6d1e7767001c3d6a24ed82218787d624d3e5eba95f984020492505b6001607d1b851615612758577001368b2fc6f9609fe7aceb46aa619baed470018ebef9eac820ae8682b9793ac6d1e77884020492505b6001607e1b85161561278d576fbc5ab1b16779be3575bd8f0520a9f21f7001368b2fc6f9609fe7aceb46aa619baed584020492505b6001607f1b8516156127c1576f454aaa8efe072e7f6ddbab84b40a55c96fbc5ab1b16779be3575bd8f0520a9f21e84020492505b600160801b8516156127f5576f0960aadc109e7a3bf4578099615711ea6f454aaa8efe072e7f6ddbab84b40a55c584020492505b600160811b851615612828576e2bf84208204f5977f9a8cf01fdce3d6f0960aadc109e7a3bf4578099615711d784020492505b600160821b851615612859576d03c6ab775dd0b95b4cbee7e65d116e2bf84208204f5977f9a8cf01fdc30784020492505b50909392505050565b60006020607f5b8060ff168260010160ff1610156128b1576000600260ff848401160490508460018260ff166080811061289857fe5b0154106128a7578092506128ab565b8091505b50612869565b8360018260ff16608081106128c257fe5b0154106128d25791506108c09050565b8360018360ff16608081106128e357fe5b0154106128f2575090506108c0565bfe5b60008083905060008090508360ff16858302901c9150816f03442c4e6074a82f1797f72ac000000002810190508360ff16858302901c9150816f0116b96f757c380fb287fd0e4000000002810190508360ff16858302901c9150816e45ae5bdd5f0e03eca1ff439000000002810190508360ff16858302901c9150816e0defabf91302cd95b9ffda5000000002810190508360ff16858302901c9150816e02529ca9832b22439efff9b800000002810190508360ff16858302901c9150816d54f1cf12bd04e516b6da8800000002810190508360ff16858302901c9150816d0a9e39e257a09ca2d6db5100000002810190508360ff16858302901c9150816d012e066e7b839fa050c30900000002810190508360ff16858302901c9150816c1e33d7d926c329a1ad1a80000002810190508360ff16858302901c9150816c02bee513bdb4a6b19b5f80000002810190508360ff16858302901c9150816b3a9316fa79b88eccf2a0000002810190508360ff16858302901c9150816b048177ebe1fa81237520000002810190508360ff16858302901c9150816a5263fe90242dcbacf0000002810190508360ff16858302901c9150816a057e22099c030d9410000002810190508360ff16858302901c9150816957e22099c030d941000002810190508360ff16858302901c91508169052b6b5456997631000002810190508360ff16858302901c915081684985f67696bf74800002810190508360ff16858302901c9150816803dea12ea99e49800002810190508360ff16858302901c9150816731880f2214b6e00002810190508360ff16858302901c91508167025bcff56eb3600002810190508360ff16858302901c915081661b722e10ab100002810190508360ff16858302901c9150816601317c7007700002810190508360ff16858302901c915081650cba84aafa0002810190508360ff16858302901c9150816482573a0a0002810190508360ff16858302901c9150816405035ad90002810190508360ff16858302901c915081632f881b0002810190508360ff16858302901c9150816301b2934002810190508360ff16858302901c915081620efc4002810190508360ff16858302901c915081617fe002810190508360ff16858302901c91508161042002810190508360ff16858302901c915081602102810190508360ff16858302901c915081600102810190508360ff166001901b856f0688589cc0e9505e2f2fee55800000008381612c8557fe5b04010195945050505050565b60008082610100811015612cba575b6001811115612cb5576001918201911c612ca0565b612cee565b60805b60ff811615612cec57600160ff82161b8210612ce1579182179160ff81169190911c905b60011c607f16612cbd565b505b509291505056fe45524332303a207472616e7366657220746f20746865207a65726f206164647265737345524332303a206275726e20616d6f756e7420657863656564732062616c616e636545524332303a20617070726f766520746f20746865207a65726f206164647265737345524332303a207472616e7366657220616d6f756e7420657863656564732062616c616e63654f776e61626c653a2063616c6c6572206973206e6f74207468652042696e617279204f7074696f6e7320436f6e7472616374536166654d6174683a206d756c7469706c69636174696f6e206f766572666c6f7745524332303a207472616e7366657220616d6f756e74206578636565647320616c6c6f77616e63654f776e61626c653a2063616c6c6572206973206e6f7420746865206f776e657245524332303a206275726e2066726f6d20746865207a65726f206164647265737345524332303a207472616e736665722066726f6d20746865207a65726f206164647265737345524332303a20617070726f76652066726f6d20746865207a65726f206164647265737345524332303a2064656372656173656420616c6c6f77616e63652062656c6f77207a65726fa26469706673582212206bf93535585af7036cdcc6bb1d42d6d58a2c4ef265ea401b8f91a0707bd3488264736f6c63430006060033",
  "immutableReferences": {},
  "source": "pragma solidity ^0.6.6;\n\nimport \"@openzeppelin/contracts/math/SafeMath.sol\";\nimport \"@openzeppelin/contracts/token/ERC20/ERC20.sol\";\n\nimport \"./BIOPToken.sol\";\nimport \"./ContinuousToken/curves/BancorBondingCurve.sol\";\ncontract BIOPTokenV3 is BancorBondingCurve, ERC20 {\n    using SafeMath for uint256;\n    address public bO = 0x0000000000000000000000000000000000000000;//binary options\n    address payable gov = 0x0000000000000000000000000000000000000000;\n    address payable owner;\n    address public v2;\n    uint256 lEnd;//launch end\n    uint256 public tCA = 750000000000000000000000000000;//total claims available\n    uint256 public tbca =                 400000000000000000000000000000;//total bonding curve available\n                             \n    bool public binaryOptionsSet = false;\n\n    uint256 public soldAmount = 0;\n    uint256 public buyFee = 2;//10th of percent\n    uint256 public sellFee = 0;//10th of percent\n\n    constructor(string memory name_, string memory symbol_, address v2_,  uint32 _reserveRatio) public ERC20(name_, symbol_) BancorBondingCurve(_reserveRatio) {\n      owner = msg.sender;\n      v2 = v2_;\n      lEnd = block.timestamp + 3 days;\n      _mint(msg.sender, 100000);\n      soldAmount = 100000;\n    }\n\n\n    \n    modifier onlyBinaryOptions() {\n        require(bO == msg.sender, \"Ownable: caller is not the Binary Options Contract\");\n        _;\n    }\n    modifier onlyGov() {\n        if (gov == 0x0000000000000000000000000000000000000000) {\n            require(owner == msg.sender, \"Ownable: caller is not the owner\");\n        } else {\n            require(gov == msg.sender, \"Ownable: caller is not the owner\");\n        }\n        _;\n    }\n\n    /** \n     * @dev a one time function to setup governance\n     * @param g_ the new governance address\n     */\n    function transferGovernance(address payable g_) external onlyGov {\n        require(gov == 0x0000000000000000000000000000000000000000);\n        require(g_ != 0x0000000000000000000000000000000000000000);\n        gov = g_;\n    }\n\n    /** \n     * @dev set the fee users pay in ETH to buy BIOP from the bonding curve\n     * @param newFee_ the new fee (in tenth percent) for buying on the curve\n     */\n    function updateBuyFee(uint256 newFee_) external onlyGov {\n        require(newFee_ > 0 && newFee_ < 40, \"invalid fee\");\n        buyFee = newFee_;\n    }\n\n    /**\n     * @dev set the fee users pay in ETH to sell BIOP to the bonding curve\n     * @param newFee_ the new fee (in tenth percent) for selling on the curve\n     **/\n    function updateSellFee(uint256 newFee_) external onlyGov {\n        require(newFee_ > 0 && newFee_ < 40, \"invalid fee\");\n        sellFee = newFee_;\n    } \n\n    /**\n     * @dev called by the binary options contract to update a users Reward claim\n     * @param amount the amount in BIOP to add to this users pending claims\n     **/\n    function updateEarlyClaim(uint256 amount) external onlyBinaryOptions {\n        require(tCA.sub(amount) >= 0, \"insufficent claims available\");\n        if (lEnd < block.timestamp) {\n            tCA = tCA.sub(amount);\n            _mint(tx.origin, amount.mul(4));\n        } else {\n            tCA.sub(amount);\n            _mint(tx.origin, amount);\n        }\n    }\n     /**\n     * @notice one time function used at deployment to configure the connected binary options contract\n     * @param options_ the address of the binary options contract\n     */\n    function setupBinaryOptions(address payable options_) external {\n        require(binaryOptionsSet != true, \"binary options is already set\");\n        bO = options_;\n        binaryOptionsSet = true;\n    }\n\n    /**\n     * @dev one time swap of v2 to v3 tokens\n     * @notice all v2 tokens will be swapped to v3. This cannot be undone\n     */\n    function swapv2v3() external {\n        BIOPToken b2 = BIOPToken(v2);\n        uint256 balance = b2.balanceOf(msg.sender);\n        require(balance >= 0, \"insufficent biopv2 balance\");\n        require(b2.transferFrom(msg.sender, address(this), balance), \"staking failed\");\n        _mint(msg.sender, balance);\n    }\n\n\n    \n\n\n    //bonding curve functions\n\n     /**\n    * @dev method that returns BIOP amount sold by curve\n    */   \n    function continuousSupply() public override view returns (uint) {\n        return soldAmount;\n    }\n\n    /**\n    * @dev method that returns curves ETH (reserve) balance\n    */    \n    function reserveBalance() public override view returns (uint) {\n        return address(this).balance;\n    }\n\n    /**\n     * @notice purchase BIOP from the bonding curve. \n     the amount you get is based on the amount in the pool and the amount of eth u send.\n     */\n     function buy() public payable {\n        uint256 purchaseAmount = msg.value;\n        \n         if (buyFee > 0) {\n            uint256 fee = purchaseAmount.div(buyFee).div(100);\n            if (gov == 0x0000000000000000000000000000000000000000) {\n                require(owner.send(fee), \"buy fee transfer failed\");\n            } else {\n                require(gov.send(fee), \"buy fee transfer failed\");\n            }\n            purchaseAmount = purchaseAmount.sub(fee);\n        } \n        uint rewardAmount = getContinuousMintReward(purchaseAmount);\n        require(soldAmount.add(rewardAmount) <= tbca, \"maximum curve minted\");\n        \n        _mint(msg.sender, rewardAmount);\n        soldAmount = soldAmount.add(rewardAmount);\n    }\n\n    \n     /**\n     * @notice sell BIOP to the bonding curve\n     * @param amount the amount of BIOP to sell\n     */\n     function sell(uint256 amount) public returns (uint256){\n        require(balanceOf(msg.sender) >= amount, \"insufficent BIOP balance\");\n\n        uint256 ethToSend = getContinuousBurnRefund(amount);\n        if (sellFee > 0) {\n            uint256 fee = ethToSend.div(buyFee).div(100);\n            if (gov == 0x0000000000000000000000000000000000000000) {\n                require(owner.send(fee), \"buy fee transfer failed\");\n            } else {\n                require(gov.send(fee), \"buy fee transfer failed\");\n            }\n            ethToSend = ethToSend.sub(fee);\n        }\n        soldAmount = soldAmount.sub(amount);\n        _burn(msg.sender, amount);\n        require(msg.sender.send(ethToSend), \"transfer failed\");\n        return ethToSend;\n        }\n}\n",
  "sourcePath": "/Users/x/Desktop/eth/BIOPv3/contracts/BIOPTokenV3.sol",
  "compiler": {
    "name": "solc",
    "version": "0.6.6+commit.6c089d02.Emscripten.clang"
  },
  "schemaVersion": "3.2.5",
  "updatedAt": "2021-02-04T07:06:41.336Z",
  "networkType": "ethereum",
  "devdoc": {
    "methods": {
      "allowance(address,address)": {
        "details": "See {IERC20-allowance}."
      },
      "approve(address,uint256)": {
        "details": "See {IERC20-approve}.     * Requirements:     * - `spender` cannot be the zero address."
      },
      "balanceOf(address)": {
        "details": "See {IERC20-balanceOf}."
      },
      "calculatePurchaseReturn(uint256,uint256,uint32,uint256)": {
        "details": "given a continuous token supply, reserve token balance, reserve ratio, and a deposit amount (in the reserve token), calculates the return for a given conversion (in the continuous token)    * Formula: Return = _supply * ((1 + _depositAmount / _reserveBalance) ^ (_reserveRatio / MAX_RESERVE_RATIO) - 1)",
        "params": {
          "_depositAmount": "deposit amount, in reserve token",
          "_reserveBalance": "total reserve token balance",
          "_reserveRatio": "reserve ratio, represented in ppm, 1-1000000",
          "_supply": "continuous token total supply"
        },
        "returns": {
          "_0": "purchase return amount"
        }
      },
      "calculateSaleReturn(uint256,uint256,uint32,uint256)": {
        "details": "given a continuous token supply, reserve token balance, reserve ratio and a sell amount (in the continuous token), calculates the return for a given conversion (in the reserve token)    * Formula: Return = _reserveBalance * (1 - (1 - _sellAmount / _supply) ^ (1 / (_reserveRatio / MAX_RESERVE_RATIO)))",
        "params": {
          "_reserveBalance": "total reserve token balance",
          "_reserveRatio": "constant reserve ratio, represented in ppm, 1-1000000",
          "_sellAmount": "sell amount, in the continuous token itself",
          "_supply": "continuous token total supply"
        },
        "returns": {
          "_0": "sale return amount"
        }
      },
      "continuousSupply()": {
        "details": "method that returns BIOP amount sold by curve"
      },
      "decimals()": {
        "details": "Returns the number of decimals used to get its user representation. For example, if `decimals` equals `2`, a balance of `505` tokens should be displayed to a user as `5,05` (`505 / 10 ** 2`).     * Tokens usually opt for a value of 18, imitating the relationship between Ether and Wei. This is the value {ERC20} uses, unless {_setupDecimals} is called.     * NOTE: This information is only used for _display_ purposes: it in no way affects any of the arithmetic of the contract, including {IERC20-balanceOf} and {IERC20-transfer}."
      },
      "decreaseAllowance(address,uint256)": {
        "details": "Atomically decreases the allowance granted to `spender` by the caller.     * This is an alternative to {approve} that can be used as a mitigation for problems described in {IERC20-approve}.     * Emits an {Approval} event indicating the updated allowance.     * Requirements:     * - `spender` cannot be the zero address. - `spender` must have allowance for the caller of at least `subtractedValue`."
      },
      "increaseAllowance(address,uint256)": {
        "details": "Atomically increases the allowance granted to `spender` by the caller.     * This is an alternative to {approve} that can be used as a mitigation for problems described in {IERC20-approve}.     * Emits an {Approval} event indicating the updated allowance.     * Requirements:     * - `spender` cannot be the zero address."
      },
      "name()": {
        "details": "Returns the name of the token."
      },
      "reserveBalance()": {
        "details": "method that returns curves ETH (reserve) balance"
      },
      "sell(uint256)": {
        "params": {
          "amount": "the amount of BIOP to sell"
        }
      },
      "setupBinaryOptions(address)": {
        "params": {
          "options_": "the address of the binary options contract"
        }
      },
      "swapv2v3()": {
        "details": "one time swap of v2 to v3 tokens"
      },
      "symbol()": {
        "details": "Returns the symbol of the token, usually a shorter version of the name."
      },
      "totalSupply()": {
        "details": "See {IERC20-totalSupply}."
      },
      "transfer(address,uint256)": {
        "details": "See {IERC20-transfer}.     * Requirements:     * - `recipient` cannot be the zero address. - the caller must have a balance of at least `amount`."
      },
      "transferFrom(address,address,uint256)": {
        "details": "See {IERC20-transferFrom}.     * Emits an {Approval} event indicating the updated allowance. This is not required by the EIP. See the note at the beginning of {ERC20}.     * Requirements:     * - `sender` and `recipient` cannot be the zero address. - `sender` must have a balance of at least `amount`. - the caller must have allowance for ``sender``'s tokens of at least `amount`."
      },
      "transferGovernance(address)": {
        "details": "a one time function to setup governance",
        "params": {
          "g_": "the new governance address"
        }
      },
      "updateBuyFee(uint256)": {
        "details": "set the fee users pay in ETH to buy BIOP from the bonding curve",
        "params": {
          "newFee_": "the new fee (in tenth percent) for buying on the curve"
        }
      },
      "updateEarlyClaim(uint256)": {
        "details": "called by the binary options contract to update a users Reward claim",
        "params": {
          "amount": "the amount in BIOP to add to this users pending claims*"
        }
      },
      "updateSellFee(uint256)": {
        "details": "set the fee users pay in ETH to sell BIOP to the bonding curve",
        "params": {
          "newFee_": "the new fee (in tenth percent) for selling on the curve*"
        }
      }
    }
  },
  "userdoc": {
    "methods": {
      "buy()": {
        "notice": "purchase BIOP from the bonding curve.  the amount you get is based on the amount in the pool and the amount of eth u send."
      },
      "sell(uint256)": {
        "notice": "sell BIOP to the bonding curve"
      },
      "setupBinaryOptions(address)": {
        "notice": "one time function used at deployment to configure the connected binary options contract"
      },
      "swapv2v3()": {
        "notice": "all v2 tokens will be swapped to v3. This cannot be undone"
      }
    }
  }
}