{
  "contractName": "DelegatedAccessTiers",
  "abi": [
    {
      "inputs": [
        {
          "internalType": "uint256",
          "name": "power",
          "type": "uint256"
        },
        {
          "internalType": "uint256",
          "name": "total",
          "type": "uint256"
        }
      ],
      "name": "tier1",
      "outputs": [
        {
          "internalType": "bool",
          "name": "",
          "type": "bool"
        }
      ],
      "stateMutability": "nonpayable",
      "type": "function"
    },
    {
      "inputs": [
        {
          "internalType": "uint256",
          "name": "power",
          "type": "uint256"
        },
        {
          "internalType": "uint256",
          "name": "total",
          "type": "uint256"
        }
      ],
      "name": "tier2",
      "outputs": [
        {
          "internalType": "bool",
          "name": "",
          "type": "bool"
        }
      ],
      "stateMutability": "nonpayable",
      "type": "function"
    },
    {
      "inputs": [
        {
          "internalType": "uint256",
          "name": "power",
          "type": "uint256"
        },
        {
          "internalType": "uint256",
          "name": "total",
          "type": "uint256"
        }
      ],
      "name": "tier3",
      "outputs": [
        {
          "internalType": "bool",
          "name": "",
          "type": "bool"
        }
      ],
      "stateMutability": "nonpayable",
      "type": "function"
    },
    {
      "inputs": [
        {
          "internalType": "uint256",
          "name": "power",
          "type": "uint256"
        },
        {
          "internalType": "uint256",
          "name": "total",
          "type": "uint256"
        }
      ],
      "name": "tier4",
      "outputs": [
        {
          "internalType": "bool",
          "name": "",
          "type": "bool"
        }
      ],
      "stateMutability": "nonpayable",
      "type": "function"
    }
  ],
  "bytecode": "0x608060405234801561001057600080fd5b50610316806100206000396000f3fe608060405234801561001057600080fd5b506004361061004c5760003560e01c80632786d65e1461005157806360e96238146100885780636aac3462146100ab578063b930926b146100ce575b600080fd5b6100746004803603604081101561006757600080fd5b50803590602001356100f1565b604080519115158252519081900360200190f35b6100746004803603604081101561009e57600080fd5b5080359060200135610135565b610074600480360360408110156100c157600080fd5b5080359060200135610149565b610074600480360360408110156100e457600080fd5b5080359060200135610162565b600080610116600961010a85600a63ffffffff61017b16565b9063ffffffff6101c416565b905080841061012957600191505061012f565b60009150505b92915050565b60008061011683600263ffffffff61017b16565b600080610116600361010a85600463ffffffff61017b16565b600080610116600261010a85600363ffffffff61017b16565b60006101bd83836040518060400160405280601a81526020017f536166654d6174683a206469766973696f6e206279207a65726f00000000000081525061021d565b9392505050565b6000826101d35750600061012f565b828202828482816101e057fe5b04146101bd5760405162461bcd60e51b81526004018080602001828103825260218152602001806102c06021913960400191505060405180910390fd5b600081836102a95760405162461bcd60e51b81526004018080602001828103825283818151815260200191508051906020019080838360005b8381101561026e578181015183820152602001610256565b50505050905090810190601f16801561029b5780820380516001836020036101000a031916815260200191505b509250505060405180910390fd5b5060008385816102b557fe5b049594505050505056fe536166654d6174683a206d756c7469706c69636174696f6e206f766572666c6f77a264697066735822122014231a0cc8c832b302ba5032a4143638821195ce29ea4c504101c93e6fe73f9b64736f6c63430006060033",
  "immutableReferences": {},
  "source": "pragma solidity ^0.6.6;\n\nimport \"@openzeppelin/contracts/math/SafeMath.sol\";\nimport \"@openzeppelin/contracts/token/ERC20/ERC20.sol\";\n\nimport \"./BIOPTokenV3.sol\";\nimport \"./BinaryOptions.sol\";\nimport \"./GovProxy.sol\";\ninterface AccessTiers {\n    /**\n     * @notice Returns the rate to pay out for a given amount\n     * @param power the amount of control held by user trying to access this action\n     * @param total the total amount of control available\n     * @return boolean of users access to this tier\n     */\n    function tier1(uint256 power, uint256 total) external returns (bool);\n\n    /**\n     * @notice Returns the rate to pay out for a given amount\n     * @param power the amount of control held by user trying to access this action\n     * @param total the total amount of control available\n     * @return boolean of users access to this tier\n     */\n    function tier2(uint256 power, uint256 total) external returns (bool);\n\n\n    /**\n     * @notice Returns the rate to pay out for a given amount\n     * @param power the amount of control held by user trying to access this action\n     * @param total the total amount of control available\n     * @return boolean of users access to this tier\n     */\n    function tier3(uint256 power, uint256 total) external returns (bool);\n\n\n    /**\n     * @notice Returns the rate to pay out for a given amount\n     * @param power the amount of control held by user trying to access this action\n     * @param total the total amount of control available\n     * @return boolean of users access to this tier\n     */\n    function tier4(uint256 power, uint256 total) external returns (bool);\n}\n\ncontract DelegatedAccessTiers is AccessTiers {\n    using SafeMath for uint256;\n    function tier1(uint256 power, uint256 total) external override returns (bool) {\n        uint256 half = total.div(2);\n        if (power >= half) {\n            return true;\n        }\n        return false;\n    }\n\n    function tier2(uint256 power, uint256 total) external override returns (bool) {\n        uint256 twothirds = total.div(3).mul(2);\n        if (power >= twothirds) {\n            return true;\n        }\n        return false;\n    }\n\n    function tier3(uint256 power, uint256 total) external override returns (bool) {\n        uint256 threeQuarters = total.div(4).mul(3);\n        if (power >= threeQuarters) {\n            return true;\n        }\n        return false;\n    }\n\n    function tier4(uint256 power, uint256 total) external override returns (bool) {\n        uint256 ninety = total.div(10).mul(9);\n        if (power >= ninety) {\n            return true;\n        }\n        return false;\n    }\n}\n\n\n\n/**\n * @title DelegatedGov\n * @author github.com/Shalquiana\n * @dev governance for biopset protocol\n * @notice governance for biopset protocol\n * BIOP\n */\ncontract DelegatedGov {\n    using SafeMath for uint256;\n    address public pA;//protocol address\n    address public tA;//token address\n    address public aTA;//access tiers address\n    address payable public pX;//proxy\n    \n    mapping(address=>uint256) public shas;//amounts of voting power held by each sha\n    mapping(address=>address) public rep;//representative/delegate/governer currently backed by given address\n    mapping(address=>uint256) public staked;//amount of BIOP they have staked\n    uint256 dBIOP = 0;//the total amount of staked BIOP which has been delegated for governance\n\n    //rewards for stakers\n    uint256 public trg = 0;//total rewards generated\n    mapping(address=>uint256) public lrc;//last rewards claimed at trg point for this address \n    \n\n     constructor(address bo_, address v3_, address accessTiers_, address payable proxy_) public {\n      pA = bo_;\n      tA = v3_;\n      aTA = accessTiers_;\n      pX = proxy_;\n    }\n\n\n    event Stake(uint256 amount, uint256 total);\n    event Withdraw(uint256 amount, uint256 total);\n\n    function totalStaked() public view returns (uint256) {\n        BIOPTokenV3 token = BIOPTokenV3(tA);\n        return token.balanceOf(address(this));\n    }\n\n    /**\n     * @notice stake your BIOP and begin earning rewards\n     * @param amount the amount in BIOP you want to stake\n     */\n    function stake(uint256 amount) public {\n        require(amount > 0, \"invalid amount\");\n        BIOPTokenV3 token = BIOPTokenV3(tA);\n        require(token.balanceOf(msg.sender) >= amount, \"insufficent biop balance\");\n        require(token.transferFrom(msg.sender, address(this), amount), \"staking failed\");\n        if (staked[msg.sender] == 0) {\n            lrc[msg.sender] = trg;\n        }\n        staked[msg.sender] = staked[msg.sender].add(amount);\n        emit Stake(amount, totalStaked());\n    }\n\n    /**\n     * @notice withdraw your BIOP and stop earning rewards. You must undelegate before you can withdraw\n     * @param amount the amount in BIOP you want to withdraw\n     */\n    function withdraw(uint256 amount) public {\n        require(staked[msg.sender] >= amount, \"invalid amount\");\n        BIOPTokenV3 token = BIOPTokenV3(tA);\n        require(rep[msg.sender] ==  0x0000000000000000000000000000000000000000);\n        require(token.transfer(msg.sender, amount), \"staking failed\");\n        staked[msg.sender] = staked[msg.sender].sub(amount);\n\n        uint256 totalBalance = token.balanceOf(address(this));\n        emit Withdraw(amount, totalBalance);\n    }\n\n     /**\n     * @notice delegates your voting power to a specific address(sha)\n     * @param newSha the address of the delegate to voting power\n     */\n    function delegate(address payable newSha) public {\n        BIOPTokenV3 token = BIOPTokenV3(tA);\n        address oldSha = rep[msg.sender];\n        if (oldSha == 0x0000000000000000000000000000000000000000) {\n            dBIOP = dBIOP.add(staked[msg.sender]);\n        }\n        if (oldSha != 0x0000000000000000000000000000000000000000) {\n            shas[oldSha] = shas[oldSha].sub(staked[msg.sender]);\n        }\n        shas[newSha] = shas[newSha].add(staked[msg.sender]);\n        rep[msg.sender] = newSha;\n    }\n\n     /**\n     * @notice undelegate your voting power. you will still earn staking rewards \n     * but your voting power won't back any delegate.\n     */\n    function undelegate() public {\n        BIOPTokenV3 token = BIOPTokenV3(tA);\n        address oldSha = rep[msg.sender];\n        shas[oldSha] = shas[oldSha].sub(staked[msg.sender]);\n        rep[msg.sender] =  0x0000000000000000000000000000000000000000;\n        dBIOP = dBIOP.sub(staked[msg.sender]);\n    }\n\n    /** \n    * @notice base rewards since last claim\n    * @param acc the account to get the answer for\n    */\n    function bRSLC(address acc) public view returns (uint256) {\n        return trg.sub(lrc[acc]);\n    }\n\n    function pendingETHRewards(address account) public view returns (uint256) {\n        BIOPTokenV3 token = BIOPTokenV3(tA);\n        uint256 base = bRSLC(account);\n        return base.mul(staked[account]).div(totalStaked());\n    }\n\n\n    function claimETHRewards() public {\n        require(lrc[msg.sender] < trg, \"no rewards available\");\n        \n        BIOPTokenV3 token = BIOPTokenV3(tA);\n        uint256 toSend = pendingETHRewards(msg.sender);\n        lrc[msg.sender] = trg;\n        require(msg.sender.send(toSend), \"transfer failed\");\n    }\n\n    \n\n    /**\n     * @notice modifier for actions requiring tier 1 delegation\n     */\n    modifier tierOneDelegation() {\n        BIOPTokenV3 token = BIOPTokenV3(tA);\n        AccessTiers tiers = AccessTiers(aTA);\n        require(tiers.tier1(shas[msg.sender], dBIOP), \"insufficent delegate power\");\n        _;\n    }\n\n    /**\n     * @notice modifier for actions requiring a tier 2 delegation\n     */\n    modifier tierTwoDelegation() {\n        BIOPTokenV3 token = BIOPTokenV3(tA);\n        AccessTiers tiers = AccessTiers(aTA);\n        require(tiers.tier2(shas[msg.sender], dBIOP), \"insufficent delegate power\");\n        _;\n    }\n\n    /**\n     * @notice modifier for actions requiring a tier 3 delegation\n     */\n    modifier tierThreeDelegation() {\n        BIOPTokenV3 token = BIOPTokenV3(tA);\n        AccessTiers tiers = AccessTiers(aTA);\n        require(tiers.tier3(shas[msg.sender], dBIOP), \"insufficent delegate power\");\n        _;\n    }\n\n    /**\n     * @notice modifier for actions requiring a tier 4 delegation\n     */\n    modifier tierFourDelegation() {\n        BIOPTokenV3 token = BIOPTokenV3(tA);\n        AccessTiers tiers = AccessTiers(aTA);\n        require(tiers.tier4(shas[msg.sender], dBIOP), \"insufficent delegate power\");\n        _;\n    }\n\n\n    // 0 tier anyone whose staked can do these two\n    /**\n     * @notice Send rewards from the proxy to gov and collect a fee\n     */\n    function sRTG() external {\n        require(staked[msg.sender] > 100, \"invalid user\");\n        GovProxy gp = GovProxy(pX);\n        uint256 r = gp.transferToGov();\n        trg = trg.add(r);\n    }\n\n    fallback () external payable {}\n\n     /**\n     * @notice add a alt pool\n     * @param newPool_ the address of the EBOP20 pool to add\n     */\n    function addAltPool(address newPool_) external  {\n        require(staked[msg.sender] > 100, \"invalid user\");\n        BinaryOptions protocol = BinaryOptions(pA);\n        protocol.addAltPool(newPool_);\n    }\n\n    /* \n                                                                                              \n                                                                                          \n                                                                                          \n                                                              .-=                         \n                      =                               :-=+#%@@@@@                         \n               @+@+* -*   -==: ==-+.           -=+#%@@@@@@@@@@@@@                         \n                :%    %. -%-=* :%              %@@@@@@@@@@@@@@@@@                         \n               .=== .===: -==: ===.            %@@@@%*+=--@@@@@@@                         \n                                               --.       .@@@@@@@                         \n                                                         .@@@@@@@                         \n                                                         .@@@@@@@                         \n                                                         .@@@@@@@                         \n                                                         .@@@@@@@                         \n                                                         .@@@@@@@                         \n                                                         .@@@@@@@                         \n                      .:    :.                           .@@@@@@@                         \n                     -@@#  #@@=                          .@@@@@@@                         \n                     +@@#  %@@=                          .@@@@@@@                         \n                     *@@*  @@@-                          .@@@@@@@                         \n                     #@@+ .@@@:                          .@@@@@@@                         \n                 .---@@@*-+@@@=--                        .@@@@@@@                         \n                 +@@@@@@@@@@@@@@@.                       .@@@@@@@                         \n                    .@@@: =@@@                           .@@@@@@@                         \n                    :@@@. +@@#                           .@@@@@@@                         \n                 -*##@@@##%@@@##*                        .@@@@@@@                         \n                 -##%@@@##@@@%##*                        .@@@@@@@                         \n                    +@@#  #@@=                           .@@@@@@@                         \n                    *@@*  @@@:                           .@@@@@@@                         \n                    *@@+  @@@.                 +**********@@@@@@@**********=              \n                    #@@= .@@@                  %@@@@@@@@@@@@@@@@@@@@@@@@@@@%              \n                    .--   :=:                  %@@@@@@@@@@@@@@@@@@@@@@@@@@@%              \n                                                                                          \n                                                                                          \n                                                                                          \n                                                                                          \n                                                                                          \n                                                                                          \n     */\n\n\n    /**\n     * @notice update the maximum time an option can be created for\n     * @param nMT_ the time (in seconds) of maximum possible bet\n     */\n    function uMXOT(uint256 nMT_) external tierOneDelegation {\n        BinaryOptions protocol = BinaryOptions(pA);\n        protocol.setMaxT(nMT_);\n    }\n\n    /**\n     * @notice update the maximum time an option can be created for\n     * @param newMinTime_ the time (in seconds) of maximum possible bet\n     */\n    function uMNOT(uint256 newMinTime_) external tierOneDelegation {\n        BinaryOptions protocol = BinaryOptions(pA);\n        protocol.setMinT(newMinTime_);\n    }\n\n    /* \n                                                                                                  \n                                                                                          \n                                                    .:-+*##%@@@@@@%#*+=:                  \n              :::::   *                        .=+#@@@@@@@@@@@@@@@@@@@@@@%+:              \n              @-@=#: =*.  .+=+- :*=+*:        -@@@@@@@@@@@@@@@@@@@@@@@@@@@@@%=            \n               .@:    %:  #*--#. **           -@@@@@@@%#+=-::::::-=*@@@@@@@@@@%-          \n              :+**- :+*++ .++++ -**+          -@@@#=:                :*@@@@@@@@@=         \n                                              .=.                      :%@@@@@@@@=        \n                                                                        .@@@@@@@@@.       \n                                                                         +@@@@@@@@=       \n                                                                         :@@@@@@@@+       \n                                                                         -@@@@@@@@=       \n                                                                         #@@@@@@@@:       \n                                                                        -@@@@@@@@#        \n                                                                       :@@@@@@@@%         \n                                                                      -@@@@@@@@%.         \n                      *#*   -##-                                    .*@@@@@@@@*           \n                     =@@@-  @@@%                                   =@@@@@@@@#:            \n                     +@@@: .@@@#                                 =%@@@@@@@%-              \n                     *@@@. :@@@*                              .+@@@@@@@@#-                \n                     #@@@  -@@@=                            .*@@@@@@@@*.                  \n                  ...%@@@..=@@@=..                        :#@@@@@@@%=.                    \n                :@@@@@@@@@@@@@@@@@@                     -%@@@@@@@%-                       \n                 +++*@@@%++%@@@*++=                   :#@@@@@@@#:                         \n                    :@@@+  #@@@                     :#@@@@@@@#:                           \n                    -@@@=  %@@@                    +@@@@@@@%-                             \n                .#%%@@@@@%%@@@@%%%*              -@@@@@@@@*                               \n                .#%%@@@@%%%@@@@%%%*             *@@@@@@@@=                                \n                    #@@@  .@@@*               .%@@@@@@@@-                                 \n                    %@@@  :@@@+              .%@@@@@@@@*                                  \n                    @@@%  -@@@=              @@@@@@@@@@#**************************.       \n                    @@@#  =@@@-              @@@@@@@@@@@@@@@@@@@@@@@@@@@@@@@@@@@@@:       \n                    @@@+  =@@@.              @@@@@@@@@@@@@@@@@@@@@@@@@@@@@@@@@@@@@:       \n                     :.    .:.               @@@@@@@@@@@@@@@@@@@@@@@@@@@@@@@@@@@@@:       \n                                                                                          \n                                                                                          \n                                                                                          \n                                                                                          \n\n     */\n\n    /**\n     * @notice update fee paid to exercisers\n     * @param newFee_ the new fee\n     */\n    function updateExerciserFee(uint256 newFee_) external tierTwoDelegation {\n        BinaryOptions protocol = BinaryOptions(pA);\n        protocol.updateExerciserFee(newFee_);\n    }\n\n    /**\n     * @notice update fee paid to expirers\n     * @param newFee_ the new fee\n     */\n    function updateExpirerFee(uint256 newFee_) external tierTwoDelegation {\n        BinaryOptions protocol = BinaryOptions(pA);\n        protocol.updateExpirerFee(newFee_);\n    }\n\n    /**\n     * @notice remove a trading pair\n     * @param oldPP_ the address of trading pair to be removed\n     */\n    function removeTradingPair(address oldPP_) external tierTwoDelegation {\n        BinaryOptions protocol = BinaryOptions(pA);\n        protocol.removePP(oldPP_);\n    }\n\n    /**\n     * @notice add (or update the RateCalc of existing) trading pair \n     * @param newPP_ the address of trading pair to be added\n     * @param newRateCalc_ the address of the rate calc to be used for this pair\n     */\n    function addUpdateTradingPair(address newPP_, address newRateCalc_) external tierTwoDelegation {\n        BinaryOptions protocol = BinaryOptions(pA);\n        protocol.addPP(newPP_, newRateCalc_);\n    }\n\n   \n\n    /**\n     * @notice enable or disable BIOP rewards\n     * @param nx_ the new boolean value of rewardsEnabled\n     */\n    function enableRewards(bool nx_) external tierTwoDelegation {\n        BinaryOptions protocol = BinaryOptions(pA);\n        protocol.enableRewards(nx_);\n    }\n\n    /**\n     * @notice update the fee paid to the user whose tx transfers bet fees from GovProxy to the DelegatedGov\n     * @param n_ the new fee\n     */\n    function enableRewards(uint256 n_) external tierTwoDelegation {\n        GovProxy gp = GovProxy(pX);\n        gp.updateTFee(n_);\n    }\n\n    /* \n                                                                                              \n                                                                                          \n                                                        .:::::::::.                       \n                                               .-=*#%@@@@@@@@@@@@@@@@@#*=:                \n          -+++++   #.                         %@@@@@@@@@@@@@@@@@@@@@@@@@@@@#=             \n          +:+%.%  +%-  .*++*: =%++#:          %@@@@@@@@@@@@@@@@@@@@@@@@@@@@@@@+           \n            +%     %-  +@==+=  @-             %@@@@#*=-:..      .:-+%@@@@@@@@@@%.         \n           ++++. -++++  -+++. ++++            *+-.                   .+@@@@@@@@@%         \n                                                                       :@@@@@@@@@-        \n                                                                        +@@@@@@@@*        \n                                                                        :@@@@@@@@*        \n                                                                        :@@@@@@@@+        \n                                                                        =@@@@@@@@:        \n                                                                       .@@@@@@@@=         \n                                                                      :%@@@@@@@=          \n                                                                    .*@@@@@@@%:           \n                                                                .:+#@@@@@@@#-             \n                    .      .                       :======++*#%@@@@@@@@@*-                \n                  -@@@-  =@@@:                     +@@@@@@@@@@@@@@@@%=.                   \n                  *@@@=  *@@@-                     +@@@@@@@@@@@@@@@@@@@#+-.               \n                  #@@@-  #@@@:                     -++++++**#%%@@@@@@@@@@@@%+:            \n                  %@@@.  %@@@.                                  .:=#@@@@@@@@@@%-          \n                  @@@@   @@@@                                        :*@@@@@@@@@%.        \n              :::-@@@@:::@@@@:::                                       .#@@@@@@@@@:       \n             #@@@@@@@@@@@@@@@@@@#                                        #@@@@@@@@@.      \n             :+++*@@@%++*@@@%+++:                                         @@@@@@@@@+      \n                 -@@@*  =@@@+                                             *@@@@@@@@#      \n                 =@@@+  +@@@=                                             +@@@@@@@@%      \n             =###%@@@%##%@@@%###=                                         *@@@@@@@@#      \n             *@@@@@@@@@@@@@@@@@@*                                        .@@@@@@@@@+      \n                 #@@@:  %@@@.                                            %@@@@@@@@@.      \n                 %@@@.  @@@@                                           .%@@@@@@@@@+       \n                 @@@@  .@@@%                 +=:                     :*@@@@@@@@@@+        \n                 @@@@  :@@@#                 %@@@@#+=-.          .-+%@@@@@@@@@@@-         \n                .@@@%  -@@@*                 %@@@@@@@@@@@@%%%%%@@@@@@@@@@@@@@@=           \n                 +%#-   *%#:                 %@@@@@@@@@@@@@@@@@@@@@@@@@@@@@*-             \n                                             -+*#%@@@@@@@@@@@@@@@@@@@@%*=.                \n                                                    ..:--=======--:.                      \n                                                                                          \n\n     */\n\n    /**\n     * @notice remove a pool\n     * @param oldPool_ the address of the pool to remove\n     */\n    function removeAltPool(address oldPool_) external tierThreeDelegation {\n        BinaryOptions protocol = BinaryOptions(pA);\n        protocol.removeAltPool(oldPool_);\n    }\n\n    /**\n     * @notice update soft lock time for the main pool. \n     * @param newLockSeconds_ the time (in seconds) of the soft pool lock\n     */\n    function updatePoolLockTime(uint256 newLockSeconds_) external tierThreeDelegation {\n        BinaryOptions protocol = BinaryOptions(pA);\n        protocol.updatePoolLockSeconds(newLockSeconds_);\n    }\n\n    /**\n     * @notice update the fee paid by betters when they make a bet\n     * @param newBetFee_ the time (in seconds) of the soft pool lock\n     */\n    function updateBetFee(uint256 newBetFee_) external tierThreeDelegation {\n        BinaryOptions protocol = BinaryOptions(pA);\n        protocol.updateDevFundBetFee(newBetFee_);\n    }\n\n    /* \n                                                                                              \n                                                                                          \n                                                                                          \n                                                                                          \n                                                                                          \n                       -                                       +######:                   \n                %*@*+ =*   -=-  =:==                         .%@@@@@@@-                   \n                .:%    @  +#-+= ++ .                        =@@@@@@@@@-                   \n                .=== .===. -==:.==-                       .#@@@@@@@@@@-                   \n                                                         =@@@@@@%@@@@@-                   \n                                                        *@@@@@#.*@@@@@-                   \n                                                      -@@@@@@+  *@@@@@-                   \n                                                     *@@@@@#.   *@@@@@-                   \n                                                   -@@@@@@=     *@@@@@-                   \n                                                  *@@@@@%.      *@@@@@-                   \n                                                :%@@@@@+        *@@@@@-                   \n                       --   .-:                +@@@@@%:         *@@@@@-                   \n                      +@@*  @@@.             .%@@@@@+           *@@@@@-                   \n                      *@@+  @@@.            =@@@@@%:            *@@@@@-                   \n                      #@@= .@@@           .#@@@@@+              *@@@@@-                   \n                      %@@- -@@%          =@@@@@%-               *@@@@@-                   \n                  :***@@@#*#@@@**=      *@@@@@@#################@@@@@@%######-            \n                  =#%%@@@%%@@@@%%+      %@@@@@@@@@@@@@@@@@@@@@@@@@@@@@@@@@@@@+            \n                     .@@@  +@@+         %@@@@@@@@@@@@@@@@@@@@@@@@@@@@@@@@@@@@+            \n                     -@@@  #@@=         .......................:@@@@@@+......             \n                  +@@@@@@@@@@@@@@#                             .@@@@@@-                   \n                  .-=#@@%==@@@+==:                             .@@@@@@-                   \n                     *@@*  @@@.                                .@@@@@@-                   \n                     #@@+ .@@@                                 .@@@@@@-                   \n                     %@@= :@@@                                 .@@@@@@-                   \n                     *@%. .%@+                                 .@@@@@@-                   \n                                                                ******:                   \n                                                                                          \n     */\n\n     /**\n     * @notice change the access tiers contract address used to guard all access tier functions\n     * @param newAccessTiers_ the new access tiers contract to use. It should conform to AccessTiers interface\n     */\n    function updateAccessTiers(address newAccessTiers_) external tierFourDelegation {\n        aTA = newAccessTiers_;\n    }\n\n    /**\n     * @notice change the BinaryOptions \n     * @param newPA_ the new protocol contract to use. It should conform to BinaryOptions interface\n     */\n    function updateProtocolAddress(address newPA_) external tierFourDelegation {\n        pA = newPA_;\n    }\n\n    /**\n     * @notice prevent new deposits into the pool. Effectivly end the protocol. This cannot be undone.\n     */\n    function closeStaking() external tierFourDelegation {\n        BinaryOptions protocol = BinaryOptions(pA);\n        protocol.closeStaking();\n    }\n\n}",
  "sourcePath": "/Users/x/Desktop/eth/BIOPv3/contracts/DelegatedGov.sol",
  "compiler": {
    "name": "solc",
    "version": "0.6.6+commit.6c089d02.Emscripten.clang"
  },
  "schemaVersion": "3.2.5",
  "updatedAt": "2021-02-04T07:06:41.379Z",
  "networkType": "ethereum",
  "devdoc": {
    "methods": {}
  },
  "userdoc": {
    "methods": {}
  }
}