{
  "contractName": "FakePriceProvider",
  "abi": [
    {
      "inputs": [
        {
          "internalType": "uint256",
          "name": "_price",
          "type": "uint256"
        }
      ],
      "stateMutability": "nonpayable",
      "type": "constructor"
    },
    {
      "inputs": [],
      "name": "decimals",
      "outputs": [
        {
          "internalType": "uint8",
          "name": "",
          "type": "uint8"
        }
      ],
      "stateMutability": "view",
      "type": "function",
      "constant": true
    },
    {
      "inputs": [],
      "name": "description",
      "outputs": [
        {
          "internalType": "string",
          "name": "",
          "type": "string"
        }
      ],
      "stateMutability": "view",
      "type": "function",
      "constant": true
    },
    {
      "inputs": [],
      "name": "price",
      "outputs": [
        {
          "internalType": "uint256",
          "name": "",
          "type": "uint256"
        }
      ],
      "stateMutability": "view",
      "type": "function",
      "constant": true
    },
    {
      "inputs": [],
      "name": "version",
      "outputs": [
        {
          "internalType": "uint256",
          "name": "",
          "type": "uint256"
        }
      ],
      "stateMutability": "view",
      "type": "function",
      "constant": true
    },
    {
      "inputs": [
        {
          "internalType": "uint256",
          "name": "_price",
          "type": "uint256"
        }
      ],
      "name": "setPrice",
      "outputs": [],
      "stateMutability": "nonpayable",
      "type": "function"
    },
    {
      "inputs": [
        {
          "internalType": "uint80",
          "name": "",
          "type": "uint80"
        }
      ],
      "name": "getRoundData",
      "outputs": [
        {
          "internalType": "uint80",
          "name": "",
          "type": "uint80"
        },
        {
          "internalType": "int256",
          "name": "",
          "type": "int256"
        },
        {
          "internalType": "uint256",
          "name": "",
          "type": "uint256"
        },
        {
          "internalType": "uint256",
          "name": "",
          "type": "uint256"
        },
        {
          "internalType": "uint80",
          "name": "",
          "type": "uint80"
        }
      ],
      "stateMutability": "view",
      "type": "function",
      "constant": true
    },
    {
      "inputs": [],
      "name": "latestAnswer",
      "outputs": [
        {
          "internalType": "int256",
          "name": "result",
          "type": "int256"
        }
      ],
      "stateMutability": "view",
      "type": "function",
      "constant": true
    },
    {
      "inputs": [],
      "name": "latestRoundData",
      "outputs": [
        {
          "internalType": "uint80",
          "name": "",
          "type": "uint80"
        },
        {
          "internalType": "int256",
          "name": "answer",
          "type": "int256"
        },
        {
          "internalType": "uint256",
          "name": "",
          "type": "uint256"
        },
        {
          "internalType": "uint256",
          "name": "",
          "type": "uint256"
        },
        {
          "internalType": "uint80",
          "name": "",
          "type": "uint80"
        }
      ],
      "stateMutability": "view",
      "type": "function",
      "constant": true
    }
  ],
  "bytecode": "0x6001805460ff1916600817905560c0604052601360808190527f5465737420696d706c656d656e746174696c6e0000000000000000000000000060a090815261004b916002919061008a565b50600060035534801561005d57600080fd5b5060405161045f38038061045f8339818101604052602081101561008057600080fd5b5051600055610125565b828054600181600116156101000203166002900490600052602060002090601f016020900481019282601f106100cb57805160ff19168380011785556100f8565b828001600101855582156100f8579182015b828111156100f85782518255916020019190600101906100dd565b50610104929150610108565b5090565b61012291905b80821115610104576000815560010161010e565b90565b61032b806101346000396000f3fe608060405234801561001057600080fd5b50600436106100885760003560e01c806391b7f5ed1161005b57806391b7f5ed1461014a5780639a6fc8f514610169578063a035b1fe146101d1578063feaf968c146101d957610088565b8063313ce5671461008d57806350d25bcd146100ab57806354fd4d50146100c55780637284e416146100cd575b600080fd5b6100956101e1565b6040805160ff9092168252519081900360200190f35b6100b36101ea565b60408051918252519081900360200190f35b6100b36101fe565b6100d5610204565b6040805160208082528351818301528351919283929083019185019080838360005b8381101561010f5781810151838201526020016100f7565b50505050905090810190601f16801561013c5780820380516001836020036101000a031916815260200191505b509250505060405180910390f35b6101676004803603602081101561016057600080fd5b503561028f565b005b6101926004803603602081101561017f57600080fd5b503569ffffffffffffffffffff16610294565b6040805169ffffffffffffffffffff96871681526020810195909552848101939093526060840191909152909216608082015290519081900360a00190f35b6100b36102e1565b6101926102e7565b60015460ff1681565b60006101f46102e7565b5091949350505050565b60035481565b6002805460408051602060018416156101000260001901909316849004601f810184900484028201840190925281815292918301828280156102875780601f1061025c57610100808354040283529160200191610287565b820191906000526020600020905b81548152906001019060200180831161026a57829003601f168201915b505050505081565b600055565b6040805162461bcd60e51b81526020600482015260136024820152722a32b9ba1034b6b83632b6b2b73a30ba34b7b760691b60448201529051600091829182918291829181900360640190fd5b60005481565b60008054909182908190819056fea2646970667358221220d9676308a9503f882d1a7c8c0f36d69ccc9731b3cd74653f993da5bdd4a09b4564736f6c63430006060033",
  "immutableReferences": {},
  "source": "pragma solidity ^0.6.6;\n\n//import \"@chainlink/contracts/src/v0.6/interfaces/AggregatorV3Interface.sol\";\ninterface AggregatorV3Interface {\n\n  function decimals() external view returns (uint8);\n  function description() external view returns (string memory);\n  function version() external view returns (uint256);\n\n  // getRoundData and latestRoundData should both raise \"No data present\"\n  // if they do not have data to report, instead of returning unset values\n  // which could be misinterpreted as actual reported values.\n  function getRoundData(uint80 _roundId)\n    external\n    view\n    returns (\n      uint80 roundId,\n      int256 answer,\n      uint256 startedAt,\n      uint256 updatedAt,\n      uint80 answeredInRound\n    );\n  function latestRoundData()\n    external\n    view\n    returns (\n      uint80 roundId,\n      int256 answer,\n      uint256 startedAt,\n      uint256 updatedAt,\n      uint80 answeredInRound\n    );\n\n}\ncontract FakePriceProvider is AggregatorV3Interface {\n    uint256 public price;\n    uint8 public override decimals = 8;\n    string public override description = \"Test implementatiln\";\n    uint256 public override version = 0;\n\n    constructor(uint256 _price) public {\n        price = _price;\n    }\n\n    function setPrice(uint256 _price) external {\n        price = _price;\n    }\n\n    function getRoundData(uint80) external override view returns (uint80, int256, uint256, uint256, uint80) {\n        revert(\"Test implementation\");\n    }\n\n    function latestAnswer() external view returns(int result) {\n        (, result, , , ) = latestRoundData();\n    }\n\n    function latestRoundData()\n        public\n        override\n        view\n        returns (\n            uint80,\n            int256 answer,\n            uint256,\n            uint256,\n            uint80\n        )\n    {\n        answer = int(price);\n    }\n}\n\n",
  "sourcePath": "/Users/x/Desktop/eth/BIOPv3/contracts/FakePriceProvider.sol",
  "compiler": {
    "name": "solc",
    "version": "0.6.6+commit.6c089d02.Emscripten.clang"
  },
  "schemaVersion": "3.2.5",
  "updatedAt": "2021-02-04T07:06:41.389Z",
  "networkType": "ethereum",
  "devdoc": {
    "methods": {}
  },
  "userdoc": {
    "methods": {}
  }
}