{
  "contractName": "Owned",
  "abi": [
    {
      "inputs": [],
      "stateMutability": "nonpayable",
      "type": "constructor"
    },
    {
      "anonymous": false,
      "inputs": [
        {
          "indexed": true,
          "internalType": "address",
          "name": "from",
          "type": "address"
        },
        {
          "indexed": true,
          "internalType": "address",
          "name": "to",
          "type": "address"
        }
      ],
      "name": "OwnershipTransferRequested",
      "type": "event"
    },
    {
      "anonymous": false,
      "inputs": [
        {
          "indexed": true,
          "internalType": "address",
          "name": "from",
          "type": "address"
        },
        {
          "indexed": true,
          "internalType": "address",
          "name": "to",
          "type": "address"
        }
      ],
      "name": "OwnershipTransferred",
      "type": "event"
    },
    {
      "inputs": [],
      "name": "owner",
      "outputs": [
        {
          "internalType": "address",
          "name": "",
          "type": "address"
        }
      ],
      "stateMutability": "view",
      "type": "function"
    },
    {
      "inputs": [
        {
          "internalType": "address",
          "name": "_to",
          "type": "address"
        }
      ],
      "name": "transferOwnership",
      "outputs": [],
      "stateMutability": "nonpayable",
      "type": "function"
    },
    {
      "inputs": [],
      "name": "acceptOwnership",
      "outputs": [],
      "stateMutability": "nonpayable",
      "type": "function"
    }
  ],
  "bytecode": "0x608060405234801561001057600080fd5b50600080546001600160a01b03191633179055610237806100326000396000f3fe608060405234801561001057600080fd5b50600436106100415760003560e01c806379ba5097146100465780638da5cb5b14610050578063f2fde38b14610074575b600080fd5b61004e61009a565b005b610058610149565b604080516001600160a01b039092168252519081900360200190f35b61004e6004803603602081101561008a57600080fd5b50356001600160a01b0316610158565b6001546001600160a01b031633146100f2576040805162461bcd60e51b815260206004820152601660248201527526bab9ba10313290383937b837b9b2b21037bbb732b960511b604482015290519081900360640190fd5b60008054336001600160a01b0319808316821784556001805490911690556040516001600160a01b0390921692909183917f8be0079c531659141344cd1fd0a4f28419497f9722a3daafe3b4186f6b6457e091a350565b6000546001600160a01b031681565b6000546001600160a01b031633146101b0576040805162461bcd60e51b815260206004820152601660248201527527b7363c9031b0b63630b1363290313c9037bbb732b960511b604482015290519081900360640190fd5b600180546001600160a01b0319166001600160a01b0383811691821790925560008054604051929316917fed8889f560326eb138920d842192f0eb3dd22b4f139c87a2c57538e05bae12789190a35056fea2646970667358221220f52195e63b38181a47e4deefe5483e172b55c21ac7731e83ba6b5e6ff429b38e64736f6c63430006060033",
  "immutableReferences": {},
  "source": "pragma solidity ^0.6.0;\n\n/**\n * @title The Owned contract\n * @notice A contract with helpers for basic contract ownership.\n */\ncontract Owned {\n\n  address public owner;\n  address private pendingOwner;\n\n  event OwnershipTransferRequested(\n    address indexed from,\n    address indexed to\n  );\n  event OwnershipTransferred(\n    address indexed from,\n    address indexed to\n  );\n\n  constructor() public {\n    owner = msg.sender;\n  }\n\n  /**\n   * @dev Allows an owner to begin transferring ownership to a new address,\n   * pending.\n   */\n  function transferOwnership(address _to)\n    external\n    onlyOwner()\n  {\n    pendingOwner = _to;\n\n    emit OwnershipTransferRequested(owner, _to);\n  }\n\n  /**\n   * @dev Allows an ownership transfer to be completed by the recipient.\n   */\n  function acceptOwnership()\n    external\n  {\n    require(msg.sender == pendingOwner, \"Must be proposed owner\");\n\n    address oldOwner = owner;\n    owner = msg.sender;\n    pendingOwner = address(0);\n\n    emit OwnershipTransferred(oldOwner, msg.sender);\n  }\n\n  /**\n   * @dev Reverts if called by anyone other than the contract owner.\n   */\n  modifier onlyOwner() {\n    require(msg.sender == owner, \"Only callable by owner\");\n    _;\n  }\n\n}\n",
  "sourcePath": "@chainlink/contracts/src/v0.6/Owned.sol",
  "compiler": {
    "name": "solc",
    "version": "0.6.6+commit.6c089d02.Emscripten.clang"
  },
  "schemaVersion": "3.2.5",
  "updatedAt": "2021-01-25T07:34:52.791Z",
  "devdoc": {
    "methods": {
      "acceptOwnership()": {
        "details": "Allows an ownership transfer to be completed by the recipient."
      },
      "transferOwnership(address)": {
        "details": "Allows an owner to begin transferring ownership to a new address, pending."
      }
    },
    "title": "The Owned contract"
  },
  "userdoc": {
    "methods": {},
    "notice": "A contract with helpers for basic contract ownership."
  }
}