{
  "contractName": "RateCalc",
  "abi": [
    {
      "inputs": [
        {
          "internalType": "uint256",
          "name": "amount",
          "type": "uint256"
        },
        {
          "internalType": "uint256",
          "name": "maxAvailable",
          "type": "uint256"
        },
        {
          "internalType": "uint256",
          "name": "newPrice",
          "type": "uint256"
        },
        {
          "internalType": "uint256",
          "name": "t",
          "type": "uint256"
        },
        {
          "internalType": "bool",
          "name": "k",
          "type": "bool"
        }
      ],
      "name": "rate",
      "outputs": [
        {
          "internalType": "uint256",
          "name": "",
          "type": "uint256"
        }
      ],
      "stateMutability": "view",
      "type": "function",
      "constant": true
    }
  ],
  "bytecode": "0x608060405234801561001057600080fd5b50610476806100206000396000f3fe608060405234801561001057600080fd5b506004361061002b5760003560e01c8063ea7044ed14610030575b600080fd5b610067600480360360a081101561004657600080fd5b50803590602081013590604081013590606081013590608001351515610079565b60408051918252519081900360200190f35b6000848611156100ba5760405162461bcd60e51b81526004018080602001828103825260218152602001806103ff6021913960400191505060405180910390fd5b60006100cd87600a63ffffffff6101c216565b905060006100e287600263ffffffff6101c216565b9050808811156101185761010f8261010381818c600263ffffffff61020d16565b9063ffffffff61026616565b925050506101b9565b811561013f5761010f826101338a600263ffffffff61020d16565b9063ffffffff6102c016565b600061015289600463ffffffff6101c216565b90506000811161019e576040805162461bcd60e51b81526020600482015260126024820152711a5b9d985b1a590818995d08185b5bdd5b9d60721b604482015290519081900360640190fd5b6101b3816101338b600263ffffffff61020d16565b93505050505b95945050505050565b600061020483836040518060400160405280601a81526020017f536166654d6174683a206469766973696f6e206279207a65726f000000000000815250610302565b90505b92915050565b60008261021c57506000610207565b8282028284828161022957fe5b04146102045760405162461bcd60e51b81526004018080602001828103825260218152602001806104206021913960400191505060405180910390fd5b600082820183811015610204576040805162461bcd60e51b815260206004820152601b60248201527f536166654d6174683a206164646974696f6e206f766572666c6f770000000000604482015290519081900360640190fd5b600061020483836040518060400160405280601e81526020017f536166654d6174683a207375627472616374696f6e206f766572666c6f7700008152506103a4565b6000818361038e5760405162461bcd60e51b81526004018080602001828103825283818151815260200191508051906020019080838360005b8381101561035357818101518382015260200161033b565b50505050905090810190601f1680156103805780820380516001836020036101000a031916815260200191505b509250505060405180910390fd5b50600083858161039a57fe5b0495945050505050565b600081848411156103f65760405162461bcd60e51b815260206004820181815283516024840152835190928392604490910191908501908083836000831561035357818101518382015260200161033b565b50505090039056fe67726561746572207468656e20706f6f6c2066756e647320617661696c61626c65536166654d6174683a206d756c7469706c69636174696f6e206f766572666c6f77a26469706673582212204f643865bbd94d9e7a3dec5eb489b228bca9cef1cfd8581382c053368e10ecc264736f6c63430006060033",
  "immutableReferences": {},
  "source": "pragma solidity ^0.6.6;\n\n\nimport \"@openzeppelin/contracts/math/SafeMath.sol\";\ninterface IRCD {\n    /**\n     * @notice Returns the rate to pay out for a given amount\n     * @param amount the bet amount to calc a payout for\n     * @param maxAvailable the total pooled ETH unlocked and available to bet\n     * @param newPrice the current price of the underlying\n     * @param t time for the option\n     * @param k true for call false for put\n     * @return profit total possible profit amount\n     *\n     */\n    function rate(uint256 amount, uint256 maxAvailable, uint256 newPrice, uint256 t, bool k) external view returns (uint256);\n\n}\n\ncontract RateCalc is IRCD {\n    using SafeMath for uint256;\n     /**\n     * @notice Calculates maximum option buyer profit\n     * @param amount Option amount\n     * @param maxAvailable the total pooled ETH unlocked and available to bet\n     * @param newPrice the current price of the underlying\n     * @param t time for the option\n     * @param k true for call false for put\n     * @return profit total possible profit amount\n     */\n    function rate(uint256 amount, uint256 maxAvailable, uint256 newPrice, uint256 t, bool k) external view override returns (uint256)  {\n        require(amount <= maxAvailable, \"greater then pool funds available\");\n        \n        uint256 oneTenth = amount.div(10);\n        uint256 halfMax = maxAvailable.div(2);\n        if (amount > halfMax) {\n            return amount.mul(2).add(oneTenth).add(oneTenth);\n        } else {\n            if(oneTenth > 0) {\n                return amount.mul(2).sub(oneTenth);\n            } else {\n                uint256 oneThird = amount.div(4);\n                require(oneThird > 0, \"invalid bet amount\");\n                return amount.mul(2).sub(oneThird);\n            }\n        }\n        \n    }\n}\n\n",
  "sourcePath": "/Users/x/Desktop/eth/BIOPv3/contracts/RateCalc.sol",
  "compiler": {
    "name": "solc",
    "version": "0.6.6+commit.6c089d02.Emscripten.clang"
  },
  "schemaVersion": "3.2.5",
  "updatedAt": "2021-02-04T07:06:41.392Z",
  "networkType": "ethereum",
  "devdoc": {
    "methods": {
      "rate(uint256,uint256,uint256,uint256,bool)": {
        "params": {
          "amount": "Option amount",
          "k": "true for call false for put",
          "maxAvailable": "the total pooled ETH unlocked and available to bet",
          "newPrice": "the current price of the underlying",
          "t": "time for the option"
        },
        "returns": {
          "_0": "profit total possible profit amount"
        }
      }
    }
  },
  "userdoc": {
    "methods": {
      "rate(uint256,uint256,uint256,uint256,bool)": {
        "notice": "Calculates maximum option buyer profit"
      }
    }
  }
}