{
  "contractName": "RateCalc20Percent",
  "abi": [
    {
      "inputs": [
        {
          "internalType": "uint256",
          "name": "amount",
          "type": "uint256"
        },
        {
          "internalType": "uint256",
          "name": "maxAvailable",
          "type": "uint256"
        },
        {
          "internalType": "uint256",
          "name": "newPrice",
          "type": "uint256"
        },
        {
          "internalType": "uint256",
          "name": "t",
          "type": "uint256"
        },
        {
          "internalType": "bool",
          "name": "k",
          "type": "bool"
        }
      ],
      "name": "rate",
      "outputs": [
        {
          "internalType": "uint256",
          "name": "",
          "type": "uint256"
        }
      ],
      "stateMutability": "view",
      "type": "function"
    }
  ],
  "bytecode": "0x608060405234801561001057600080fd5b5061048c806100206000396000f3fe608060405234801561001057600080fd5b506004361061002b5760003560e01c8063ea7044ed14610030575b600080fd5b610067600480360360a081101561004657600080fd5b50803590602081013590604081013590606081013590608001351515610079565b60408051918252519081900360200190f35b60008061008d86600563ffffffff6101d816565b9050808711156100ce5760405162461bcd60e51b81526004018080602001828103825260218152602001806104156021913960400191505060405180910390fd5b60006100e188600a63ffffffff6101d816565b905060006100f683600263ffffffff6101d816565b90508089111561012d576101238261011781818d600263ffffffff61022316565b9063ffffffff61027c16565b93505050506101cf565b811561015457610123826101488b600263ffffffff61022316565b9063ffffffff6102d616565b60006101678a600463ffffffff6101d816565b9050600081116101b3576040805162461bcd60e51b81526020600482015260126024820152711a5b9d985b1a590818995d08185b5bdd5b9d60721b604482015290519081900360640190fd5b6101c8816101488c600263ffffffff61022316565b9450505050505b95945050505050565b600061021a83836040518060400160405280601a81526020017f536166654d6174683a206469766973696f6e206279207a65726f000000000000815250610318565b90505b92915050565b6000826102325750600061021d565b8282028284828161023f57fe5b041461021a5760405162461bcd60e51b81526004018080602001828103825260218152602001806104366021913960400191505060405180910390fd5b60008282018381101561021a576040805162461bcd60e51b815260206004820152601b60248201527f536166654d6174683a206164646974696f6e206f766572666c6f770000000000604482015290519081900360640190fd5b600061021a83836040518060400160405280601e81526020017f536166654d6174683a207375627472616374696f6e206f766572666c6f7700008152506103ba565b600081836103a45760405162461bcd60e51b81526004018080602001828103825283818151815260200191508051906020019080838360005b83811015610369578181015183820152602001610351565b50505050905090810190601f1680156103965780820380516001836020036101000a031916815260200191505b509250505060405180910390fd5b5060008385816103b057fe5b0495945050505050565b6000818484111561040c5760405162461bcd60e51b8152602060048201818152835160248401528351909283926044909101919085019080838360008315610369578181015183820152602001610351565b50505090039056fe67726561746572207468656e20706f6f6c2066756e647320617661696c61626c65536166654d6174683a206d756c7469706c69636174696f6e206f766572666c6f77a26469706673582212205eb86d5898267f623d19ba1cd38d41c1ce76f27ae277917652dd827a2622c40264736f6c63430006060033",
  "immutableReferences": {},
  "source": "pragma solidity ^0.6.6;\n\n\nimport \"@openzeppelin/contracts/math/SafeMath.sol\";\nimport \"./RateCalc.sol\";\n\ncontract RateCalc20Percent is IRCD {\n    using SafeMath for uint256;\n     /**\n     * @notice Calculates maximum option buyer profit\n     * @param amount Option amount\n     * @param maxAvailable the total pooled ETH unlocked and available to bet\n     * @param newPrice the price of the underlying at time rate is requested\n     * @param t time for the option\n     * @param k true for call false for put\n     * @return profit total possible profit amount\n     */\n    function rate(uint256 amount, uint256 maxAvailable, uint256 newPrice, uint256 t, bool k) external view override returns (uint256)  {\n        uint256 twentyPercent = maxAvailable.div(5);\n        require(amount <= twentyPercent, \"greater then pool funds available\");\n        uint256 oneTenth = amount.div(10);\n        uint256 halfMax = twentyPercent.div(2);\n        if (amount > halfMax) {\n            return amount.mul(2).add(oneTenth).add(oneTenth);\n        } else {\n            if(oneTenth > 0) {\n                return amount.mul(2).sub(oneTenth);\n            } else {\n                uint256 oneThird = amount.div(4);\n                require(oneThird > 0, \"invalid bet amount\");\n                return amount.mul(2).sub(oneThird);\n            }\n        }\n        \n    }\n}\n\n",
  "sourcePath": "/Users/x/Desktop/eth/BIOPv3/contracts/RateCalc20Percent.sol",
  "compiler": {
    "name": "solc",
    "version": "0.6.6+commit.6c089d02.Emscripten.clang"
  },
  "schemaVersion": "3.2.5",
  "updatedAt": "2021-02-04T04:55:37.712Z",
  "devdoc": {
    "methods": {
      "rate(uint256,uint256,uint256,uint256,bool)": {
        "params": {
          "amount": "Option amount",
          "k": "true for call false for put",
          "maxAvailable": "the total pooled ETH unlocked and available to bet",
          "newPrice": "the price of the underlying at time rate is requested",
          "t": "time for the option"
        },
        "returns": {
          "_0": "profit total possible profit amount"
        }
      }
    }
  },
  "userdoc": {
    "methods": {
      "rate(uint256,uint256,uint256,uint256,bool)": {
        "notice": "Calculates maximum option buyer profit"
      }
    }
  }
}