{
  "_format": "hh-sol-artifact-1",
  "contractName": "RateCalc",
  "sourceName": "contracts/RateCalc.sol",
  "abi": [
    {
      "inputs": [
        {
          "internalType": "uint256",
          "name": "amount",
          "type": "uint256"
        },
        {
          "internalType": "uint256",
          "name": "maxAvailable",
          "type": "uint256"
        },
        {
          "internalType": "uint256",
          "name": "l",
          "type": "uint256"
        },
        {
          "internalType": "uint256",
          "name": "t",
          "type": "uint256"
        },
        {
          "internalType": "bool",
          "name": "k",
          "type": "bool"
        },
        {
          "internalType": "uint256",
          "name": "s",
          "type": "uint256"
        }
      ],
      "name": "rate",
      "outputs": [
        {
          "internalType": "uint256",
          "name": "",
          "type": "uint256"
        }
      ],
      "stateMutability": "view",
      "type": "function"
    }
  ],
  "bytecode": "0x608060405234801561001057600080fd5b50610508806100206000396000f3fe608060405234801561001057600080fd5b506004361061002b5760003560e01c80631f580c0314610030575b600080fd5b610090600480360360c081101561004657600080fd5b8101908080359060200190929190803590602001909291908035906020019092919080359060200190929190803515159060200190929190803590602001909291905050506100a6565b6040518082815260200191505060405180910390f35b600085871115610101576040517f08c379a00000000000000000000000000000000000000000000000000000000081526004018080602001828103825260218152602001806104916021913960400191505060405180910390fd5b6000610117600a8961027690919063ffffffff16565b9050600061012f60028961027690919063ffffffff16565b90508089111561017a57610171826101638461015560028e6102ff90919063ffffffff16565b61038590919063ffffffff16565b61038590919063ffffffff16565b9250505061026c565b60008211156101b2576101a98261019b60028c6102ff90919063ffffffff16565b61040d90919063ffffffff16565b9250505061026c565b60006101c860048b61027690919063ffffffff16565b905060008111610240576040517f08c379a00000000000000000000000000000000000000000000000000000000081526004018080602001828103825260128152602001807f696e76616c69642062657420616d6f756e74000000000000000000000000000081525060200191505060405180910390fd5b6102668161025860028d6102ff90919063ffffffff16565b61040d90919063ffffffff16565b93505050505b9695505050505050565b60008082116102ed576040517f08c379a000000000000000000000000000000000000000000000000000000000815260040180806020018281038252601a8152602001807f536166654d6174683a206469766973696f6e206279207a65726f00000000000081525060200191505060405180910390fd5b8183816102f657fe5b04905092915050565b600080831415610312576000905061037f565b600082840290508284828161032357fe5b041461037a576040517f08c379a00000000000000000000000000000000000000000000000000000000081526004018080602001828103825260218152602001806104b26021913960400191505060405180910390fd5b809150505b92915050565b600080828401905083811015610403576040517f08c379a000000000000000000000000000000000000000000000000000000000815260040180806020018281038252601b8152602001807f536166654d6174683a206164646974696f6e206f766572666c6f77000000000081525060200191505060405180910390fd5b8091505092915050565b600082821115610485576040517f08c379a000000000000000000000000000000000000000000000000000000000815260040180806020018281038252601e8152602001807f536166654d6174683a207375627472616374696f6e206f766572666c6f77000081525060200191505060405180910390fd5b81830390509291505056fe67726561746572207468656e20706f6f6c2066756e647320617661696c61626c65536166654d6174683a206d756c7469706c69636174696f6e206f766572666c6f77a26469706673582212202eeb011b709732ec9713f10598139e3dc84a414b07c6bb8e4c087a275ac8cf3964736f6c63430006060033",
  "linkReferences": {},
  "deployedLinkReferences": {}
}