{
  "_format": "hh-sol-artifact-1",
  "contractName": "AdaptiveRateCalc",
  "sourceName": "contracts/AdaptiveRateCalc.sol",
  "abi": [
    {
      "inputs": [
        {
          "internalType": "uint256",
          "name": "amount",
          "type": "uint256"
        },
        {
          "internalType": "uint256",
          "name": "maxAvailable",
          "type": "uint256"
        },
        {
          "internalType": "uint256",
          "name": "l",
          "type": "uint256"
        },
        {
          "internalType": "uint256",
          "name": "t",
          "type": "uint256"
        },
        {
          "internalType": "bool",
          "name": "k",
          "type": "bool"
        },
        {
          "internalType": "uint256",
          "name": "s",
          "type": "uint256"
        }
      ],
      "name": "rate",
      "outputs": [
        {
          "internalType": "uint256",
          "name": "",
          "type": "uint256"
        }
      ],
      "stateMutability": "view",
      "type": "function"
    }
  ],
  "bytecode": "0x608060405234801561001057600080fd5b506104ae806100206000396000f3fe608060405234801561001057600080fd5b506004361061002b5760003560e01c80631f580c0314610030575b600080fd5b610090600480360360c081101561004657600080fd5b8101908080359060200190929190803590602001909291908035906020019092919080359060200190929190803515159060200190929190803590602001909291905050506100a6565b6040518082815260200191505060405180910390f35b600080821161011d576040517f08c379a000000000000000000000000000000000000000000000000000000000815260040180806020018281038252600d8152602001807f696e76616c696420737461636b0000000000000000000000000000000000000081525060200191505060405180910390fd5b6101326103e88761023d90919063ffffffff16565b8510156101545761014d6002886102c690919063ffffffff16565b9050610233565b600061017c8361016e600a8a61023d90919063ffffffff16565b61023d90919063ffffffff16565b9050600061019460028361023d90919063ffffffff16565b905060006101ac60028b6102c690919063ffffffff16565b90506107088711156101e1576101de6101cf60048c61023d90919063ffffffff16565b8261034c90919063ffffffff16565b90505b808211156101f457809350505050610233565b8982101561022c5761022261021360648c61023d90919063ffffffff16565b8b6103cf90919063ffffffff16565b9350505050610233565b8193505050505b9695505050505050565b60008082116102b4576040517f08c379a000000000000000000000000000000000000000000000000000000000815260040180806020018281038252601a8152602001807f536166654d6174683a206469766973696f6e206279207a65726f00000000000081525060200191505060405180910390fd5b8183816102bd57fe5b04905092915050565b6000808314156102d95760009050610346565b60008284029050828482816102ea57fe5b0414610341576040517f08c379a00000000000000000000000000000000000000000000000000000000081526004018080602001828103825260218152602001806104586021913960400191505060405180910390fd5b809150505b92915050565b6000828211156103c4576040517f08c379a000000000000000000000000000000000000000000000000000000000815260040180806020018281038252601e8152602001807f536166654d6174683a207375627472616374696f6e206f766572666c6f77000081525060200191505060405180910390fd5b818303905092915050565b60008082840190508381101561044d576040517f08c379a000000000000000000000000000000000000000000000000000000000815260040180806020018281038252601b8152602001807f536166654d6174683a206164646974696f6e206f766572666c6f77000000000081525060200191505060405180910390fd5b809150509291505056fe536166654d6174683a206d756c7469706c69636174696f6e206f766572666c6f77a2646970667358221220eafaee232a3712b5b6e8f61ef894ab58dcd0c2b7bb79bb850f9eded7ae5b5cb964736f6c63430006060033",
  "linkReferences": {},
  "deployedLinkReferences": {}
}