{
  "_format": "hh-sol-artifact-1",
  "contractName": "DelegatedAccessTiers",
  "sourceName": "contracts/DelegatedGov.sol",
  "abi": [
    {
      "inputs": [
        {
          "internalType": "uint256",
          "name": "power",
          "type": "uint256"
        },
        {
          "internalType": "uint256",
          "name": "total",
          "type": "uint256"
        }
      ],
      "name": "tier1",
      "outputs": [
        {
          "internalType": "bool",
          "name": "",
          "type": "bool"
        }
      ],
      "stateMutability": "nonpayable",
      "type": "function"
    },
    {
      "inputs": [
        {
          "internalType": "uint256",
          "name": "power",
          "type": "uint256"
        },
        {
          "internalType": "uint256",
          "name": "total",
          "type": "uint256"
        }
      ],
      "name": "tier2",
      "outputs": [
        {
          "internalType": "bool",
          "name": "",
          "type": "bool"
        }
      ],
      "stateMutability": "nonpayable",
      "type": "function"
    },
    {
      "inputs": [
        {
          "internalType": "uint256",
          "name": "power",
          "type": "uint256"
        },
        {
          "internalType": "uint256",
          "name": "total",
          "type": "uint256"
        }
      ],
      "name": "tier3",
      "outputs": [
        {
          "internalType": "bool",
          "name": "",
          "type": "bool"
        }
      ],
      "stateMutability": "nonpayable",
      "type": "function"
    },
    {
      "inputs": [
        {
          "internalType": "uint256",
          "name": "power",
          "type": "uint256"
        },
        {
          "internalType": "uint256",
          "name": "total",
          "type": "uint256"
        }
      ],
      "name": "tier4",
      "outputs": [
        {
          "internalType": "bool",
          "name": "",
          "type": "bool"
        }
      ],
      "stateMutability": "nonpayable",
      "type": "function"
    }
  ],
  "bytecode": "0x608060405234801561001057600080fd5b50610408806100206000396000f3fe608060405234801561001057600080fd5b506004361061004c5760003560e01c80632786d65e1461005157806360e96238146100a15780636aac3462146100f1578063b930926b14610141575b600080fd5b6100876004803603604081101561006757600080fd5b810190808035906020019092919080359060200190929190505050610191565b604051808215151515815260200191505060405180910390f35b6100d7600480360360408110156100b757600080fd5b8101908080359060200190929190803590602001909291905050506101da565b604051808215151515815260200191505060405180910390f35b6101276004803603604081101561010757600080fd5b810190808035906020019092919080359060200190929190505050610210565b604051808215151515815260200191505060405180910390f35b6101776004803603604081101561015757600080fd5b810190808035906020019092919080359060200190929190505050610259565b604051808215151515815260200191505060405180910390f35b6000806101bb60096101ad600a866102a290919063ffffffff16565b61032b90919063ffffffff16565b90508084106101ce5760019150506101d4565b60009150505b92915050565b6000806101f16002846102a290919063ffffffff16565b905080841061020457600191505061020a565b60009150505b92915050565b60008061023a600361022c6004866102a290919063ffffffff16565b61032b90919063ffffffff16565b905080841061024d576001915050610253565b60009150505b92915050565b60008061028360026102756003866102a290919063ffffffff16565b61032b90919063ffffffff16565b905080841061029657600191505061029c565b60009150505b92915050565b6000808211610319576040517f08c379a000000000000000000000000000000000000000000000000000000000815260040180806020018281038252601a8152602001807f536166654d6174683a206469766973696f6e206279207a65726f00000000000081525060200191505060405180910390fd5b81838161032257fe5b04905092915050565b60008083141561033e57600090506103ab565b600082840290508284828161034f57fe5b04146103a6576040517f08c379a00000000000000000000000000000000000000000000000000000000081526004018080602001828103825260218152602001806103b26021913960400191505060405180910390fd5b809150505b9291505056fe536166654d6174683a206d756c7469706c69636174696f6e206f766572666c6f77a2646970667358221220ebcace6bf45d11126958f35f8f25905ca260d48d054382bcc2233c7bdb98fd6e64736f6c63430006060033",
  "linkReferences": {},
  "deployedLinkReferences": {}
}