{
  "_format": "hh-sol-artifact-1",
  "contractName": "BondingCurve",
  "sourceName": "contracts/depreciated/BondingCurve.sol",
  "abi": [
    {
      "inputs": [
        {
          "internalType": "address payable",
          "name": "tk_",
          "type": "address"
        },
        {
          "internalType": "uint32",
          "name": "_reserveRatio",
          "type": "uint32"
        }
      ],
      "stateMutability": "nonpayable",
      "type": "constructor"
    },
    {
      "inputs": [],
      "name": "buy",
      "outputs": [
        {
          "internalType": "uint256",
          "name": "",
          "type": "uint256"
        }
      ],
      "stateMutability": "payable",
      "type": "function"
    },
    {
      "inputs": [],
      "name": "buyFee",
      "outputs": [
        {
          "internalType": "uint256",
          "name": "",
          "type": "uint256"
        }
      ],
      "stateMutability": "view",
      "type": "function"
    },
    {
      "inputs": [
        {
          "internalType": "uint256",
          "name": "_supply",
          "type": "uint256"
        },
        {
          "internalType": "uint256",
          "name": "_reserveBalance",
          "type": "uint256"
        },
        {
          "internalType": "uint32",
          "name": "_reserveRatio",
          "type": "uint32"
        },
        {
          "internalType": "uint256",
          "name": "_depositAmount",
          "type": "uint256"
        }
      ],
      "name": "calculatePurchaseReturn",
      "outputs": [
        {
          "internalType": "uint256",
          "name": "",
          "type": "uint256"
        }
      ],
      "stateMutability": "view",
      "type": "function"
    },
    {
      "inputs": [
        {
          "internalType": "uint256",
          "name": "_supply",
          "type": "uint256"
        },
        {
          "internalType": "uint256",
          "name": "_reserveBalance",
          "type": "uint256"
        },
        {
          "internalType": "uint32",
          "name": "_reserveRatio",
          "type": "uint32"
        },
        {
          "internalType": "uint256",
          "name": "_sellAmount",
          "type": "uint256"
        }
      ],
      "name": "calculateSaleReturn",
      "outputs": [
        {
          "internalType": "uint256",
          "name": "",
          "type": "uint256"
        }
      ],
      "stateMutability": "view",
      "type": "function"
    },
    {
      "inputs": [],
      "name": "continuousSupply",
      "outputs": [
        {
          "internalType": "uint256",
          "name": "",
          "type": "uint256"
        }
      ],
      "stateMutability": "view",
      "type": "function"
    },
    {
      "inputs": [
        {
          "internalType": "uint256",
          "name": "_continuousTokenAmount",
          "type": "uint256"
        }
      ],
      "name": "getContinuousBurnRefund",
      "outputs": [
        {
          "internalType": "uint256",
          "name": "",
          "type": "uint256"
        }
      ],
      "stateMutability": "view",
      "type": "function"
    },
    {
      "inputs": [
        {
          "internalType": "uint256",
          "name": "_reserveTokenAmount",
          "type": "uint256"
        }
      ],
      "name": "getContinuousMintReward",
      "outputs": [
        {
          "internalType": "uint256",
          "name": "",
          "type": "uint256"
        }
      ],
      "stateMutability": "view",
      "type": "function"
    },
    {
      "inputs": [],
      "name": "reserveBalance",
      "outputs": [
        {
          "internalType": "uint256",
          "name": "",
          "type": "uint256"
        }
      ],
      "stateMutability": "view",
      "type": "function"
    },
    {
      "inputs": [],
      "name": "reserveRatio",
      "outputs": [
        {
          "internalType": "uint32",
          "name": "",
          "type": "uint32"
        }
      ],
      "stateMutability": "view",
      "type": "function"
    },
    {
      "inputs": [
        {
          "internalType": "uint256",
          "name": "amount",
          "type": "uint256"
        }
      ],
      "name": "sell",
      "outputs": [
        {
          "internalType": "uint256",
          "name": "",
          "type": "uint256"
        }
      ],
      "stateMutability": "nonpayable",
      "type": "function"
    },
    {
      "inputs": [],
      "name": "sellFee",
      "outputs": [
        {
          "internalType": "uint256",
          "name": "",
          "type": "uint256"
        }
      ],
      "stateMutability": "view",
      "type": "function"
    },
    {
      "inputs": [],
      "name": "soldAmount",
      "outputs": [
        {
          "internalType": "uint256",
          "name": "",
          "type": "uint256"
        }
      ],
      "stateMutability": "view",
      "type": "function"
    },
    {
      "inputs": [],
      "name": "tbca",
      "outputs": [
        {
          "internalType": "uint256",
          "name": "",
          "type": "uint256"
        }
      ],
      "stateMutability": "view",
      "type": "function"
    },
    {
      "inputs": [],
      "name": "tk",
      "outputs": [
        {
          "internalType": "address",
          "name": "",
          "type": "address"
        }
      ],
      "stateMutability": "view",
      "type": "function"
    },
    {
      "inputs": [],
      "name": "version",
      "outputs": [
        {
          "internalType": "string",
          "name": "",
          "type": "string"
        }
      ],
      "stateMutability": "view",
      "type": "function"
    }
  ],
  "bytecode": "0x60806040526040518060400160405280600381526020017f302e330000000000000000000000000000000000000000000000000000000000815250600090805190602001906200005192919062000f9d565b506c050c783eb9b5c85f2a800000006083556000608455600260855560006086553480156200007f57600080fd5b50604051620037203803806200372083398181016040526040811015620000a557600080fd5b81019080805190602001909291908051906020019092919050505080701c35fedd14ffffffffffffffffffffffff6001602060808110620000e257fe5b0181905550701b0ce43b323fffffffffffffffffffffff60016021608081106200010857fe5b01819055507019f0028ec1ffffffffffffffffffffffff60016022608081106200012e57fe5b01819055507018ded91f0e7fffffffffffffffffffffff60016023608081106200015457fe5b01819055507017d8ec7f0417ffffffffffffffffffffff60016024608081106200017a57fe5b01819055507016ddc6556cdbffffffffffffffffffffff6001602560808110620001a057fe5b01819055507015ecf52776a1ffffffffffffffffffffff6001602660808110620001c657fe5b01819055507015060c256cb2ffffffffffffffffffffff6001602760808110620001ec57fe5b0181905550701428a2f98d72ffffffffffffffffffffff60016028608081106200021257fe5b01819055507013545598e5c23fffffffffffffffffffff60016029608081106200023857fe5b0181905550701288c4161ce1dfffffffffffffffffffff6001602a608081106200025e57fe5b01819055507011c592761c666fffffffffffffffffffff6001602b608081106200028457fe5b018190555070110a688680a757ffffffffffffffffffff6001602c60808110620002aa57fe5b0181905550701056f1b5bedf77ffffffffffffffffffff6001602d60808110620002d057fe5b0181905550700faadceceeff8bffffffffffffffffffff6001602e60808110620002f657fe5b0181905550700f05dc6b27edadffffffffffffffffffff6001602f608081106200031c57fe5b0181905550700e67a5a25da4107fffffffffffffffffff60016030608081106200034257fe5b0181905550700dcff115b14eedffffffffffffffffffff60016031608081106200036857fe5b0181905550700d3e7a392431239fffffffffffffffffff60016032608081106200038e57fe5b0181905550700cb2ff529eb71e4fffffffffffffffffff6001603360808110620003b457fe5b0181905550700c2d415c3db974afffffffffffffffffff6001603460808110620003da57fe5b0181905550700bad03e7d883f69bffffffffffffffffff60016035608081106200040057fe5b0181905550700b320d03b2c343d5ffffffffffffffffff60016036608081106200042657fe5b0181905550700abc25204e02828dffffffffffffffffff60016037608081106200044c57fe5b0181905550700a4b16f74ee4bb207fffffffffffffffff60016038608081106200047257fe5b01819055507009deaf736ac1f569ffffffffffffffffff60016039608081106200049857fe5b0181905550700976bd9952c7aa957fffffffffffffffff6001603a60808110620004be57fe5b01819055507009131271922eaa606fffffffffffffffff6001603b60808110620004e457fe5b01819055507008b380f3558668c46fffffffffffffffff6001603c608081106200050a57fe5b0181905550700857ddf0117efa215bffffffffffffffff6001603d608081106200053057fe5b01819055507007ffffffffffffffffffffffffffffffff6001603e608081106200055657fe5b01819055507007abbf6f6abb9d087fffffffffffffffff6001603f608081106200057c57fe5b018190555070075af62cbac95f7dfa7fffffffffffffff6001604060808110620005a257fe5b018190555070070d7fb7452e187ac13fffffffffffffff6001604160808110620005c857fe5b01819055507006c3390ecc8af379295fffffffffffffff6001604260808110620005ee57fe5b018190555070067c00a3b07ffc01fd6fffffffffffffff60016043608081106200061457fe5b0181905550700637b647c39cbb9d3d27ffffffffffffff60016044608081106200063a57fe5b01819055507005f63b1fc104dbd39587ffffffffffffff60016045608081106200066057fe5b01819055507005b771955b36e12f7235ffffffffffffff60016046608081106200068657fe5b018190555070057b3d49dda84556d6f6ffffffffffffff6001604760808110620006ac57fe5b018190555070054183095b2c8ececf30ffffffffffffff6001604860808110620006d257fe5b018190555070050a28be635ca2b888f77fffffffffffff6001604960808110620006f857fe5b01819055507004d5156639708c9db33c3fffffffffffff6001604a608081106200071e57fe5b01819055507004a23105873875bd52dfdfffffffffffff6001604b608081106200074457fe5b0181905550700471649d87199aa990756fffffffffffff6001604c608081106200076a57fe5b01819055507004429a21a029d4c1457cfbffffffffffff6001604d608081106200079057fe5b0181905550700415bc6d6fb7dd71af2cb3ffffffffffff6001604e60808110620007b657fe5b01819055507003eab73b3bbfe282243ce1ffffffffffff6001604f60808110620007dc57fe5b01819055507003c1771ac9fb6b4c18e229ffffffffffff60016050608081106200080257fe5b0181905550700399e96897690418f785257fffffffffff60016051608081106200082857fe5b0181905550700373fc456c53bb779bf0ea9fffffffffff60016052608081106200084e57fe5b018190555070034f9e8e490c48e67e6ab8bfffffffffff60016053608081106200087457fe5b018190555070032cbfd4a7adc790560b3337ffffffffff60016054608081106200089a57fe5b018190555070030b50570f6e5d2acca94613ffffffffff6001605560808110620008c057fe5b01819055507002eb40f9f620fda6b56c2861ffffffffff6001605660808110620008e657fe5b01819055507002cc8340ecb0d0f520a6af58ffffffffff60016057608081106200090c57fe5b01819055507002af09481380a0a35cf1ba02ffffffffff60016058608081106200093257fe5b0181905550700292c5bdd3b92ec810287b1b3fffffffff60016059608081106200095857fe5b0181905550700277abdcdab07d5a77ac6d6b9fffffffff6001605a608081106200097e57fe5b018190555070025daf6654b1eaa55fd64df5efffffffff6001605b60808110620009a457fe5b0181905550700244c49c648baa98192dce88b7ffffffff6001605c60808110620009ca57fe5b018190555070022ce03cd5619a311b2471268bffffffff6001605d60808110620009f057fe5b0181905550700215f77c045fbe885654a44a0fffffffff6001605e6080811062000a1657fe5b01819055507001ffffffffffffffffffffffffffffffff6001605f6080811062000a3c57fe5b01819055507001eaefdbdaaee7421fc4d3ede5ffffffff600160606080811062000a6257fe5b01819055507001d6bd8b2eb257df7e8ca57b09bfffffff600160616080811062000a8857fe5b01819055507001c35fedd14b861eb0443f7f133fffffff600160626080811062000aae57fe5b01819055507001b0ce43b322bcde4a56e8ada5afffffff600160636080811062000ad457fe5b018190555070019f0028ec1fff007f5a195a39dfffffff600160646080811062000afa57fe5b018190555070018ded91f0e72ee74f49b15ba527ffffff600160656080811062000b2057fe5b018190555070017d8ec7f04136f4e5615fd41a63ffffff600160666080811062000b4657fe5b018190555070016ddc6556cdb84bdc8d12d22e6fffffff600160676080811062000b6c57fe5b018190555070015ecf52776a1155b5bd8395814f7fffff600160686080811062000b9257fe5b018190555070015060c256cb23b3b3cc3754cf40ffffff600160696080811062000bb857fe5b01819055507001428a2f98d728ae223ddab715be3fffff6001606a6080811062000bde57fe5b018190555070013545598e5c23276ccf0ede68034fffff6001606b6080811062000c0457fe5b01819055507001288c4161ce1d6f54b7f61081194fffff6001606c6080811062000c2a57fe5b018190555070011c592761c666aa641d5a01a40f17ffff6001606d6080811062000c5057fe5b0181905550700110a688680a7530515f3e6e6cfdcdffff6001606e6080811062000c7657fe5b01819055507001056f1b5bedf75c6bcb2ce8aed428ffff6001606f6080811062000c9c57fe5b01819055506ffaadceceeff8a0890f3875f008277fff600160706080811062000cc157fe5b01819055506ff05dc6b27edad306388a600f6ba0bfff600160716080811062000ce657fe5b01819055506fe67a5a25da41063de1495d5b18cdbfff600160726080811062000d0b57fe5b01819055506fdcff115b14eedde6fc3aa5353f2e4fff600160736080811062000d3057fe5b01819055506fd3e7a3924312399f9aae2e0f868f8fff600160746080811062000d5557fe5b01819055506fcb2ff529eb71e41582cccd5a1ee26fff600160756080811062000d7a57fe5b01819055506fc2d415c3db974ab32a51840c0b67edff600160766080811062000d9f57fe5b01819055506fbad03e7d883f69ad5b0a186184e06bff600160776080811062000dc457fe5b01819055506fb320d03b2c343d4829abd6075f0cc5ff600160786080811062000de957fe5b01819055506fabc25204e02828d73c6e80bcdb1a95bf600160796080811062000e0e57fe5b01819055506fa4b16f74ee4bb2040a1ec6c15fbbf2df6001607a6080811062000e3357fe5b01819055506f9deaf736ac1f569deb1b5ae3f36c130f6001607b6080811062000e5857fe5b01819055506f976bd9952c7aa957f5937d790ef650376001607c6080811062000e7d57fe5b01819055506f9131271922eaa6064b73a22d0bd4f2bf6001607d6080811062000ea257fe5b01819055506f8b380f3558668c46c91c49a2f8e967b96001607e6080811062000ec757fe5b01819055506f857ddf0117efa215952912839f6473e66001607f6080811062000eec57fe5b018190555080608160006101000a81548163ffffffff021916908363ffffffff1602179055505033608160046101000a81548173ffffffffffffffffffffffffffffffffffffffff021916908373ffffffffffffffffffffffffffffffffffffffff16021790555081608260006101000a81548173ffffffffffffffffffffffffffffffffffffffff021916908373ffffffffffffffffffffffffffffffffffffffff16021790555050506200104c565b828054600181600116156101000203166002900490600052602060002090601f016020900481019282601f1062000fe057805160ff191683800117855562001011565b8280016001018555821562001011579182015b828111156200101057825182559160200191906001019062000ff3565b5b50905062001020919062001024565b5090565b6200104991905b80821115620010455760008160009055506001016200102b565b5090565b90565b6126c4806200105c6000396000f3fe6080604052600436106100e85760003560e01c806349f9b0f71161008a578063a6f2ae3a11610059578063a6f2ae3a1461043b578063da12457a14610459578063e4849b3214610484578063fa1a5f59146104d3576100e8565b806349f9b0f7146102be57806354fd4d50146103315780637cbed3e0146103c1578063a10954fe14610410576100e8565b806329a00e7c116100c657806329a00e7c146101ca5780632b14ca561461023d5780632d189a3f146102685780634706240214610293576100e8565b80630c7d5cd8146100ed5780630d8f9f7f1461012457806321f408be14610173575b600080fd5b3480156100f957600080fd5b506101026104fe565b604051808263ffffffff1663ffffffff16815260200191505060405180910390f35b34801561013057600080fd5b5061015d6004803603602081101561014757600080fd5b8101908080359060200190929190505050610514565b6040518082815260200191505060405180910390f35b34801561017f57600080fd5b50610188610549565b604051808273ffffffffffffffffffffffffffffffffffffffff1673ffffffffffffffffffffffffffffffffffffffff16815260200191505060405180910390f35b3480156101d657600080fd5b50610227600480360360808110156101ed57600080fd5b810190808035906020019092919080359060200190929190803563ffffffff1690602001909291908035906020019092919050505061056f565b6040518082815260200191505060405180910390f35b34801561024957600080fd5b506102526106e4565b6040518082815260200191505060405180910390f35b34801561027457600080fd5b5061027d6106ea565b6040518082815260200191505060405180910390f35b34801561029f57600080fd5b506102a86106f0565b6040518082815260200191505060405180910390f35b3480156102ca57600080fd5b5061031b600480360360808110156102e157600080fd5b810190808035906020019092919080359060200190929190803563ffffffff169060200190929190803590602001909291905050506106f6565b6040518082815260200191505060405180910390f35b34801561033d57600080fd5b5061034661089f565b6040518080602001828103825283818151815260200191508051906020019080838360005b8381101561038657808201518184015260208101905061036b565b50505050905090810190601f1680156103b35780820380516001836020036101000a031916815260200191505b509250505060405180910390f35b3480156103cd57600080fd5b506103fa600480360360208110156103e457600080fd5b810190808035906020019092919050505061093d565b6040518082815260200191505060405180910390f35b34801561041c57600080fd5b50610425610972565b6040518082815260200191505060405180910390f35b61044361097a565b6040518082815260200191505060405180910390f35b34801561046557600080fd5b5061046e610caf565b6040518082815260200191505060405180910390f35b34801561049057600080fd5b506104bd600480360360208110156104a757600080fd5b8101908080359060200190929190505050610cb9565b6040518082815260200191505060405180910390f35b3480156104df57600080fd5b506104e8611172565b6040518082815260200191505060405180910390f35b608160009054906101000a900463ffffffff1681565b6000610542610521610caf565b610529610972565b608160009054906101000a900463ffffffff168561056f565b9050919050565b608260009054906101000a900473ffffffffffffffffffffffffffffffffffffffff1681565b600080851180156105805750600084115b8015610592575060008363ffffffff16115b80156105ad5750620f424063ffffffff168363ffffffff1611155b61061f576040517f08c379a000000000000000000000000000000000000000000000000000000000815260040180806020018281038252600f8152602001807f496e76616c696420696e707574732e000000000000000000000000000000000081525060200191505060405180910390fd5b600082141561063157600090506106dc565b620f424063ffffffff168363ffffffff1614156106745761066d8461065f848861117890919063ffffffff16565b6111fe90919063ffffffff16565b90506106dc565b600080600061068c878661128790919063ffffffff16565b905061069d818888620f424061130f565b809350819450505060008260ff166106be858b61117890919063ffffffff16565b901c90506106d589826114e390919063ffffffff16565b9450505050505b949350505050565b60865481565b60835481565b60855481565b600080851180156107075750600084115b8015610719575060008363ffffffff16115b80156107345750620f424063ffffffff168363ffffffff1611155b80156107405750848211155b6107b2576040517f08c379a000000000000000000000000000000000000000000000000000000000815260040180806020018281038252600f8152602001807f496e76616c696420696e707574732e000000000000000000000000000000000081525060200191505060405180910390fd5b60008214156107c45760009050610897565b848214156107d457839050610897565b620f424063ffffffff168363ffffffff1614156108175761081085610802848761117890919063ffffffff16565b6111fe90919063ffffffff16565b9050610897565b600080600061082f85896114e390919063ffffffff16565b90506108408882620f42408961130f565b8093508194505050600061085d848961117890919063ffffffff16565b905060008360ff1689901b905061088f8561088183856114e390919063ffffffff16565b6111fe90919063ffffffff16565b955050505050505b949350505050565b60008054600181600116156101000203166002900480601f0160208091040260200160405190810160405280929190818152602001828054600181600116156101000203166002900480156109355780601f1061090a57610100808354040283529160200191610935565b820191906000526020600020905b81548152906001019060200180831161091857829003601f168201915b505050505081565b600061096b61094a610caf565b610952610972565b608160009054906101000a900463ffffffff16856106f6565b9050919050565b600047905090565b60008034905060006085541115610a975760006109b560646109a7608554856111fe90919063ffffffff16565b6111fe90919063ffffffff16565b9050608160049054906101000a900473ffffffffffffffffffffffffffffffffffffffff1673ffffffffffffffffffffffffffffffffffffffff166108fc829081150290604051600060405180830381858888f19350505050610a80576040517f08c379a00000000000000000000000000000000000000000000000000000000081526004018080602001828103825260178152602001807f62757920666565207472616e73666572206661696c656400000000000000000081525060200191505060405180910390fd5b610a9381836114e390919063ffffffff16565b9150505b6000610aa282610514565b9050608354610abc8260845461128790919063ffffffff16565b1115610b30576040517f08c379a00000000000000000000000000000000000000000000000000000000081526004018080602001828103825260148152602001807f6d6178696d756d206375727665206d696e74656400000000000000000000000081525060200191505060405180910390fd5b6000608260009054906101000a900473ffffffffffffffffffffffffffffffffffffffff1690508073ffffffffffffffffffffffffffffffffffffffff1663a9059cbb33846040518363ffffffff1660e01b8152600401808373ffffffffffffffffffffffffffffffffffffffff1673ffffffffffffffffffffffffffffffffffffffff16815260200182815260200192505050602060405180830381600087803b158015610bde57600080fd5b505af1158015610bf2573d6000803e3d6000fd5b505050506040513d6020811015610c0857600080fd5b8101908080519060200190929190505050610c8b576040517f08c379a000000000000000000000000000000000000000000000000000000000815260040180806020018281038252600f8152602001807f7472616e73666572206661696c6564000000000000000000000000000000000081525060200191505060405180910390fd5b610ca08260845461128790919063ffffffff16565b60848190555082935050505090565b6000608454905090565b600080608260009054906101000a900473ffffffffffffffffffffffffffffffffffffffff169050828173ffffffffffffffffffffffffffffffffffffffff166370a08231336040518263ffffffff1660e01b8152600401808273ffffffffffffffffffffffffffffffffffffffff1673ffffffffffffffffffffffffffffffffffffffff16815260200191505060206040518083038186803b158015610d5f57600080fd5b505afa158015610d73573d6000803e3d6000fd5b505050506040513d6020811015610d8957600080fd5b81019080805190602001909291905050501015610e0e576040517f08c379a00000000000000000000000000000000000000000000000000000000081526004018080602001828103825260188152602001807f696e737566666963656e742042494f502062616c616e6365000000000000000081525060200191505060405180910390fd5b6000610e198461093d565b9050600080905060006086541115610e6b57610e536064610e45608554856111fe90919063ffffffff16565b6111fe90919063ffffffff16565b9050610e6881836114e390919063ffffffff16565b91505b8273ffffffffffffffffffffffffffffffffffffffff166323b872dd3330886040518463ffffffff1660e01b8152600401808473ffffffffffffffffffffffffffffffffffffffff1673ffffffffffffffffffffffffffffffffffffffff1681526020018373ffffffffffffffffffffffffffffffffffffffff1673ffffffffffffffffffffffffffffffffffffffff1681526020018281526020019350505050602060405180830381600087803b158015610f2657600080fd5b505af1158015610f3a573d6000803e3d6000fd5b505050506040513d6020811015610f5057600080fd5b8101908080519060200190929190505050610fd3576040517f08c379a000000000000000000000000000000000000000000000000000000000815260040180806020018281038252600f8152602001807f7472616e73666572206661696c6564000000000000000000000000000000000081525060200191505060405180910390fd5b610fe8856084546114e390919063ffffffff16565b608481905550600081146110c057608160049054906101000a900473ffffffffffffffffffffffffffffffffffffffff1673ffffffffffffffffffffffffffffffffffffffff166108fc829081150290604051600060405180830381858888f193505050506110bf576040517f08c379a00000000000000000000000000000000000000000000000000000000081526004018080602001828103825260178152602001807f62757920666565207472616e73666572206661696c656400000000000000000081525060200191505060405180910390fd5b5b3373ffffffffffffffffffffffffffffffffffffffff166108fc839081150290604051600060405180830381858888f19350505050611167576040517f08c379a000000000000000000000000000000000000000000000000000000000815260040180806020018281038252600f8152602001807f7472616e73666572206661696c6564000000000000000000000000000000000081525060200191505060405180910390fd5b819350505050919050565b60845481565b60008083141561118b57600090506111f8565b600082840290508284828161119c57fe5b04146111f3576040517f08c379a000000000000000000000000000000000000000000000000000000000815260040180806020018281038252602181526020018061266e6021913960400191505060405180910390fd5b809150505b92915050565b6000808211611275576040517f08c379a000000000000000000000000000000000000000000000000000000000815260040180806020018281038252601a8152602001807f536166654d6174683a206469766973696f6e206279207a65726f00000000000081525060200191505060405180910390fd5b81838161127e57fe5b04905092915050565b600080828401905083811015611305576040517f08c379a000000000000000000000000000000000000000000000000000000000815260040180806020018281038252601b8152602001807f536166654d6174683a206164646974696f6e206f766572666c6f77000000000081525060200191505060405180910390fd5b8091505092915050565b6000807002000000000000000000000000000000008610611398576040517f08c379a00000000000000000000000000000000000000000000000000000000081526004018080602001828103825260188152602001807f626173654e2065786365656473206d61782076616c75652e000000000000000081525060200191505060405180910390fd5b8486101561140e576040517f08c379a000000000000000000000000000000000000000000000000000000000815260040180806020018281038252601c8152602001807f4261736573203c203120617265206e6f7420737570706f727465642e0000000081525060200191505060405180910390fd5b600080866f8000000000000000000000000000000089028161142c57fe5b04905070015bf0a8b1457695355fb8ac404e7a79e38110156114585761145181611566565b9150611464565b61146181611af6565b91505b60008563ffffffff168763ffffffff1684028161147d57fe5b0490507008000000000000000000000000000000008110156114b0576114a281611c1e565b607f945094505050506114da565b60006114bb82612198565b90506114d081607f0360ff1683901c8261224d565b8195509550505050505b94509492505050565b60008282111561155b576040517f08c379a000000000000000000000000000000000000000000000000000000000815260040180806020018281038252601e8152602001807f536166654d6174683a207375627472616374696f6e206f766572666c6f77000081525060200191505060405180910390fd5b818303905092915050565b6000806000905060008060006fd3094c70f034de4b96ff7d5b6f99fcd886106115cd576f40000000000000000000000000000000840193506fd3094c70f034de4b96ff7d5b6f99fcd86f800000000000000000000000000000008702816115c957fe5b0495505b6fa45af1e1f40c333b3de1db4dd55f29a78610611628576f20000000000000000000000000000000840193506fa45af1e1f40c333b3de1db4dd55f29a76f8000000000000000000000000000000087028161162457fe5b0495505b6f910b022db7ae67ce76b441c27035c6a18610611683576f10000000000000000000000000000000840193506f910b022db7ae67ce76b441c27035c6a16f8000000000000000000000000000000087028161167f57fe5b0495505b6f88415abbe9a76bead8d00cf112e4d4a886106116de576f08000000000000000000000000000000840193506f88415abbe9a76bead8d00cf112e4d4a86f800000000000000000000000000000008702816116da57fe5b0495505b6f84102b00893f64c705e841d5d4064bd38610611739576f04000000000000000000000000000000840193506f84102b00893f64c705e841d5d4064bd36f8000000000000000000000000000000087028161173557fe5b0495505b6f8204055aaef1c8bd5c3259f4822735a28610611794576f02000000000000000000000000000000840193506f8204055aaef1c8bd5c3259f4822735a26f8000000000000000000000000000000087028161179057fe5b0495505b6f810100ab00222d861931c15e39b44e9986106117ef576f01000000000000000000000000000000840193506f810100ab00222d861931c15e39b44e996f800000000000000000000000000000008702816117eb57fe5b0495505b6f808040155aabbbe9451521693554f7338610611849576e800000000000000000000000000000840193506f808040155aabbbe9451521693554f7336f8000000000000000000000000000000087028161184557fe5b0495505b6f80000000000000000000000000000000860392508291506f800000000000000000000000000000008384028161187c57fe5b04905070010000000000000000000000000000000083700100000000000000000000000000000000038302816118ae57fe5b04840193506f80000000000000000000000000000000818302816118ce57fe5b049150700200000000000000000000000000000000836faaaaaaaaaaaaaaaaaaaaaaaaaaaaaaaa038302816118ff57fe5b04840193506f800000000000000000000000000000008183028161191f57fe5b049150700300000000000000000000000000000000836f999999999999999999999999999999990383028161195057fe5b04840193506f800000000000000000000000000000008183028161197057fe5b049150700400000000000000000000000000000000836f92492492492492492492492492492492038302816119a157fe5b04840193506f80000000000000000000000000000000818302816119c157fe5b049150700500000000000000000000000000000000836f8e38e38e38e38e38e38e38e38e38e38e038302816119f257fe5b04840193506f8000000000000000000000000000000081830281611a1257fe5b049150700600000000000000000000000000000000836f8ba2e8ba2e8ba2e8ba2e8ba2e8ba2e8b03830281611a4357fe5b04840193506f8000000000000000000000000000000081830281611a6357fe5b049150700700000000000000000000000000000000836f89d89d89d89d89d89d89d89d89d89d8903830281611a9457fe5b04840193506f8000000000000000000000000000000081830281611ab457fe5b049150700800000000000000000000000000000000836f8888888888888888888888888888888803830281611ae557fe5b048401935083945050505050919050565b6000806000905060008390507001000000000000000000000000000000008110611b63576000611b3e6f800000000000000000000000000000008381611b3857fe5b046125eb565b90508060ff1682901c91506f800000000000000000000000000000008160ff16029250505b6f80000000000000000000000000000000811115611be9576000607f90505b60008160ff161115611be7576f8000000000000000000000000000000082830281611ba957fe5b0491507001000000000000000000000000000000008210611bdb57600182901c91506001810360ff166001901b830192505b80600190039050611b82565b505b6f05b9de1d10bf4103d647b0955897ba806f03f80fe03f80fe03f80fe03f80fe03f8830281611c1457fe5b0492505050919050565b600080600090506000806f100000000000000000000000000000008581611c4157fe5b0691508190506f8000000000000000000000000000000082820281611c6257fe5b0490506710e1b3be415a00008102830192506f8000000000000000000000000000000082820281611c8f57fe5b0490506705a0913f6b1e00008102830192506f8000000000000000000000000000000082820281611cbc57fe5b049050670168244fdac780008102830192506f8000000000000000000000000000000082820281611ce957fe5b049050664807432bc180008102830192506f8000000000000000000000000000000082820281611d1557fe5b049050660c0135dca040008102830192506f8000000000000000000000000000000082820281611d4157fe5b0490506601b707b1cdc0008102830192506f8000000000000000000000000000000082820281611d6d57fe5b0490506536e0f639b8008102830192506f8000000000000000000000000000000082820281611d9857fe5b049050650618fee9f8008102830192506f8000000000000000000000000000000082820281611dc357fe5b049050649c197dcc008102830192506f8000000000000000000000000000000082820281611ded57fe5b049050640e30dce4008102830192506f8000000000000000000000000000000082820281611e1757fe5b04905064012ebd13008102830192506f8000000000000000000000000000000082820281611e4157fe5b0490506317499f008102830192506f8000000000000000000000000000000082820281611e6a57fe5b0490506301a9d4808102830192506f8000000000000000000000000000000082820281611e9357fe5b049050621c63808102830192506f8000000000000000000000000000000082820281611ebb57fe5b0490506201c6388102830192506f8000000000000000000000000000000082820281611ee357fe5b049050611ab88102830192506f8000000000000000000000000000000082820281611f0a57fe5b04905061017c8102830192506f8000000000000000000000000000000082820281611f3157fe5b04905060148102830192506f8000000000000000000000000000000082820281611f5757fe5b04905060018102830192506f80000000000000000000000000000000826721c3677c82b400008581611f8557fe5b040101925060006f10000000000000000000000000000000861614611fd55770018ebef9eac820ae8682b9793ac6d1e7767001c3d6a24ed82218787d624d3e5eba95f9840281611fd157fe5b0492505b60006f20000000000000000000000000000000861614612020577001368b2fc6f9609fe7aceb46aa619baed470018ebef9eac820ae8682b9793ac6d1e77884028161201c57fe5b0492505b60006f4000000000000000000000000000000086161461206a576fbc5ab1b16779be3575bd8f0520a9f21f7001368b2fc6f9609fe7aceb46aa619baed584028161206657fe5b0492505b60006f800000000000000000000000000000008616146120b3576f454aaa8efe072e7f6ddbab84b40a55c96fbc5ab1b16779be3575bd8f0520a9f21e8402816120af57fe5b0492505b60007001000000000000000000000000000000008616146120fd576f0960aadc109e7a3bf4578099615711ea6f454aaa8efe072e7f6ddbab84b40a55c58402816120f957fe5b0492505b6000700200000000000000000000000000000000861614612146576e2bf84208204f5977f9a8cf01fdce3d6f0960aadc109e7a3bf4578099615711d784028161214257fe5b0492505b600070040000000000000000000000000000000086161461218d576d03c6ab775dd0b95b4cbee7e65d116e2bf84208204f5977f9a8cf01fdc30784028161218957fe5b0492505b829350505050919050565b600080602090506000607f90505b8060ff166001830160ff1610156121f5576000600282840160ff16816121c857fe5b0490508460018260ff16608081106121dc57fe5b0154106121eb578092506121ef565b8091505b506121a6565b8360018260ff166080811061220657fe5b015410612217578092505050612248565b8360018360ff166080811061222857fe5b015410612239578192505050612248565b600061224157fe5b6000925050505b919050565b60008083905060008090508360ff16858302901c91506f03442c4e6074a82f1797f72ac00000008202810190508360ff16858302901c91506f0116b96f757c380fb287fd0e400000008202810190508360ff16858302901c91506e45ae5bdd5f0e03eca1ff43900000008202810190508360ff16858302901c91506e0defabf91302cd95b9ffda500000008202810190508360ff16858302901c91506e02529ca9832b22439efff9b80000008202810190508360ff16858302901c91506d54f1cf12bd04e516b6da880000008202810190508360ff16858302901c91506d0a9e39e257a09ca2d6db510000008202810190508360ff16858302901c91506d012e066e7b839fa050c3090000008202810190508360ff16858302901c91506c1e33d7d926c329a1ad1a8000008202810190508360ff16858302901c91506c02bee513bdb4a6b19b5f8000008202810190508360ff16858302901c91506b3a9316fa79b88eccf2a000008202810190508360ff16858302901c91506b048177ebe1fa8123752000008202810190508360ff16858302901c91506a5263fe90242dcbacf000008202810190508360ff16858302901c91506a057e22099c030d941000008202810190508360ff16858302901c91506957e22099c030d94100008202810190508360ff16858302901c915069052b6b545699763100008202810190508360ff16858302901c9150684985f67696bf7480008202810190508360ff16858302901c91506803dea12ea99e4980008202810190508360ff16858302901c91506731880f2214b6e0008202810190508360ff16858302901c915067025bcff56eb360008202810190508360ff16858302901c9150661b722e10ab10008202810190508360ff16858302901c91506601317c700770008202810190508360ff16858302901c9150650cba84aafa008202810190508360ff16858302901c91506482573a0a008202810190508360ff16858302901c91506405035ad9008202810190508360ff16858302901c9150632f881b008202810190508360ff16858302901c91506301b293408202810190508360ff16858302901c9150620efc408202810190508360ff16858302901c9150617fe08202810190508360ff16858302901c91506104208202810190508360ff16858302901c915060218202810190508360ff16858302901c915060018202810190508360ff166001901b856f0688589cc0e9505e2f2fee558000000083816125de57fe5b0401019250505092915050565b600080600090506000839050610100811015612622575b600181111561261d57600181901c9050600182019150612602565b612663565b6000608090505b60008160ff161115612661578060ff166001901b8210612652578060ff1682901c915080831792505b60018160ff16901c9050612629565b505b819250505091905056fe536166654d6174683a206d756c7469706c69636174696f6e206f766572666c6f77a26469706673582212208bc5cd709df68f314fb188f8b58e09ab89ecbc4c9e309603725b2a8ceabf3cb464736f6c63430006060033",
  "linkReferences": {},
  "deployedLinkReferences": {}
}