{
  "contractName": "ITCO",
  "abi": [
    {
      "inputs": [
        {
          "internalType": "address payable",
          "name": "tk_",
          "type": "address"
        }
      ],
      "stateMutability": "nonpayable",
      "type": "constructor"
    },
    {
      "stateMutability": "payable",
      "type": "fallback"
    },
    {
      "inputs": [],
      "name": "end",
      "outputs": [
        {
          "internalType": "uint256",
          "name": "",
          "type": "uint256"
        }
      ],
      "stateMutability": "view",
      "type": "function"
    },
    {
      "inputs": [],
      "name": "sta",
      "outputs": [
        {
          "internalType": "uint256",
          "name": "",
          "type": "uint256"
        }
      ],
      "stateMutability": "view",
      "type": "function"
    },
    {
      "inputs": [],
      "name": "tk",
      "outputs": [
        {
          "internalType": "address payable",
          "name": "",
          "type": "address"
        }
      ],
      "stateMutability": "view",
      "type": "function"
    },
    {
      "inputs": [],
      "name": "total",
      "outputs": [
        {
          "internalType": "uint256",
          "name": "",
          "type": "uint256"
        }
      ],
      "stateMutability": "view",
      "type": "function"
    },
    {
      "inputs": [
        {
          "internalType": "uint256",
          "name": "a",
          "type": "uint256"
        },
        {
          "internalType": "uint256",
          "name": "t",
          "type": "uint256"
        }
      ],
      "name": "open",
      "outputs": [],
      "stateMutability": "nonpayable",
      "type": "function"
    },
    {
      "inputs": [],
      "name": "currentTier",
      "outputs": [
        {
          "internalType": "uint256",
          "name": "",
          "type": "uint256"
        },
        {
          "internalType": "uint256",
          "name": "",
          "type": "uint256"
        }
      ],
      "stateMutability": "view",
      "type": "function"
    },
    {
      "inputs": [],
      "name": "collect",
      "outputs": [],
      "stateMutability": "nonpayable",
      "type": "function"
    }
  ],
  "bytecode": "0x6080604052600060025560006003556000600455695f4a8c8375d1554000006006556974778f4b571c4bc00000600755699ed194db19b238c0000060085569de589d32bd931c4000006009556a01287626ee52197b000000600a556a017d2a320dd74555000000600b556548c273950000600c556551dac207a000600d55655af3107a4000600e5565640b5eece000600f55656d23ad5f800060105565763bfbd220006011553480156100b157600080fd5b50604051610b89380380610b89833981810160405260208110156100d457600080fd5b5051600180546001600160a01b03199081163317909155600080546001600160a01b0390931692909116919091179055610a76806101136000396000f3fe6080604052600436106100705760003560e01c80634d17f7fc1161004e5780634d17f7fc146103f6578063d679677a1461040b578063e522538114610439578063efbe1c1c1461044e57610070565b806321f408be1461036c5780632ddbd13a1461039d5780634082de67146103c4575b6000600354116100bd576040805162461bcd60e51b8152602060048201526013602482015272125090d3c81b9bdd081bdc195b9959081e595d606a1b604482015290519081900360640190fd5b6004544210610104576040805162461bcd60e51b815260206004820152600e60248201526d125090d3c81a185cc8195b99195960921b604482015290519081900360640190fd5b6000600b546002541061011a575060115461016f565b600a546002541061012e575060105461016f565b600954600254106101425750600f5461016f565b600854600254106101565750600e5461016f565b6007546002541061016a5750600d5461016f565b50600c545b8034116101ad5760405162461bcd60e51b8152600401808060200182810382526021815260200180610a206021913960400191505060405180910390fd5b60006101bf348363ffffffff61046316565b60008054604080516370a0823160e01b815230600482015290519394506001600160a01b039091169283916370a08231916024808301926020929190829003018186803b15801561020f57600080fd5b505afa158015610223573d6000803e3d6000fd5b505050506040513d602081101561023957600080fd5b5051905082811015610292576040805162461bcd60e51b815260206004820181905260248201527f696e737566666963656e742062616c616e6365206c65667420696e206974636f604482015290519081900360640190fd5b6002546102a5903463ffffffff6104ac16565b6002556040805163a9059cbb60e01b81523360048201526024810185905290516001600160a01b0384169163a9059cbb9160448083019260209291908290030181600087803b1580156102f757600080fd5b505af115801561030b573d6000803e3d6000fd5b505050506040513d602081101561032157600080fd5b5051610366576040805162461bcd60e51b815260206004820152600f60248201526e1d1c985b9cd9995c8819985a5b1959608a1b604482015290519081900360640190fd5b50505050005b34801561037857600080fd5b50610381610506565b604080516001600160a01b039092168252519081900360200190f35b3480156103a957600080fd5b506103b2610515565b60408051918252519081900360200190f35b3480156103d057600080fd5b506103f4600480360360408110156103e757600080fd5b508035906020013561051b565b005b34801561040257600080fd5b506103b2610656565b34801561041757600080fd5b5061042061065c565b6040805192835260208301919091528051918290030190f35b34801561044557600080fd5b506103f46106e5565b34801561045a57600080fd5b506103b2610977565b60006104a583836040518060400160405280601a81526020017f536166654d6174683a206469766973696f6e206279207a65726f00000000000081525061097d565b9392505050565b6000828201838110156104a5576040805162461bcd60e51b815260206004820152601b60248201527f536166654d6174683a206164646974696f6e206f766572666c6f770000000000604482015290519081900360640190fd5b6000546001600160a01b031681565b60055481565b6001546001600160a01b0316331461057a576040805162461bcd60e51b815260206004820181905260248201527f4f776e61626c653a2063616c6c6572206973206e6f7420746865206f776e6572604482015290519081900360640190fd5b60008054604080516323b872dd60e01b81523360048201523060248201526044810186905290516001600160a01b039092169283926323b872dd926064808201936020939283900390910190829087803b1580156105d757600080fd5b505af11580156105eb573d6000803e3d6000fd5b505050506040513d602081101561060157600080fd5b5051610646576040805162461bcd60e51b815260206004820152600f60248201526e1d1c985b9cd9995c8819985a5b1959608a1b604482015290519081900360640190fd5b5042600381905501600455600555565b60035481565b600080600080600a546002541061067957505060115460066106dd565b6009546002541061069057505060105460056106dd565b600854600254106106a7575050600f5460046106dd565b600754600254106106be575050600e5460036106dd565b600654600254106106d5575050600d5460026106dd565b5050600c5460015b925090509091565b6001546001600160a01b03163314610744576040805162461bcd60e51b815260206004820181905260248201527f4f776e61626c653a2063616c6c6572206973206e6f7420746865206f776e6572604482015290519081900360640190fd5b60045461078e576040805162461bcd60e51b8152602060048201526013602482015272125090d3c81b9bdd081bdc195b9959081e595d606a1b604482015290519081900360640190fd5b60045442116107d9576040805162461bcd60e51b8152602060048201526012602482015271125090d3c81b9bdd08195b991959081e595d60721b604482015290519081900360640190fd5b60405133904780156108fc02916000818181858888f19350505050610837576040805162461bcd60e51b815260206004820152600f60248201526e1d1c985b9cd9995c8819985a5b1959608a1b604482015290519081900360640190fd5b60008054604080516370a0823160e01b815230600482015290516001600160a01b03909216929183916370a08231916024808301926020929190829003018186803b15801561088557600080fd5b505afa158015610899573d6000803e3d6000fd5b505050506040513d60208110156108af57600080fd5b50516040805163a9059cbb60e01b81523360048201526024810183905290519192506001600160a01b0384169163a9059cbb916044808201926020929091908290030181600087803b15801561090457600080fd5b505af1158015610918573d6000803e3d6000fd5b505050506040513d602081101561092e57600080fd5b5051610973576040805162461bcd60e51b815260206004820152600f60248201526e1d1c985b9cd9995c8819985a5b1959608a1b604482015290519081900360640190fd5b5050565b60045481565b60008183610a095760405162461bcd60e51b81526004018080602001828103825283818151815260200191508051906020019080838360005b838110156109ce5781810151838201526020016109b6565b50505050905090810190601f1680156109fb5780820380516001836020036101000a031916815260200191505b509250505060405180910390fd5b506000838581610a1557fe5b049594505050505056fe696e737566666963656e74207061796d656e7420666f72206f6e6520746f6b656ea264697066735822122045ba6fa6be5b26146f6dbd1723c9adf641b09d9e15bc41f0f6b8bc661d4a9b4d64736f6c63430006060033",
  "immutableReferences": {},
  "source": "pragma solidity 0.6.6;\n\n\nimport \"@openzeppelin/contracts/math/SafeMath.sol\";\nimport \"@openzeppelin/contracts/token/ERC20/ERC20.sol\";\n\ncontract ITCO {\n    using SafeMath for uint256;\n    address payable public tk; //address of the token being used in the ibco\n    address payable owner;\n    uint256 totalDeps = 0;//total deposits\n    uint256 public sta = 0;//start\n    uint256 public end = 0;\n    uint256 public total;\n\n    \n    //Tiers\n    uint256 t1 =  450000000000000000000000;\n    uint256 t2 =  550000000000000000000000;\n    uint256 t3 =  750000000000000000000000;\n    uint256 t4 = 1050000000000000000000000;\n    uint256 t5 = 1400000000000000000000000;\n    uint256 t6 = 1800000000000000000000000;\n\n    //token price at each tier\n    uint256 p1 =  80000000000000;//~$0.12\n    uint256 p2 =  90000000000000;//~$0.14\n    uint256 p3 = 100000000000000;//~$0.16\n    uint256 p4 = 110000000000000;//~$0.17\n    uint256 p5 = 120000000000000;//~$0.19\n    uint256 p6 = 130000000000000;//~$0.20\n\n\n    /**\n    * @notice start the ibco\n    * @param tk_ address of token to be ibco'd\n    */\n    constructor(address payable tk_) public {\n        owner = msg.sender;\n        tk = tk_;\n    }\n\n    modifier onlyOwner() {\n        require(owner == msg.sender, \"Ownable: caller is not the owner\");\n        _;\n    }\n\n    /**\n    * @notice start the ibco\n    * @dev owner must approve IBCO contract before start will succeed\n    * @param a the amount of token to include in ibco\n    * @param t the total length of the ibco (seconnds after start)\n     */\n    function open(uint a, uint256 t) external onlyOwner {\n        ERC20 token = ERC20(tk);\n        require(token.transferFrom(msg.sender, address(this), a), \"transfer failed\");\n        sta = block.timestamp;\n        end = block.timestamp + t;\n        total = a;\n    }\n\n    /**\n    * @notice returns the current tier and current price\n     */\n    function currentTier() external view returns (uint256, uint256){\n        uint256 price;\n        uint256 t;\n        if (totalDeps >= t5) {\n            t = 6;\n            price = p6;\n        } else if (totalDeps >= t4) {\n            t = 5;\n            price = p5;\n        } else if (totalDeps >= t3) {\n            t = 4;\n            price = p4;\n        } else if (totalDeps >= t2) {\n            t = 3;\n            price = p3;\n        } else if (totalDeps >= t1) {\n            t = 2;\n            price = p2;\n        } else {\n            t = 1;\n            price = p1;\n        }\n        return (t, price);\n    }\n\n\n    /**\n    * @notice withdraw the ETH emassed in the ibco\n    */\n    function collect() external onlyOwner {\n        require(end != 0, \"IBCO not opened yet\");\n        require(block.timestamp > end, \"IBCO not ended yet\");\n        require(msg.sender.send(address(this).balance), \"transfer failed\");\n\n        //collect leftover tokens from unreached tiers\n        ERC20 token = ERC20(tk);\n        uint256 balance = token.balanceOf(address(this));\n        require(token.transfer(msg.sender, balance), \"transfer failed\");\n    }\n\n    \n\n\n    fallback () external payable {\n        require(sta > 0, \"IBCO not opened yet\");\n        require(block.timestamp < end, \"IBCO has ended\");\n        uint256 price;\n        if (totalDeps >= t6) {\n            price = p6;\n        } else if (totalDeps >= t5) {\n            price = p5;\n        } else if (totalDeps >= t4) {\n            price = p4;\n        } else if (totalDeps >= t3) {\n            price = p3;\n        } else if (totalDeps >= t2) {\n            price = p2;\n        } else {\n            price = p1;\n        }\n        require(msg.value > price, \"insufficent payment for one token\");\n\n    //tokens to send\n        uint256 tTS = (msg.value.div(price));//x18\n        \n        ERC20 token = ERC20(tk);\n        uint256 balance = token.balanceOf(address(this));\n        require(balance >= tTS, \"insufficent balance left in itco\");\n\n        totalDeps = totalDeps.add(msg.value);\n        require(token.transfer(msg.sender, tTS), \"transfer failed\");\n    }\n\n}",
  "sourcePath": "/Users/x/Desktop/eth/BIOPv4/contracts/ITCO.sol",
  "compiler": {
    "name": "solc",
    "version": "0.6.6+commit.6c089d02.Emscripten.clang"
  },
  "schemaVersion": "3.3.4",
  "updatedAt": "2021-04-01T19:40:45.957Z",
  "devdoc": {
    "methods": {
      "constructor": {
        "params": {
          "tk_": "address of token to be ibco'd"
        }
      },
      "open(uint256,uint256)": {
        "details": "owner must approve IBCO contract before start will succeed",
        "params": {
          "a": "the amount of token to include in ibco",
          "t": "the total length of the ibco (seconnds after start)"
        }
      }
    }
  },
  "userdoc": {
    "methods": {
      "collect()": {
        "notice": "withdraw the ETH emassed in the ibco"
      },
      "constructor": "start the ibco",
      "currentTier()": {
        "notice": "returns the current tier and current price"
      },
      "open(uint256,uint256)": {
        "notice": "start the ibco"
      }
    }
  }
}